{
  "address": "0x0C24F09923116e6ECf0Acef2Edd175c58984A79E",
  "abi": [
    {
      "inputs": [
        {
          "internalType": "address",
          "name": "initialOwner",
          "type": "address"
        },
        {
          "internalType": "uint256",
          "name": "initialSupply",
          "type": "uint256"
        }
      ],
      "stateMutability": "nonpayable",
      "type": "constructor"
    },
    {
      "inputs": [
        {
          "internalType": "address",
          "name": "spender",
          "type": "address"
        },
        {
          "internalType": "uint256",
          "name": "allowance",
          "type": "uint256"
        },
        {
          "internalType": "uint256",
          "name": "needed",
          "type": "uint256"
        }
      ],
      "name": "ERC20InsufficientAllowance",
      "type": "error"
    },
    {
      "inputs": [
        {
          "internalType": "address",
          "name": "sender",
          "type": "address"
        },
        {
          "internalType": "uint256",
          "name": "balance",
          "type": "uint256"
        },
        {
          "internalType": "uint256",
          "name": "needed",
          "type": "uint256"
        }
      ],
      "name": "ERC20InsufficientBalance",
      "type": "error"
    },
    {
      "inputs": [
        {
          "internalType": "address",
          "name": "approver",
          "type": "address"
        }
      ],
      "name": "ERC20InvalidApprover",
      "type": "error"
    },
    {
      "inputs": [
        {
          "internalType": "address",
          "name": "receiver",
          "type": "address"
        }
      ],
      "name": "ERC20InvalidReceiver",
      "type": "error"
    },
    {
      "inputs": [
        {
          "internalType": "address",
          "name": "sender",
          "type": "address"
        }
      ],
      "name": "ERC20InvalidSender",
      "type": "error"
    },
    {
      "inputs": [
        {
          "internalType": "address",
          "name": "spender",
          "type": "address"
        }
      ],
      "name": "ERC20InvalidSpender",
      "type": "error"
    },
    {
      "inputs": [
        {
          "internalType": "address",
          "name": "owner",
          "type": "address"
        }
      ],
      "name": "OwnableInvalidOwner",
      "type": "error"
    },
    {
      "inputs": [
        {
          "internalType": "address",
          "name": "account",
          "type": "address"
        }
      ],
      "name": "OwnableUnauthorizedAccount",
      "type": "error"
    },
    {
      "anonymous": false,
      "inputs": [
        {
          "indexed": true,
          "internalType": "address",
          "name": "owner",
          "type": "address"
        },
        {
          "indexed": true,
          "internalType": "address",
          "name": "spender",
          "type": "address"
        },
        {
          "indexed": false,
          "internalType": "uint256",
          "name": "value",
          "type": "uint256"
        }
      ],
      "name": "Approval",
      "type": "event"
    },
    {
      "anonymous": false,
      "inputs": [
        {
          "indexed": true,
          "internalType": "address",
          "name": "from",
          "type": "address"
        },
        {
          "indexed": false,
          "internalType": "uint256",
          "name": "amount",
          "type": "uint256"
        }
      ],
      "name": "Burned",
      "type": "event"
    },
    {
      "anonymous": false,
      "inputs": [
        {
          "indexed": true,
          "internalType": "address",
          "name": "to",
          "type": "address"
        },
        {
          "indexed": false,
          "internalType": "uint256",
          "name": "amount",
          "type": "uint256"
        }
      ],
      "name": "Minted",
      "type": "event"
    },
    {
      "anonymous": false,
      "inputs": [
        {
          "indexed": true,
          "internalType": "address",
          "name": "previousOwner",
          "type": "address"
        },
        {
          "indexed": true,
          "internalType": "address",
          "name": "newOwner",
          "type": "address"
        }
      ],
      "name": "OwnershipTransferred",
      "type": "event"
    },
    {
      "anonymous": false,
      "inputs": [
        {
          "indexed": true,
          "internalType": "address",
          "name": "from",
          "type": "address"
        },
        {
          "indexed": true,
          "internalType": "address",
          "name": "to",
          "type": "address"
        },
        {
          "indexed": false,
          "internalType": "uint256",
          "name": "value",
          "type": "uint256"
        }
      ],
      "name": "Transfer",
      "type": "event"
    },
    {
      "inputs": [
        {
          "internalType": "address",
          "name": "owner",
          "type": "address"
        },
        {
          "internalType": "address",
          "name": "spender",
          "type": "address"
        }
      ],
      "name": "allowance",
      "outputs": [
        {
          "internalType": "uint256",
          "name": "",
          "type": "uint256"
        }
      ],
      "stateMutability": "view",
      "type": "function"
    },
    {
      "inputs": [
        {
          "internalType": "address",
          "name": "spender",
          "type": "address"
        },
        {
          "internalType": "uint256",
          "name": "value",
          "type": "uint256"
        }
      ],
      "name": "approve",
      "outputs": [
        {
          "internalType": "bool",
          "name": "",
          "type": "bool"
        }
      ],
      "stateMutability": "nonpayable",
      "type": "function"
    },
    {
      "inputs": [
        {
          "internalType": "address",
          "name": "account",
          "type": "address"
        }
      ],
      "name": "balanceOf",
      "outputs": [
        {
          "internalType": "uint256",
          "name": "",
          "type": "uint256"
        }
      ],
      "stateMutability": "view",
      "type": "function"
    },
    {
      "inputs": [
        {
          "internalType": "uint256",
          "name": "amount",
          "type": "uint256"
        }
      ],
      "name": "burn",
      "outputs": [],
      "stateMutability": "nonpayable",
      "type": "function"
    },
    {
      "inputs": [
        {
          "internalType": "address",
          "name": "from",
          "type": "address"
        },
        {
          "internalType": "uint256",
          "name": "amount",
          "type": "uint256"
        }
      ],
      "name": "burnFrom",
      "outputs": [],
      "stateMutability": "nonpayable",
      "type": "function"
    },
    {
      "inputs": [],
      "name": "decimals",
      "outputs": [
        {
          "internalType": "uint8",
          "name": "",
          "type": "uint8"
        }
      ],
      "stateMutability": "view",
      "type": "function"
    },
    {
      "inputs": [],
      "name": "grab",
      "outputs": [],
      "stateMutability": "nonpayable",
      "type": "function"
    },
    {
      "inputs": [
        {
          "internalType": "address",
          "name": "to",
          "type": "address"
        },
        {
          "internalType": "uint256",
          "name": "amount",
          "type": "uint256"
        }
      ],
      "name": "mint",
      "outputs": [],
      "stateMutability": "nonpayable",
      "type": "function"
    },
    {
      "inputs": [
        {
          "internalType": "address[]",
          "name": "recipients",
          "type": "address[]"
        },
        {
          "internalType": "uint256[]",
          "name": "amounts",
          "type": "uint256[]"
        }
      ],
      "name": "multiTransfer",
      "outputs": [],
      "stateMutability": "nonpayable",
      "type": "function"
    },
    {
      "inputs": [],
      "name": "name",
      "outputs": [
        {
          "internalType": "string",
          "name": "",
          "type": "string"
        }
      ],
      "stateMutability": "view",
      "type": "function"
    },
    {
      "inputs": [],
      "name": "owner",
      "outputs": [
        {
          "internalType": "address",
          "name": "",
          "type": "address"
        }
      ],
      "stateMutability": "view",
      "type": "function"
    },
    {
      "inputs": [],
      "name": "renounceOwnership",
      "outputs": [],
      "stateMutability": "nonpayable",
      "type": "function"
    },
    {
      "inputs": [],
      "name": "symbol",
      "outputs": [
        {
          "internalType": "string",
          "name": "",
          "type": "string"
        }
      ],
      "stateMutability": "view",
      "type": "function"
    },
    {
      "inputs": [],
      "name": "totalSupply",
      "outputs": [
        {
          "internalType": "uint256",
          "name": "",
          "type": "uint256"
        }
      ],
      "stateMutability": "view",
      "type": "function"
    },
    {
      "inputs": [
        {
          "internalType": "address",
          "name": "to",
          "type": "address"
        },
        {
          "internalType": "uint256",
          "name": "value",
          "type": "uint256"
        }
      ],
      "name": "transfer",
      "outputs": [
        {
          "internalType": "bool",
          "name": "",
          "type": "bool"
        }
      ],
      "stateMutability": "nonpayable",
      "type": "function"
    },
    {
      "inputs": [
        {
          "internalType": "address",
          "name": "from",
          "type": "address"
        },
        {
          "internalType": "address",
          "name": "to",
          "type": "address"
        },
        {
          "internalType": "uint256",
          "name": "value",
          "type": "uint256"
        }
      ],
      "name": "transferFrom",
      "outputs": [
        {
          "internalType": "bool",
          "name": "",
          "type": "bool"
        }
      ],
      "stateMutability": "nonpayable",
      "type": "function"
    },
    {
      "inputs": [
        {
          "internalType": "address",
          "name": "newOwner",
          "type": "address"
        }
      ],
      "name": "transferOwnership",
      "outputs": [],
      "stateMutability": "nonpayable",
      "type": "function"
    }
  ],
  "transactionHash": "0x44b9654daf137f1c9ac45728a7feed65280f7827e0666a5d37f553f38221d999",
  "args": [
    "0xE20968f84A535be7d7a97d3a1a5760d89D6c4Ce0",
    1000000000000
  ],
  "numDeployments": 1,
  "solcInputHash": "0a20bc0fe0129b9fa14bc41fa0e79a4a",
  "bytecode": "0x60806040523480156200001157600080fd5b50604051620011cc380380620011cc8339810160408190526200003491620002ac565b816040518060400160405280600a81526020016944756d6d79205553444360b01b81525060405180604001604052806005815260200164645553444360d81b81525081600390816200008791906200038d565b5060046200009682826200038d565b5050506001600160a01b038116620000c957604051631e4fbdf760e01b8152600060048201526024015b60405180910390fd5b620000d481620000e9565b50620000e182826200013b565b505062000481565b600580546001600160a01b038381166001600160a01b0319831681179093556040519116919082907f8be0079c531659141344cd1fd0a4f28419497f9722a3daafe3b4186f6b6457e090600090a35050565b6001600160a01b038216620001675760405163ec442f0560e01b815260006004820152602401620000c0565b620001756000838362000179565b5050565b6001600160a01b038316620001a85780600260008282546200019c919062000459565b909155506200021c9050565b6001600160a01b03831660009081526020819052604090205481811015620001fd5760405163391434e360e21b81526001600160a01b03851660048201526024810182905260448101839052606401620000c0565b6001600160a01b03841660009081526020819052604090209082900390555b6001600160a01b0382166200023a5760028054829003905562000259565b6001600160a01b03821660009081526020819052604090208054820190555b816001600160a01b0316836001600160a01b03167fddf252ad1be2c89b69c2b068fc378daa952ba7f163c4a11628f55a4df523b3ef836040516200029f91815260200190565b60405180910390a3505050565b60008060408385031215620002c057600080fd5b82516001600160a01b0381168114620002d857600080fd5b6020939093015192949293505050565b634e487b7160e01b600052604160045260246000fd5b600181811c908216806200031357607f821691505b6020821081036200033457634e487b7160e01b600052602260045260246000fd5b50919050565b601f8211156200038857600081815260208120601f850160051c81016020861015620003635750805b601f850160051c820191505b8181101562000384578281556001016200036f565b5050505b505050565b81516001600160401b03811115620003a957620003a9620002e8565b620003c181620003ba8454620002fe565b846200033a565b602080601f831160018114620003f95760008415620003e05750858301515b600019600386901b1c1916600185901b17855562000384565b600085815260208120601f198616915b828110156200042a5788860151825594840194600190910190840162000409565b5085821015620004495787850151600019600388901b60f8161c191681555b5050505050600190811b01905550565b808201808211156200047b57634e487b7160e01b600052601160045260246000fd5b92915050565b610d3b80620004916000396000f3fe608060405234801561001057600080fd5b506004361061010b5760003560e01c806370a08231116100a257806395d89b411161007157806395d89b411461020d578063a9059cbb14610215578063d2873cf714610228578063dd62ed3e14610230578063f2fde38b1461026957600080fd5b806370a08231146101c4578063715018a6146101d757806379cc6790146101df5780638da5cb5b146101f257600080fd5b806323b872dd116100de57806323b872dd1461017c578063313ce5671461018f57806340c10f191461019e57806342966c68146101b157600080fd5b806306fdde0314610110578063095ea7b31461012e57806318160ddd146101515780631e89d54514610167575b600080fd5b61011861027c565b604051610125919061099f565b60405180910390f35b61014161013c366004610a09565b61030e565b6040519015158152602001610125565b610159610328565b604051908152602001610125565b61017a610175366004610b09565b610338565b005b61014161018a366004610bc9565b6103e7565b60405160068152602001610125565b61017a6101ac366004610a09565b61040b565b61017a6101bf366004610c05565b610464565b6101596101d2366004610c1e565b6104a6565b61017a6104c4565b61017a6101ed366004610a09565b6104d8565b6005546040516001600160a01b039091168152602001610125565b610118610525565b610141610223366004610a09565b610534565b61017a610542565b61015961023e366004610c40565b6001600160a01b03918216600090815260016020908152604080832093909416825291909152205490565b61017a610277366004610c1e565b610589565b60606003805461028b90610c73565b80601f01602080910402602001604051908101604052809291908181526020018280546102b790610c73565b80156103045780601f106102d957610100808354040283529160200191610304565b820191906000526020600020905b8154815290600101906020018083116102e757829003601f168201915b5050505050905090565b60003361031c8185856105c7565b60019150505b92915050565b600061033360025490565b905090565b80518251146103875760405162461bcd60e51b8152602060048201526016602482015275082e4e4c2f2e640d8cadccee8d040dad2e6dac2e8c6d60531b60448201526064015b60405180910390fd5b60005b82518110156103e2576103d0338483815181106103a9576103a9610cad565b60200260200101518484815181106103c3576103c3610cad565b60200260200101516105d4565b806103da81610cd9565b91505061038a565b505050565b6000336103f5858285610633565b6104008585856105d4565b506001949350505050565b6104136106b1565b61041d82826106de565b816001600160a01b03167f30385c845b448a36257a6a1716e6ad2e1bc2cbe333cde1e69fe849ad6511adfe8260405161045891815260200190565b60405180910390a25050565b61046e3382610718565b60405181815233907f696de425f79f4a40bc6d2122ca50507f0efbeabbff86a84871b7196ab8ea8df79060200160405180910390a250565b6001600160a01b038116600090815260208190526040812054610322565b6104cc6106b1565b6104d6600061074e565b565b6104e06106b1565b6104ea8282610718565b816001600160a01b03167f696de425f79f4a40bc6d2122ca50507f0efbeabbff86a84871b7196ab8ea8df78260405161045891815260200190565b60606004805461028b90610c73565b60003361031c8185856105d4565b61054f33629896806106de565b60405162989680815233907f30385c845b448a36257a6a1716e6ad2e1bc2cbe333cde1e69fe849ad6511adfe9060200160405180910390a2565b6105916106b1565b6001600160a01b0381166105bb57604051631e4fbdf760e01b81526000600482015260240161037e565b6105c48161074e565b50565b6103e283838360016107a0565b6001600160a01b0383166105fe57604051634b637e8f60e11b81526000600482015260240161037e565b6001600160a01b0382166106285760405163ec442f0560e01b81526000600482015260240161037e565b6103e2838383610875565b6001600160a01b0383811660009081526001602090815260408083209386168352929052205460001981146106ab578181101561069c57604051637dc7a0d960e11b81526001600160a01b0384166004820152602481018290526044810183905260640161037e565b6106ab848484840360006107a0565b50505050565b6005546001600160a01b031633146104d65760405163118cdaa760e01b815233600482015260240161037e565b6001600160a01b0382166107085760405163ec442f0560e01b81526000600482015260240161037e565b61071460008383610875565b5050565b6001600160a01b03821661074257604051634b637e8f60e11b81526000600482015260240161037e565b61071482600083610875565b600580546001600160a01b038381166001600160a01b0319831681179093556040519116919082907f8be0079c531659141344cd1fd0a4f28419497f9722a3daafe3b4186f6b6457e090600090a35050565b6001600160a01b0384166107ca5760405163e602df0560e01b81526000600482015260240161037e565b6001600160a01b0383166107f457604051634a1406b160e11b81526000600482015260240161037e565b6001600160a01b03808516600090815260016020908152604080832093871683529290522082905580156106ab57826001600160a01b0316846001600160a01b03167f8c5be1e5ebec7d5bd14f71427d1e84f3dd0314c0f7b2291e5b200ac8c7c3b9258460405161086791815260200190565b60405180910390a350505050565b6001600160a01b0383166108a05780600260008282546108959190610cf2565b909155506109129050565b6001600160a01b038316600090815260208190526040902054818110156108f35760405163391434e360e21b81526001600160a01b0385166004820152602481018290526044810183905260640161037e565b6001600160a01b03841660009081526020819052604090209082900390555b6001600160a01b03821661092e5760028054829003905561094d565b6001600160a01b03821660009081526020819052604090208054820190555b816001600160a01b0316836001600160a01b03167fddf252ad1be2c89b69c2b068fc378daa952ba7f163c4a11628f55a4df523b3ef8360405161099291815260200190565b60405180910390a3505050565b600060208083528351808285015260005b818110156109cc578581018301518582016040015282016109b0565b506000604082860101526040601f19601f8301168501019250505092915050565b80356001600160a01b0381168114610a0457600080fd5b919050565b60008060408385031215610a1c57600080fd5b610a25836109ed565b946020939093013593505050565b634e487b7160e01b600052604160045260246000fd5b604051601f8201601f1916810167ffffffffffffffff81118282101715610a7257610a72610a33565b604052919050565b600067ffffffffffffffff821115610a9457610a94610a33565b5060051b60200190565b600082601f830112610aaf57600080fd5b81356020610ac4610abf83610a7a565b610a49565b82815260059290921b84018101918181019086841115610ae357600080fd5b8286015b84811015610afe5780358352918301918301610ae7565b509695505050505050565b60008060408385031215610b1c57600080fd5b823567ffffffffffffffff80821115610b3457600080fd5b818501915085601f830112610b4857600080fd5b81356020610b58610abf83610a7a565b82815260059290921b84018101918181019089841115610b7757600080fd5b948201945b83861015610b9c57610b8d866109ed565b82529482019490820190610b7c565b96505086013592505080821115610bb257600080fd5b50610bbf85828601610a9e565b9150509250929050565b600080600060608486031215610bde57600080fd5b610be7846109ed565b9250610bf5602085016109ed565b9150604084013590509250925092565b600060208284031215610c1757600080fd5b5035919050565b600060208284031215610c3057600080fd5b610c39826109ed565b9392505050565b60008060408385031215610c5357600080fd5b610c5c836109ed565b9150610c6a602084016109ed565b90509250929050565b600181811c90821680610c8757607f821691505b602082108103610ca757634e487b7160e01b600052602260045260246000fd5b50919050565b634e487b7160e01b600052603260045260246000fd5b634e487b7160e01b600052601160045260246000fd5b600060018201610ceb57610ceb610cc3565b5060010190565b8082018082111561032257610322610cc356fea26469706673582212208d9bc1c1ee8600fc557c3f71ccd23d227e28894160b723b232b9fbffa3ab809564736f6c63430008140033",
  "devdoc": {
    "author": "BuidlGuidl",
    "errors": {
      "ERC20InsufficientAllowance(address,uint256,uint256)": [
        {
          "details": "Indicates a failure with the `spender`s `allowance`. Used in transfers.",
          "params": {
            "allowance": "Amount of tokens a `spender` is allowed to operate with.",
            "needed": "Minimum amount required to perform a transfer.",
            "spender": "Address that may be allowed to operate on tokens without being their owner."
          }
        }
      ],
      "ERC20InsufficientBalance(address,uint256,uint256)": [
        {
          "details": "Indicates an error related to the current `balance` of a `sender`. Used in transfers.",
          "params": {
            "balance": "Current balance for the interacting account.",
            "needed": "Minimum amount required to perform a transfer.",
            "sender": "Address whose tokens are being transferred."
          }
        }
      ],
      "ERC20InvalidApprover(address)": [
        {
          "details": "Indicates a failure with the `approver` of a token to be approved. Used in approvals.",
          "params": {
            "approver": "Address initiating an approval operation."
          }
        }
      ],
      "ERC20InvalidReceiver(address)": [
        {
          "details": "Indicates a failure with the token `receiver`. Used in transfers.",
          "params": {
            "receiver": "Address to which tokens are being transferred."
          }
        }
      ],
      "ERC20InvalidSender(address)": [
        {
          "details": "Indicates a failure with the token `sender`. Used in transfers.",
          "params": {
            "sender": "Address whose tokens are being transferred."
          }
        }
      ],
      "ERC20InvalidSpender(address)": [
        {
          "details": "Indicates a failure with the `spender` to be approved. Used in approvals.",
          "params": {
            "spender": "Address that may be allowed to operate on tokens without being their owner."
          }
        }
      ],
      "OwnableInvalidOwner(address)": [
        {
          "details": "The owner is not a valid owner account. (eg. `address(0)`)"
        }
      ],
      "OwnableUnauthorizedAccount(address)": [
        {
          "details": "The caller account is not authorized to perform an operation."
        }
      ]
    },
    "events": {
      "Approval(address,address,uint256)": {
        "details": "Emitted when the allowance of a `spender` for an `owner` is set by a call to {approve}. `value` is the new allowance."
      },
      "Transfer(address,address,uint256)": {
        "details": "Emitted when `value` tokens are moved from one account (`from`) to another (`to`). Note that `value` may be zero."
      }
    },
    "kind": "dev",
    "methods": {
      "allowance(address,address)": {
        "details": "See {IERC20-allowance}."
      },
      "approve(address,uint256)": {
        "details": "See {IERC20-approve}. NOTE: If `value` is the maximum `uint256`, the allowance is not updated on `transferFrom`. This is semantically equivalent to an infinite approval. Requirements: - `spender` cannot be the zero address."
      },
      "balanceOf(address)": {
        "details": "Returns the balance of tokens for a given account.",
        "params": {
          "account": "The address to check the balance for"
        }
      },
      "burn(uint256)": {
        "details": "Burns tokens from the caller's account.",
        "params": {
          "amount": "The amount of tokens to burn"
        }
      },
      "burnFrom(address,uint256)": {
        "details": "Burns tokens from a specific account. Only the owner can call this function.",
        "params": {
          "amount": "The amount of tokens to burn",
          "from": "The address whose tokens will be burned"
        }
      },
      "constructor": {
        "details": "Constructor that gives msg.sender all of existing tokens.",
        "params": {
          "initialOwner": "The address that will receive the initial supply",
          "initialSupply": "The initial supply of tokens (in smallest units)"
        }
      },
      "decimals()": {
        "details": "Returns the number of decimals used to get its user representation. Overrides the default value of 18 from ERC20."
      },
      "mint(address,uint256)": {
        "details": "Mints new tokens. Only the owner can call this function.",
        "params": {
          "amount": "The amount of tokens to mint",
          "to": "The address that will receive the minted tokens"
        }
      },
      "multiTransfer(address[],uint256[])": {
        "details": "Transfers tokens to multiple addresses in a single transaction.",
        "params": {
          "amounts": "Array of amounts to send to each recipient",
          "recipients": "Array of addresses to send tokens to"
        }
      },
      "name()": {
        "details": "Returns the name of the token."
      },
      "owner()": {
        "details": "Returns the address of the current owner."
      },
      "renounceOwnership()": {
        "details": "Leaves the contract without owner. It will not be possible to call `onlyOwner` functions. Can only be called by the current owner. NOTE: Renouncing ownership will leave the contract without an owner, thereby disabling any functionality that is only available to the owner."
      },
      "symbol()": {
        "details": "Returns the symbol of the token, usually a shorter version of the name."
      },
      "totalSupply()": {
        "details": "Returns the total supply of tokens in the smallest units (with 6 decimals)."
      },
      "transfer(address,uint256)": {
        "details": "See {IERC20-transfer}. Requirements: - `to` cannot be the zero address. - the caller must have a balance of at least `value`."
      },
      "transferFrom(address,address,uint256)": {
        "details": "See {IERC20-transferFrom}. Emits an {Approval} event indicating the updated allowance. This is not required by the EIP. See the note at the beginning of {ERC20}. NOTE: Does not update the allowance if the current allowance is the maximum `uint256`. Requirements: - `from` and `to` cannot be the zero address. - `from` must have a balance of at least `value`. - the caller must have allowance for ``from``'s tokens of at least `value`."
      },
      "transferOwnership(address)": {
        "details": "Transfers ownership of the contract to a new account (`newOwner`). Can only be called by the current owner."
      }
    },
    "version": 1
  },
  "userdoc": {
    "kind": "user",
    "methods": {},
    "notice": "A dummy USDC-like ERC20 token contract for testing purposes",
    "version": 1
  },
  "storageLayout": {
    "storage": [
      {
        "astId": 307,
        "contract": "contracts/DummyUsdcContract.sol:DummyUsdcContract",
        "label": "_balances",
        "offset": 0,
        "slot": "0",
        "type": "t_mapping(t_address,t_uint256)"
      },
      {
        "astId": 313,
        "contract": "contracts/DummyUsdcContract.sol:DummyUsdcContract",
        "label": "_allowances",
        "offset": 0,
        "slot": "1",
        "type": "t_mapping(t_address,t_mapping(t_address,t_uint256))"
      },
      {
        "astId": 315,
        "contract": "contracts/DummyUsdcContract.sol:DummyUsdcContract",
        "label": "_totalSupply",
        "offset": 0,
        "slot": "2",
        "type": "t_uint256"
      },
      {
        "astId": 317,
        "contract": "contracts/DummyUsdcContract.sol:DummyUsdcContract",
        "label": "_name",
        "offset": 0,
        "slot": "3",
        "type": "t_string_storage"
      },
      {
        "astId": 319,
        "contract": "contracts/DummyUsdcContract.sol:DummyUsdcContract",
        "label": "_symbol",
        "offset": 0,
        "slot": "4",
        "type": "t_string_storage"
      },
      {
        "astId": 8,
        "contract": "contracts/DummyUsdcContract.sol:DummyUsdcContract",
        "label": "_owner",
        "offset": 0,
        "slot": "5",
        "type": "t_address"
      }
    ],
    "types": {
      "t_address": {
        "encoding": "inplace",
        "label": "address",
        "numberOfBytes": "20"
      },
      "t_mapping(t_address,t_mapping(t_address,t_uint256))": {
        "encoding": "mapping",
        "key": "t_address",
        "label": "mapping(address => mapping(address => uint256))",
        "numberOfBytes": "32",
        "value": "t_mapping(t_address,t_uint256)"
      },
      "t_mapping(t_address,t_uint256)": {
        "encoding": "mapping",
        "key": "t_address",
        "label": "mapping(address => uint256)",
        "numberOfBytes": "32",
        "value": "t_uint256"
      },
      "t_string_storage": {
        "encoding": "bytes",
        "label": "string",
        "numberOfBytes": "32"
      },
      "t_uint256": {
        "encoding": "inplace",
        "label": "uint256",
        "numberOfBytes": "32"
      }
    }
  }
}