{
  "address": "0x0001Ab3574Ab2c4E1b145d507b08Cf98822A2445",
  "abi": [
    {
      "inputs": [
        {
          "internalType": "address",
          "name": "_owner",
          "type": "address"
        },
        {
          "internalType": "address",
          "name": "_tokenAddress",
          "type": "address"
        }
      ],
      "stateMutability": "nonpayable",
      "type": "constructor"
    },
    {
      "inputs": [],
      "name": "EnforcedPause",
      "type": "error"
    },
    {
      "inputs": [],
      "name": "ExpectedPause",
      "type": "error"
    },
    {
      "inputs": [
        {
          "internalType": "address",
          "name": "owner",
          "type": "address"
        }
      ],
      "name": "OwnableInvalidOwner",
      "type": "error"
    },
    {
      "inputs": [
        {
          "internalType": "address",
          "name": "account",
          "type": "address"
        }
      ],
      "name": "OwnableUnauthorizedAccount",
      "type": "error"
    },
    {
      "anonymous": false,
      "inputs": [
        {
          "indexed": true,
          "internalType": "uint256",
          "name": "auctionId",
          "type": "uint256"
        },
        {
          "indexed": true,
          "internalType": "address",
          "name": "tokenAddress",
          "type": "address"
        },
        {
          "indexed": false,
          "internalType": "uint256",
          "name": "auctionAmount",
          "type": "uint256"
        },
        {
          "indexed": false,
          "internalType": "uint256",
          "name": "startTime",
          "type": "uint256"
        },
        {
          "indexed": false,
          "internalType": "uint256",
          "name": "endTime",
          "type": "uint256"
        },
        {
          "indexed": false,
          "internalType": "uint256",
          "name": "startingAmount",
          "type": "uint256"
        }
      ],
      "name": "AuctionCreated",
      "type": "event"
    },
    {
      "anonymous": false,
      "inputs": [
        {
          "indexed": true,
          "internalType": "uint256",
          "name": "auctionId",
          "type": "uint256"
        },
        {
          "indexed": true,
          "internalType": "address",
          "name": "winner",
          "type": "address"
        },
        {
          "indexed": false,
          "internalType": "uint256",
          "name": "amount",
          "type": "uint256"
        },
        {
          "indexed": false,
          "internalType": "uint256",
          "name": "highestBid",
          "type": "uint256"
        }
      ],
      "name": "AuctionEnded",
      "type": "event"
    },
    {
      "anonymous": false,
      "inputs": [
        {
          "indexed": true,
          "internalType": "uint256",
          "name": "auctionId",
          "type": "uint256"
        },
        {
          "indexed": true,
          "internalType": "address",
          "name": "bidder",
          "type": "address"
        },
        {
          "indexed": false,
          "internalType": "uint256",
          "name": "amount",
          "type": "uint256"
        },
        {
          "indexed": true,
          "internalType": "address",
          "name": "referral",
          "type": "address"
        }
      ],
      "name": "BidPlaced",
      "type": "event"
    },
    {
      "anonymous": false,
      "inputs": [
        {
          "indexed": true,
          "internalType": "address",
          "name": "previousOwner",
          "type": "address"
        },
        {
          "indexed": true,
          "internalType": "address",
          "name": "newOwner",
          "type": "address"
        }
      ],
      "name": "OwnershipTransferred",
      "type": "event"
    },
    {
      "anonymous": false,
      "inputs": [
        {
          "indexed": false,
          "internalType": "address",
          "name": "account",
          "type": "address"
        }
      ],
      "name": "Paused",
      "type": "event"
    },
    {
      "anonymous": false,
      "inputs": [
        {
          "indexed": false,
          "internalType": "address",
          "name": "account",
          "type": "address"
        }
      ],
      "name": "Unpaused",
      "type": "event"
    },
    {
      "inputs": [],
      "name": "auctionAmount",
      "outputs": [
        {
          "internalType": "uint256",
          "name": "",
          "type": "uint256"
        }
      ],
      "stateMutability": "view",
      "type": "function"
    },
    {
      "inputs": [],
      "name": "auctionDuration",
      "outputs": [
        {
          "internalType": "uint256",
          "name": "",
          "type": "uint256"
        }
      ],
      "stateMutability": "view",
      "type": "function"
    },
    {
      "inputs": [],
      "name": "auctionDurationIncrease",
      "outputs": [
        {
          "internalType": "uint256",
          "name": "",
          "type": "uint256"
        }
      ],
      "stateMutability": "view",
      "type": "function"
    },
    {
      "inputs": [],
      "name": "auctionId",
      "outputs": [
        {
          "internalType": "uint256",
          "name": "",
          "type": "uint256"
        }
      ],
      "stateMutability": "view",
      "type": "function"
    },
    {
      "inputs": [
        {
          "internalType": "uint256",
          "name": "",
          "type": "uint256"
        }
      ],
      "name": "auctions",
      "outputs": [
        {
          "internalType": "address",
          "name": "tokenAddress",
          "type": "address"
        },
        {
          "internalType": "uint256",
          "name": "auctionAmount",
          "type": "uint256"
        },
        {
          "internalType": "uint256",
          "name": "startTime",
          "type": "uint256"
        },
        {
          "internalType": "uint256",
          "name": "endTime",
          "type": "uint256"
        },
        {
          "internalType": "uint256",
          "name": "startingAmount",
          "type": "uint256"
        },
        {
          "internalType": "uint256",
          "name": "bidIncrement",
          "type": "uint256"
        },
        {
          "internalType": "uint256",
          "name": "referralFee",
          "type": "uint256"
        },
        {
          "internalType": "uint256",
          "name": "platformFee",
          "type": "uint256"
        },
        {
          "internalType": "uint256",
          "name": "bidCount",
          "type": "uint256"
        },
        {
          "internalType": "address",
          "name": "highestBidder",
          "type": "address"
        },
        {
          "internalType": "uint256",
          "name": "highestBid",
          "type": "uint256"
        },
        {
          "internalType": "bool",
          "name": "ended",
          "type": "bool"
        }
      ],
      "stateMutability": "view",
      "type": "function"
    },
    {
      "inputs": [],
      "name": "bidIncrement",
      "outputs": [
        {
          "internalType": "uint256",
          "name": "",
          "type": "uint256"
        }
      ],
      "stateMutability": "view",
      "type": "function"
    },
    {
      "inputs": [],
      "name": "owner",
      "outputs": [
        {
          "internalType": "address",
          "name": "",
          "type": "address"
        }
      ],
      "stateMutability": "view",
      "type": "function"
    },
    {
      "inputs": [],
      "name": "pause",
      "outputs": [],
      "stateMutability": "nonpayable",
      "type": "function"
    },
    {
      "inputs": [],
      "name": "paused",
      "outputs": [
        {
          "internalType": "bool",
          "name": "",
          "type": "bool"
        }
      ],
      "stateMutability": "view",
      "type": "function"
    },
    {
      "inputs": [
        {
          "internalType": "address",
          "name": "_referral",
          "type": "address"
        }
      ],
      "name": "placeBid",
      "outputs": [],
      "stateMutability": "nonpayable",
      "type": "function"
    },
    {
      "inputs": [],
      "name": "platformFee",
      "outputs": [
        {
          "internalType": "uint256",
          "name": "",
          "type": "uint256"
        }
      ],
      "stateMutability": "view",
      "type": "function"
    },
    {
      "inputs": [],
      "name": "platformFeesClaimed",
      "outputs": [
        {
          "internalType": "uint256",
          "name": "",
          "type": "uint256"
        }
      ],
      "stateMutability": "view",
      "type": "function"
    },
    {
      "inputs": [],
      "name": "platformFeesCollected",
      "outputs": [
        {
          "internalType": "uint256",
          "name": "",
          "type": "uint256"
        }
      ],
      "stateMutability": "view",
      "type": "function"
    },
    {
      "inputs": [],
      "name": "referralFee",
      "outputs": [
        {
          "internalType": "uint256",
          "name": "",
          "type": "uint256"
        }
      ],
      "stateMutability": "view",
      "type": "function"
    },
    {
      "inputs": [
        {
          "internalType": "address",
          "name": "",
          "type": "address"
        }
      ],
      "name": "referralRewards",
      "outputs": [
        {
          "internalType": "uint256",
          "name": "",
          "type": "uint256"
        }
      ],
      "stateMutability": "view",
      "type": "function"
    },
    {
      "inputs": [],
      "name": "renounceOwnership",
      "outputs": [],
      "stateMutability": "nonpayable",
      "type": "function"
    },
    {
      "inputs": [],
      "name": "startAuction",
      "outputs": [],
      "stateMutability": "nonpayable",
      "type": "function"
    },
    {
      "inputs": [],
      "name": "startingAmount",
      "outputs": [
        {
          "internalType": "uint256",
          "name": "",
          "type": "uint256"
        }
      ],
      "stateMutability": "view",
      "type": "function"
    },
    {
      "inputs": [],
      "name": "tokenAddress",
      "outputs": [
        {
          "internalType": "address",
          "name": "",
          "type": "address"
        }
      ],
      "stateMutability": "view",
      "type": "function"
    },
    {
      "inputs": [],
      "name": "totalReferralRewardsClaimed",
      "outputs": [
        {
          "internalType": "uint256",
          "name": "",
          "type": "uint256"
        }
      ],
      "stateMutability": "view",
      "type": "function"
    },
    {
      "inputs": [],
      "name": "totalReferralRewardsCollected",
      "outputs": [
        {
          "internalType": "uint256",
          "name": "",
          "type": "uint256"
        }
      ],
      "stateMutability": "view",
      "type": "function"
    },
    {
      "inputs": [
        {
          "internalType": "address",
          "name": "newOwner",
          "type": "address"
        }
      ],
      "name": "transferOwnership",
      "outputs": [],
      "stateMutability": "nonpayable",
      "type": "function"
    },
    {
      "inputs": [],
      "name": "unpause",
      "outputs": [],
      "stateMutability": "nonpayable",
      "type": "function"
    },
    {
      "inputs": [],
      "name": "withdraw",
      "outputs": [],
      "stateMutability": "nonpayable",
      "type": "function"
    },
    {
      "inputs": [],
      "name": "withdrawPlatformFees",
      "outputs": [],
      "stateMutability": "nonpayable",
      "type": "function"
    },
    {
      "inputs": [],
      "name": "withdrawReferralRewards",
      "outputs": [],
      "stateMutability": "nonpayable",
      "type": "function"
    },
    {
      "stateMutability": "payable",
      "type": "receive"
    }
  ],
  "transactionHash": "0xad3e51699847c385788e098d3f000b573161f4e452f27e32a3a9934a53d6f7c2",
  "args": [
    "0xE20968f84A535be7d7a97d3a1a5760d89D6c4Ce0",
    "0x0C24F09923116e6ECf0Acef2Edd175c58984A79E"
  ],
  "numDeployments": 1,
  "solcInputHash": "0a20bc0fe0129b9fa14bc41fa0e79a4a",
  "bytecode": "0x60806040526305f5e100600355603c600455603c600555620f42406006556203d0906007556203d090600855620f42406009553480156200003f57600080fd5b50604051620019443803806200194483398101604081905262000062916200013f565b816001600160a01b0381166200009257604051631e4fbdf760e01b81526000600482015260240160405180910390fd5b6200009d81620000d2565b506000805460ff60a01b19169055600180546001600160a01b0319166001600160a01b03929092169190911790555062000177565b600080546001600160a01b038381166001600160a01b0319831681178455604051919092169283917f8be0079c531659141344cd1fd0a4f28419497f9722a3daafe3b4186f6b6457e09190a35050565b80516001600160a01b03811681146200013a57600080fd5b919050565b600080604083850312156200015357600080fd5b6200015e8362000122565b91506200016e6020840162000122565b90509250929050565b6117bd80620001876000396000f3fe6080604052600436106101855760003560e01c80638456cb59116100d1578063b36ffca61161008a578063d0b7830b11610064578063d0b7830b146104b7578063dcb5747b146104cc578063e4940157146104e2578063f2fde38b1461050257600080fd5b8063b36ffca614610475578063b3cc167a1461048b578063bcf95290146104a157600080fd5b80638456cb59146103cc57806384ae2bc6146103e157806388e13070146103f75780638da5cb5b1461040d5780639d76ea581461043f578063a76d13cd1461045f57600080fd5b80633f4ba83a1161013e578063571a26a011610118578063571a26a0146102805780635c975abb146103785780636b64c769146103a2578063715018a6146103b757600080fd5b80633f4ba83a1461022857806353aaa63b1461023d578063544f113b1461026a57600080fd5b80630cbf54c81461019157806310782f8f146101ba5780631502f8d5146101d05780631fb9f6fa146101e657806326232a2e146101fd5780633ccfd60b1461021357600080fd5b3661018c57005b600080fd5b34801561019d57600080fd5b506101a760045481565b6040519081526020015b60405180910390f35b3480156101c657600080fd5b506101a760025481565b3480156101dc57600080fd5b506101a7600b5481565b3480156101f257600080fd5b506101fb610522565b005b34801561020957600080fd5b506101a760095481565b34801561021f57600080fd5b506101fb61063d565b34801561023457600080fd5b506101fb6106e2565b34801561024957600080fd5b506101a761025836600461166f565b600f6020526000908152604090205481565b34801561027657600080fd5b506101a760065481565b34801561028c57600080fd5b5061030a61029b36600461169f565b600e60205260009081526040902080546001820154600283015460038401546004850154600586015460068701546007880154600889015460098a0154600a8b0154600b909b01546001600160a01b039a8b169b999a9899979896979596949593949293919092169160ff168c565b604080516001600160a01b039d8e168152602081019c909c528b019990995260608a0197909752608089019590955260a088019390935260c087019190915260e0860152610100850152909316610120830152610140820192909252901515610160820152610180016101b1565b34801561038457600080fd5b50600054600160a01b900460ff1660405190151581526020016101b1565b3480156103ae57600080fd5b506101fb6106f4565b3480156103c357600080fd5b506101fb6107fa565b3480156103d857600080fd5b506101fb61080c565b3480156103ed57600080fd5b506101a760085481565b34801561040357600080fd5b506101a7600d5481565b34801561041957600080fd5b506000546001600160a01b03165b6040516001600160a01b0390911681526020016101b1565b34801561044b57600080fd5b50600154610427906001600160a01b031681565b34801561046b57600080fd5b506101a7600c5481565b34801561048157600080fd5b506101a7600a5481565b34801561049757600080fd5b506101a760075481565b3480156104ad57600080fd5b506101a760055481565b3480156104c357600080fd5b506101fb61081c565b3480156104d857600080fd5b506101a760035481565b3480156104ee57600080fd5b506101fb6104fd36600461166f565b61093b565b34801561050e57600080fd5b506101fb61051d36600461166f565b610dc1565b336000908152600f60205260409020546105795760405162461bcd60e51b81526020600482015260136024820152724e6f207265776172647320746f20636c61696d60681b60448201526064015b60405180910390fd5b600154336000818152600f60205260409081902054905163a9059cbb60e01b8152600481019290925260248201526001600160a01b0390911690819063a9059cbb906044016020604051808303816000875af11580156105dd573d6000803e3d6000fd5b505050506040513d601f19601f8201168201806040525081019061060191906116b8565b50336000908152600f6020526040812054600d8054919290916106259084906116f0565b9091555050336000908152600f602052604081205550565b610645610dfc565b600080546040516001600160a01b039091169047908381818185875af1925050503d8060008114610692576040519150601f19603f3d011682016040523d82523d6000602084013e610697565b606091505b50509050806106df5760405162461bcd60e51b81526020600482015260146024820152732330b4b632b2103a379039b2b7321022ba3432b960611b6044820152606401610570565b50565b6106ea610dfc565b6106f2610e29565b565b6106fc610e7e565b6002546000818152600e6020526040902090158061071d5750428160030154105b806107305750806001015481600a015410155b6107755760405162461bcd60e51b815260206004820152601660248201527541756374696f6e20616c72656164792061637469766560501b6044820152606401610570565b600060025411801561079c57506002546000908152600e60205260409020600b015460ff16155b156107ac576107ac600254610ea9565b600280549060006107bc83611709565b90915550506002546001546003546004546106df93926001600160a01b0316919042906107e990826116f0565b6006546007546008546009546110b6565b610802610dfc565b6106f26000611429565b610814610dfc565b6106f2611479565b610824610dfc565b600b54600a541161086a5760405162461bcd60e51b815260206004820152601060248201526f4e6f206665657320746f20636c61696d60801b6044820152606401610570565b600154600b54600a546001600160a01b039092169160009161088b91611722565b9050816001600160a01b031663a9059cbb6108ae6000546001600160a01b031690565b6040516001600160e01b031960e084901b1681526001600160a01b039091166004820152602481018490526044016020604051808303816000875af11580156108fb573d6000803e3d6000fd5b505050506040513d601f19601f8201168201806040525081019061091f91906116b8565b5080600b600082825461093291906116f0565b90915550505050565b610943610e7e565b6002546000908152600e60205260408120600a8101549091901561097a57816005015482600a015461097591906116f0565b610980565b81600401545b905060006009548261099291906116f0565b9050428360020154111580156109ab5750428360030154115b6109ec5760405162461bcd60e51b815260206004820152601260248201527141756374696f6e206e6f742061637469766560701b6044820152606401610570565b8254604051636eb1769f60e11b81523360048201523060248201526001600160a01b0390911690600090829063dd62ed3e90604401602060405180830381865afa158015610a3e573d6000803e3d6000fd5b505050506040513d601f19601f82011682018060405250810190610a629190611735565b905082811015610aad5760405162461bcd60e51b8152602060048201526016602482015275496e73756666696369656e7420616c6c6f77616e636560501b6044820152606401610570565b6040516323b872dd60e01b8152336004820152306024820152604481018490526001600160a01b038316906323b872dd906064016020604051808303816000875af1158015610b00573d6000803e3d6000fd5b505050506040513d601f19601f82011682018060405250810190610b2491906116b8565b5060098501546001600160a01b031615610bb9576009850154600a86015460405163a9059cbb60e01b81526001600160a01b03928316600482015260248101919091529083169063a9059cbb906044016020604051808303816000875af1158015610b93573d6000803e3d6000fd5b505050506040513d601f19601f82011682018060405250810190610bb791906116b8565b505b6009850180546001600160a01b03191633179055600a8501849055600885018054906000610be683611709565b9091555050336001600160a01b03871603610c0057600095505b6001600160a01b03861615610cfd576008546001600160a01b0387166000908152600f602052604081208054909190610c3a9084906116f0565b9091555050600854600954610c4f9190611722565b600a6000828254610c6091906116f0565b9091555050600854600c8054600090610c7a9084906116f0565b909155505060085460405163a9059cbb60e01b81526001600160a01b03888116600483015260248201929092529083169063a9059cbb906044016020604051808303816000875af1158015610cd3573d6000803e3d6000fd5b505050506040513d601f19601f82011682018060405250810190610cf791906116b8565b50610d17565b600954600a6000828254610d1191906116f0565b90915550505b600554428660030154610d2a9190611722565b108015610d3e5750846001015485600a0154105b15610d5f57600554856003016000828254610d5991906116f0565b90915550505b6002546040518581526001600160a01b0388169133917fe30abccebb20a387be8e75e927d7e06ce1bf9d77bb3888516663bdc8995fb3349060200160405180910390a4846001015485600a015410610db957610db96106f4565b505050505050565b610dc9610dfc565b6001600160a01b038116610df357604051631e4fbdf760e01b815260006004820152602401610570565b6106df81611429565b6000546001600160a01b031633146106f25760405163118cdaa760e01b8152336004820152602401610570565b610e316114bc565b6000805460ff60a01b191690557f5db9ee0a495bf2e6ff9c91a7834c1ba4fdd244a5e8aa4e537bd38aeae4b073aa335b6040516001600160a01b03909116815260200160405180910390a1565b600054600160a01b900460ff16156106f25760405163d93c066560e01b815260040160405180910390fd5b6000818152600e602052604090208115801590610ec857506002548211155b610f085760405162461bcd60e51b8152602060048201526011602482015270105d58dd1a5bdb881b9bdd08199bdd5b99607a1b6044820152606401610570565b600b81015460ff1615610f555760405162461bcd60e51b8152602060048201526015602482015274105d58dd1a5bdb88185b1c9958591e48195b991959605a1b6044820152606401610570565b4281600301541080610f6f5750806001015481600a015410155b610faf5760405162461bcd60e51b8152602060048201526011602482015270105d58dd1a5bdb881b9bdd08195b991959607a1b6044820152606401610570565b600b8101805460ff1916600117905560098101546001600160a01b0316156110565780546009820154600183015460405163a9059cbb60e01b81526001600160a01b0392831660048201526024810191909152911690819063a9059cbb906044016020604051808303816000875af115801561102f573d6000803e3d6000fd5b505050506040513d601f19601f8201168201806040525081019061105391906116b8565b50505b60098101546001820154600a8301546040516001600160a01b039093169285927fe9ba83469fc8ee4260dd274fd43b5a54f2df813ad21c4637d53084d1f3866b37926110aa92918252602082015260400190565b60405180910390a35050565b6040516370a0823160e01b81523060048201526000906001600160a01b038a16906370a0823190602401602060405180830381865afa1580156110fd573d6000803e3d6000fd5b505050506040513d601f19601f820116820180604052508101906111219190611735565b90506000600d54600c546111359190611722565b90506000600b54600a541161114b57600061115b565b600b54600a5461115b9190611722565b90508561116888846116f0565b61117291906116f0565b83116111ce5760405162461bcd60e51b815260206004820152602560248201527f496e73756666696369656e742062616c616e636520746f20737461727420617560448201526431ba34b7b760d91b6064820152608401610570565b60008a84116111dd57836111df565b8a5b90506111eb8285611722565b81111561121d576111fc8285611722565b6112069082611722565b600b600082825461121791906116f0565b90915550505b600261122a82600361174e565b6112349190611765565b61123e8486611722565b111561124e5761124e8c826114e6565b6040518061018001604052808d6001600160a01b031681526020018281526020018b81526020018a81526020018981526020018881526020018781526020018681526020016000815260200160006001600160a01b031681526020016000815260200160001515815250600e60008f815260200190815260200160002060008201518160000160006101000a8154816001600160a01b0302191690836001600160a01b031602179055506020820151816001015560408201518160020155606082015181600301556080820151816004015560a0820151816005015560c0820151816006015560e0820151816007015561010082015181600801556101208201518160090160006101000a8154816001600160a01b0302191690836001600160a01b0316021790555061014082015181600a015561016082015181600b0160006101000a81548160ff021916908315150217905550905050600160009054906101000a90046001600160a01b03166001600160a01b03166002547e09646912aaa7019ad837e57cc5c0613299c8432f5268d4450ab8673fe0fa03838d8d8d604051611412949392919093845260208401929092526040830152606082015260800190565b60405180910390a350505050505050505050505050565b600080546001600160a01b038381166001600160a01b0319831681178455604051919092169283917f8be0079c531659141344cd1fd0a4f28419497f9722a3daafe3b4186f6b6457e09190a35050565b611481610e7e565b6000805460ff60a01b1916600160a01b1790557f62e78cea01bee320cd4e420270b5ea74000d11b0c9f74754ebdbfc544b05a258610e613390565b600054600160a01b900460ff166106f257604051638dfc202b60e01b815260040160405180910390fd5b6040516370a0823160e01b81523060048201526000906001600160a01b038416906370a0823190602401602060405180830381865afa15801561152d573d6000803e3d6000fd5b505050506040513d601f19601f820116820180604052508101906115519190611735565b90506000600d54600c546115659190611722565b9050600261157484600361174e565b61157e9190611765565b6115888284611722565b1115611669576000600261159d85600361174e565b6115a79190611765565b6115b18385611722565b6115bb9190611722565b9050846001600160a01b031663a9059cbb6115de6000546001600160a01b031690565b6040516001600160e01b031960e084901b1681526001600160a01b039091166004820152602481018490526044016020604051808303816000875af115801561162b573d6000803e3d6000fd5b505050506040513d601f19601f8201168201806040525081019061164f91906116b8565b5080600b600082825461166291906116f0565b9091555050505b50505050565b60006020828403121561168157600080fd5b81356001600160a01b038116811461169857600080fd5b9392505050565b6000602082840312156116b157600080fd5b5035919050565b6000602082840312156116ca57600080fd5b8151801515811461169857600080fd5b634e487b7160e01b600052601160045260246000fd5b80820180821115611703576117036116da565b92915050565b60006001820161171b5761171b6116da565b5060010190565b81810381811115611703576117036116da565b60006020828403121561174757600080fd5b5051919050565b8082028115828204841417611703576117036116da565b60008261178257634e487b7160e01b600052601260045260246000fd5b50049056fea2646970667358221220fffcb939f06538dd3425aa81598822c59677856a8d0d6ffcaafd5644a79d616a64736f6c63430008140033",
  "devdoc": {
    "author": "BuidlGuidl",
    "errors": {
      "EnforcedPause()": [
        {
          "details": "The operation failed because the contract is paused."
        }
      ],
      "ExpectedPause()": [
        {
          "details": "The operation failed because the contract is not paused."
        }
      ],
      "OwnableInvalidOwner(address)": [
        {
          "details": "The owner is not a valid owner account. (eg. `address(0)`)"
        }
      ],
      "OwnableUnauthorizedAccount(address)": [
        {
          "details": "The caller account is not authorized to perform an operation."
        }
      ]
    },
    "events": {
      "Paused(address)": {
        "details": "Emitted when the pause is triggered by `account`."
      },
      "Unpaused(address)": {
        "details": "Emitted when the pause is lifted by `account`."
      }
    },
    "kind": "dev",
    "methods": {
      "owner()": {
        "details": "Returns the address of the current owner."
      },
      "paused()": {
        "details": "Returns true if the contract is paused, and false otherwise."
      },
      "renounceOwnership()": {
        "details": "Leaves the contract without owner. It will not be possible to call `onlyOwner` functions. Can only be called by the current owner. NOTE: Renouncing ownership will leave the contract without an owner, thereby disabling any functionality that is only available to the owner."
      },
      "transferOwnership(address)": {
        "details": "Transfers ownership of the contract to a new account (`newOwner`). Can only be called by the current owner."
      }
    },
    "version": 1
  },
  "userdoc": {
    "kind": "user",
    "methods": {
      "withdraw()": {
        "notice": "Function that allows the owner to withdraw all the Ether in the contract The function can only be called by the owner of the contract as defined by the onlyOwner modifier"
      },
      "withdrawReferralRewards()": {
        "notice": "function that allows a referral to withdraw his referral fees"
      }
    },
    "notice": "A smart contract that allows changing a state variable of the contract and tracking the changes It also allows the owner to withdraw the Ether in the contract",
    "version": 1
  },
  "storageLayout": {
    "storage": [
      {
        "astId": 8,
        "contract": "contracts/FinalBidContract.sol:FinalBidContract",
        "label": "_owner",
        "offset": 0,
        "slot": "0",
        "type": "t_address"
      },
      {
        "astId": 942,
        "contract": "contracts/FinalBidContract.sol:FinalBidContract",
        "label": "_paused",
        "offset": 20,
        "slot": "0",
        "type": "t_bool"
      },
      {
        "astId": 1268,
        "contract": "contracts/FinalBidContract.sol:FinalBidContract",
        "label": "tokenAddress",
        "offset": 0,
        "slot": "1",
        "type": "t_address"
      },
      {
        "astId": 1270,
        "contract": "contracts/FinalBidContract.sol:FinalBidContract",
        "label": "auctionId",
        "offset": 0,
        "slot": "2",
        "type": "t_uint256"
      },
      {
        "astId": 1273,
        "contract": "contracts/FinalBidContract.sol:FinalBidContract",
        "label": "auctionAmount",
        "offset": 0,
        "slot": "3",
        "type": "t_uint256"
      },
      {
        "astId": 1276,
        "contract": "contracts/FinalBidContract.sol:FinalBidContract",
        "label": "auctionDuration",
        "offset": 0,
        "slot": "4",
        "type": "t_uint256"
      },
      {
        "astId": 1279,
        "contract": "contracts/FinalBidContract.sol:FinalBidContract",
        "label": "auctionDurationIncrease",
        "offset": 0,
        "slot": "5",
        "type": "t_uint256"
      },
      {
        "astId": 1282,
        "contract": "contracts/FinalBidContract.sol:FinalBidContract",
        "label": "startingAmount",
        "offset": 0,
        "slot": "6",
        "type": "t_uint256"
      },
      {
        "astId": 1285,
        "contract": "contracts/FinalBidContract.sol:FinalBidContract",
        "label": "bidIncrement",
        "offset": 0,
        "slot": "7",
        "type": "t_uint256"
      },
      {
        "astId": 1288,
        "contract": "contracts/FinalBidContract.sol:FinalBidContract",
        "label": "referralFee",
        "offset": 0,
        "slot": "8",
        "type": "t_uint256"
      },
      {
        "astId": 1291,
        "contract": "contracts/FinalBidContract.sol:FinalBidContract",
        "label": "platformFee",
        "offset": 0,
        "slot": "9",
        "type": "t_uint256"
      },
      {
        "astId": 1293,
        "contract": "contracts/FinalBidContract.sol:FinalBidContract",
        "label": "platformFeesCollected",
        "offset": 0,
        "slot": "10",
        "type": "t_uint256"
      },
      {
        "astId": 1295,
        "contract": "contracts/FinalBidContract.sol:FinalBidContract",
        "label": "platformFeesClaimed",
        "offset": 0,
        "slot": "11",
        "type": "t_uint256"
      },
      {
        "astId": 1297,
        "contract": "contracts/FinalBidContract.sol:FinalBidContract",
        "label": "totalReferralRewardsCollected",
        "offset": 0,
        "slot": "12",
        "type": "t_uint256"
      },
      {
        "astId": 1299,
        "contract": "contracts/FinalBidContract.sol:FinalBidContract",
        "label": "totalReferralRewardsClaimed",
        "offset": 0,
        "slot": "13",
        "type": "t_uint256"
      },
      {
        "astId": 1329,
        "contract": "contracts/FinalBidContract.sol:FinalBidContract",
        "label": "auctions",
        "offset": 0,
        "slot": "14",
        "type": "t_mapping(t_uint256,t_struct(Auction)1324_storage)"
      },
      {
        "astId": 1333,
        "contract": "contracts/FinalBidContract.sol:FinalBidContract",
        "label": "referralRewards",
        "offset": 0,
        "slot": "15",
        "type": "t_mapping(t_address,t_uint256)"
      }
    ],
    "types": {
      "t_address": {
        "encoding": "inplace",
        "label": "address",
        "numberOfBytes": "20"
      },
      "t_bool": {
        "encoding": "inplace",
        "label": "bool",
        "numberOfBytes": "1"
      },
      "t_mapping(t_address,t_uint256)": {
        "encoding": "mapping",
        "key": "t_address",
        "label": "mapping(address => uint256)",
        "numberOfBytes": "32",
        "value": "t_uint256"
      },
      "t_mapping(t_uint256,t_struct(Auction)1324_storage)": {
        "encoding": "mapping",
        "key": "t_uint256",
        "label": "mapping(uint256 => struct FinalBidContract.Auction)",
        "numberOfBytes": "32",
        "value": "t_struct(Auction)1324_storage"
      },
      "t_struct(Auction)1324_storage": {
        "encoding": "inplace",
        "label": "struct FinalBidContract.Auction",
        "members": [
          {
            "astId": 1301,
            "contract": "contracts/FinalBidContract.sol:FinalBidContract",
            "label": "tokenAddress",
            "offset": 0,
            "slot": "0",
            "type": "t_address"
          },
          {
            "astId": 1303,
            "contract": "contracts/FinalBidContract.sol:FinalBidContract",
            "label": "auctionAmount",
            "offset": 0,
            "slot": "1",
            "type": "t_uint256"
          },
          {
            "astId": 1305,
            "contract": "contracts/FinalBidContract.sol:FinalBidContract",
            "label": "startTime",
            "offset": 0,
            "slot": "2",
            "type": "t_uint256"
          },
          {
            "astId": 1307,
            "contract": "contracts/FinalBidContract.sol:FinalBidContract",
            "label": "endTime",
            "offset": 0,
            "slot": "3",
            "type": "t_uint256"
          },
          {
            "astId": 1309,
            "contract": "contracts/FinalBidContract.sol:FinalBidContract",
            "label": "startingAmount",
            "offset": 0,
            "slot": "4",
            "type": "t_uint256"
          },
          {
            "astId": 1311,
            "contract": "contracts/FinalBidContract.sol:FinalBidContract",
            "label": "bidIncrement",
            "offset": 0,
            "slot": "5",
            "type": "t_uint256"
          },
          {
            "astId": 1313,
            "contract": "contracts/FinalBidContract.sol:FinalBidContract",
            "label": "referralFee",
            "offset": 0,
            "slot": "6",
            "type": "t_uint256"
          },
          {
            "astId": 1315,
            "contract": "contracts/FinalBidContract.sol:FinalBidContract",
            "label": "platformFee",
            "offset": 0,
            "slot": "7",
            "type": "t_uint256"
          },
          {
            "astId": 1317,
            "contract": "contracts/FinalBidContract.sol:FinalBidContract",
            "label": "bidCount",
            "offset": 0,
            "slot": "8",
            "type": "t_uint256"
          },
          {
            "astId": 1319,
            "contract": "contracts/FinalBidContract.sol:FinalBidContract",
            "label": "highestBidder",
            "offset": 0,
            "slot": "9",
            "type": "t_address"
          },
          {
            "astId": 1321,
            "contract": "contracts/FinalBidContract.sol:FinalBidContract",
            "label": "highestBid",
            "offset": 0,
            "slot": "10",
            "type": "t_uint256"
          },
          {
            "astId": 1323,
            "contract": "contracts/FinalBidContract.sol:FinalBidContract",
            "label": "ended",
            "offset": 0,
            "slot": "11",
            "type": "t_bool"
          }
        ],
        "numberOfBytes": "384"
      },
      "t_uint256": {
        "encoding": "inplace",
        "label": "uint256",
        "numberOfBytes": "32"
      }
    }
  }
}