{
  "address": "0x7cC26bcb2500b8b6e7883421D7777f7D45bAe008",
  "abi": [
    {
      "inputs": [
        {
          "internalType": "address",
          "name": "_owner",
          "type": "address"
        },
        {
          "internalType": "address",
          "name": "_tokenAddress",
          "type": "address"
        }
      ],
      "stateMutability": "nonpayable",
      "type": "constructor"
    },
    {
      "inputs": [],
      "name": "EnforcedPause",
      "type": "error"
    },
    {
      "inputs": [],
      "name": "ExpectedPause",
      "type": "error"
    },
    {
      "inputs": [
        {
          "internalType": "address",
          "name": "owner",
          "type": "address"
        }
      ],
      "name": "OwnableInvalidOwner",
      "type": "error"
    },
    {
      "inputs": [
        {
          "internalType": "address",
          "name": "account",
          "type": "address"
        }
      ],
      "name": "OwnableUnauthorizedAccount",
      "type": "error"
    },
    {
      "anonymous": false,
      "inputs": [
        {
          "indexed": true,
          "internalType": "uint256",
          "name": "auctionId",
          "type": "uint256"
        }
      ],
      "name": "AuctionCancelled",
      "type": "event"
    },
    {
      "anonymous": false,
      "inputs": [
        {
          "indexed": true,
          "internalType": "uint256",
          "name": "auctionId",
          "type": "uint256"
        },
        {
          "indexed": true,
          "internalType": "address",
          "name": "tokenAddress",
          "type": "address"
        },
        {
          "indexed": false,
          "internalType": "uint256",
          "name": "auctionAmount",
          "type": "uint256"
        },
        {
          "indexed": false,
          "internalType": "uint256",
          "name": "startTime",
          "type": "uint256"
        },
        {
          "indexed": false,
          "internalType": "uint256",
          "name": "endTime",
          "type": "uint256"
        },
        {
          "indexed": false,
          "internalType": "uint256",
          "name": "startingPrice",
          "type": "uint256"
        }
      ],
      "name": "AuctionCreated",
      "type": "event"
    },
    {
      "anonymous": false,
      "inputs": [
        {
          "indexed": true,
          "internalType": "uint256",
          "name": "auctionId",
          "type": "uint256"
        },
        {
          "indexed": true,
          "internalType": "address",
          "name": "winner",
          "type": "address"
        },
        {
          "indexed": false,
          "internalType": "uint256",
          "name": "amount",
          "type": "uint256"
        }
      ],
      "name": "AuctionEnded",
      "type": "event"
    },
    {
      "anonymous": false,
      "inputs": [
        {
          "indexed": true,
          "internalType": "uint256",
          "name": "auctionId",
          "type": "uint256"
        },
        {
          "indexed": true,
          "internalType": "address",
          "name": "bidder",
          "type": "address"
        },
        {
          "indexed": false,
          "internalType": "uint256",
          "name": "amount",
          "type": "uint256"
        },
        {
          "indexed": true,
          "internalType": "address",
          "name": "referral",
          "type": "address"
        }
      ],
      "name": "BidPlaced",
      "type": "event"
    },
    {
      "anonymous": false,
      "inputs": [
        {
          "indexed": true,
          "internalType": "address",
          "name": "previousOwner",
          "type": "address"
        },
        {
          "indexed": true,
          "internalType": "address",
          "name": "newOwner",
          "type": "address"
        }
      ],
      "name": "OwnershipTransferred",
      "type": "event"
    },
    {
      "anonymous": false,
      "inputs": [
        {
          "indexed": false,
          "internalType": "address",
          "name": "account",
          "type": "address"
        }
      ],
      "name": "Paused",
      "type": "event"
    },
    {
      "anonymous": false,
      "inputs": [
        {
          "indexed": false,
          "internalType": "address",
          "name": "account",
          "type": "address"
        }
      ],
      "name": "Unpaused",
      "type": "event"
    },
    {
      "inputs": [],
      "name": "auctionAmount",
      "outputs": [
        {
          "internalType": "uint256",
          "name": "",
          "type": "uint256"
        }
      ],
      "stateMutability": "view",
      "type": "function"
    },
    {
      "inputs": [],
      "name": "auctionDuration",
      "outputs": [
        {
          "internalType": "uint256",
          "name": "",
          "type": "uint256"
        }
      ],
      "stateMutability": "view",
      "type": "function"
    },
    {
      "inputs": [],
      "name": "auctionDurationIncrease",
      "outputs": [
        {
          "internalType": "uint256",
          "name": "",
          "type": "uint256"
        }
      ],
      "stateMutability": "view",
      "type": "function"
    },
    {
      "inputs": [],
      "name": "auctionId",
      "outputs": [
        {
          "internalType": "uint256",
          "name": "",
          "type": "uint256"
        }
      ],
      "stateMutability": "view",
      "type": "function"
    },
    {
      "inputs": [
        {
          "internalType": "uint256",
          "name": "",
          "type": "uint256"
        }
      ],
      "name": "auctions",
      "outputs": [
        {
          "internalType": "address",
          "name": "tokenAddress",
          "type": "address"
        },
        {
          "internalType": "uint256",
          "name": "auctionAmount",
          "type": "uint256"
        },
        {
          "internalType": "uint256",
          "name": "startTime",
          "type": "uint256"
        },
        {
          "internalType": "uint256",
          "name": "endTime",
          "type": "uint256"
        },
        {
          "internalType": "uint256",
          "name": "startingPrice",
          "type": "uint256"
        },
        {
          "internalType": "uint256",
          "name": "bidIncrement",
          "type": "uint256"
        },
        {
          "internalType": "uint256",
          "name": "referralFee",
          "type": "uint256"
        },
        {
          "internalType": "uint256",
          "name": "platformFee",
          "type": "uint256"
        },
        {
          "internalType": "uint256",
          "name": "bidCount",
          "type": "uint256"
        },
        {
          "internalType": "address",
          "name": "highestBidder",
          "type": "address"
        },
        {
          "internalType": "uint256",
          "name": "highestBid",
          "type": "uint256"
        },
        {
          "internalType": "bool",
          "name": "ended",
          "type": "bool"
        }
      ],
      "stateMutability": "view",
      "type": "function"
    },
    {
      "inputs": [],
      "name": "bidIncrement",
      "outputs": [
        {
          "internalType": "uint256",
          "name": "",
          "type": "uint256"
        }
      ],
      "stateMutability": "view",
      "type": "function"
    },
    {
      "inputs": [],
      "name": "owner",
      "outputs": [
        {
          "internalType": "address",
          "name": "",
          "type": "address"
        }
      ],
      "stateMutability": "view",
      "type": "function"
    },
    {
      "inputs": [],
      "name": "pause",
      "outputs": [],
      "stateMutability": "nonpayable",
      "type": "function"
    },
    {
      "inputs": [],
      "name": "paused",
      "outputs": [
        {
          "internalType": "bool",
          "name": "",
          "type": "bool"
        }
      ],
      "stateMutability": "view",
      "type": "function"
    },
    {
      "inputs": [
        {
          "internalType": "address",
          "name": "_referral",
          "type": "address"
        }
      ],
      "name": "placeBid",
      "outputs": [],
      "stateMutability": "nonpayable",
      "type": "function"
    },
    {
      "inputs": [],
      "name": "platformFee",
      "outputs": [
        {
          "internalType": "uint256",
          "name": "",
          "type": "uint256"
        }
      ],
      "stateMutability": "view",
      "type": "function"
    },
    {
      "inputs": [],
      "name": "platformFeesClaimed",
      "outputs": [
        {
          "internalType": "uint256",
          "name": "",
          "type": "uint256"
        }
      ],
      "stateMutability": "view",
      "type": "function"
    },
    {
      "inputs": [],
      "name": "platformFeesCollected",
      "outputs": [
        {
          "internalType": "uint256",
          "name": "",
          "type": "uint256"
        }
      ],
      "stateMutability": "view",
      "type": "function"
    },
    {
      "inputs": [],
      "name": "referralFee",
      "outputs": [
        {
          "internalType": "uint256",
          "name": "",
          "type": "uint256"
        }
      ],
      "stateMutability": "view",
      "type": "function"
    },
    {
      "inputs": [
        {
          "internalType": "address",
          "name": "",
          "type": "address"
        }
      ],
      "name": "referralRewards",
      "outputs": [
        {
          "internalType": "uint256",
          "name": "",
          "type": "uint256"
        }
      ],
      "stateMutability": "view",
      "type": "function"
    },
    {
      "inputs": [],
      "name": "renounceOwnership",
      "outputs": [],
      "stateMutability": "nonpayable",
      "type": "function"
    },
    {
      "inputs": [],
      "name": "startAuction",
      "outputs": [],
      "stateMutability": "nonpayable",
      "type": "function"
    },
    {
      "inputs": [],
      "name": "startingPrice",
      "outputs": [
        {
          "internalType": "uint256",
          "name": "",
          "type": "uint256"
        }
      ],
      "stateMutability": "view",
      "type": "function"
    },
    {
      "inputs": [],
      "name": "tokenAddress",
      "outputs": [
        {
          "internalType": "address",
          "name": "",
          "type": "address"
        }
      ],
      "stateMutability": "view",
      "type": "function"
    },
    {
      "inputs": [
        {
          "internalType": "address",
          "name": "newOwner",
          "type": "address"
        }
      ],
      "name": "transferOwnership",
      "outputs": [],
      "stateMutability": "nonpayable",
      "type": "function"
    },
    {
      "inputs": [],
      "name": "unpause",
      "outputs": [],
      "stateMutability": "nonpayable",
      "type": "function"
    },
    {
      "inputs": [],
      "name": "withdraw",
      "outputs": [],
      "stateMutability": "nonpayable",
      "type": "function"
    },
    {
      "inputs": [],
      "name": "withdrawPlatformFees",
      "outputs": [],
      "stateMutability": "nonpayable",
      "type": "function"
    },
    {
      "stateMutability": "payable",
      "type": "receive"
    }
  ],
  "transactionHash": "0x5991ac65f432a7f4ae307d3b3d6c8cd0aa53fd55b5af9ee2491068085f3bfc84",
  "args": [
    "0xE20968f84A535be7d7a97d3a1a5760d89D6c4Ce0",
    "0x036CbD53842c5426634e7929541eC2318f3dCF7e"
  ],
  "numDeployments": 5,
  "solcInputHash": "61fa5267bb8cec70abecd41c15e3ea42",
  "bytecode": "0x60806040526305f5e100600355603c600455603c600555620f4240600655622625a060075563017d78406008556298968060095534801561003f57600080fd5b5060405161121538038061121583398101604081905261005e91610136565b816001600160a01b03811661008d57604051631e4fbdf760e01b81526000600482015260240160405180910390fd5b610096816100ca565b506000805460ff60a01b19169055600180546001600160a01b0319166001600160a01b039290921691909117905550610169565b600080546001600160a01b038381166001600160a01b0319831681178455604051919092169283917f8be0079c531659141344cd1fd0a4f28419497f9722a3daafe3b4186f6b6457e09190a35050565b80516001600160a01b038116811461013157600080fd5b919050565b6000806040838503121561014957600080fd5b6101528361011a565b91506101606020840161011a565b90509250929050565b61109d806101786000396000f3fe6080604052600436106101445760003560e01c80638456cb59116100b6578063bcf952901161006f578063bcf9529014610409578063d0b7830b1461041f578063d6fbf20214610434578063dcb5747b1461044a578063e494015714610460578063f2fde38b1461048057600080fd5b80638456cb591461036057806384ae2bc6146103755780638da5cb5b1461038b5780639d76ea58146103bd578063b36ffca6146103dd578063b3cc167a146103f357600080fd5b80633f4ba83a116101085780633f4ba83a146101d257806353aaa63b146101e7578063571a26a0146102145780635c975abb1461030c5780636b64c76914610336578063715018a61461034b57600080fd5b80630cbf54c81461015057806310782f8f146101795780631502f8d51461018f57806326232a2e146101a55780633ccfd60b146101bb57600080fd5b3661014b57005b600080fd5b34801561015c57600080fd5b5061016660045481565b6040519081526020015b60405180910390f35b34801561018557600080fd5b5061016660025481565b34801561019b57600080fd5b50610166600b5481565b3480156101b157600080fd5b5061016660095481565b3480156101c757600080fd5b506101d06104a0565b005b3480156101de57600080fd5b506101d061054a565b3480156101f357600080fd5b50610166610202366004610f71565b600d6020526000908152604090205481565b34801561022057600080fd5b5061029e61022f366004610fa1565b600c60205260009081526040902080546001820154600283015460038401546004850154600586015460068701546007880154600889015460098a0154600a8b0154600b909b01546001600160a01b039a8b169b999a9899979896979596949593949293919092169160ff168c565b604080516001600160a01b039d8e168152602081019c909c528b019990995260608a0197909752608089019590955260a088019390935260c087019190915260e086015261010085015290931661012083015261014082019290925290151561016082015261018001610170565b34801561031857600080fd5b50600054600160a01b900460ff166040519015158152602001610170565b34801561034257600080fd5b506101d061055c565b34801561035757600080fd5b506101d061078f565b34801561036c57600080fd5b506101d06107a1565b34801561038157600080fd5b5061016660085481565b34801561039757600080fd5b506000546001600160a01b03165b6040516001600160a01b039091168152602001610170565b3480156103c957600080fd5b506001546103a5906001600160a01b031681565b3480156103e957600080fd5b50610166600a5481565b3480156103ff57600080fd5b5061016660075481565b34801561041557600080fd5b5061016660055481565b34801561042b57600080fd5b506101d06107b1565b34801561044057600080fd5b5061016660065481565b34801561045657600080fd5b5061016660035481565b34801561046c57600080fd5b506101d061047b366004610f71565b6108d0565b34801561048c57600080fd5b506101d061049b366004610f71565b610c93565b6104a8610cce565b600080546040516001600160a01b039091169047908381818185875af1925050503d80600081146104f5576040519150601f19603f3d011682016040523d82523d6000602084013e6104fa565b606091505b50509050806105475760405162461bcd60e51b81526020600482015260146024820152732330b4b632b2103a379039b2b7321022ba3432b960611b60448201526064015b60405180910390fd5b50565b610552610cce565b61055a610cfb565b565b610564610d50565b600254158061058657506002546000908152600c602052604090206003015442115b6105cb5760405162461bcd60e51b815260206004820152601660248201527541756374696f6e20616c72656164792061637469766560501b604482015260640161053e565b600254156105de576105de600254610d7b565b600280549060006105ee83610fd0565b909155505060025460015460035460045461072193926001600160a01b03169190429061061b9082610fe9565b60065460075460085460095460408051610180810182526001600160a01b03998a1681526020808201998a52818301988952606082019788526080820196875260a0820195865260c0820194855260e08201938452600061010083018181526101208401828152610140850183815261016086018481529f8452600c9094529490912092518354908d166001600160a01b03199182161784559a51600184015598516002830155965160038201559451600486015592516005850155905160068401555160078301559251600882015591516009830180549190951693169290921790925551600a8201559051600b909101805491151560ff1992909216919091179055565b6001546002546003546004546001600160a01b03909316927e09646912aaa7019ad837e57cc5c0613299c8432f5268d4450ab8673fe0fa03919042906107679082610fe9565b60065460408051948552602085019390935291830152606082015260800160405180910390a3565b610797610cce565b61055a6000610eb4565b6107a9610cce565b61055a610f04565b6107b9610cce565b600b54600a54116107ff5760405162461bcd60e51b815260206004820152601060248201526f4e6f206665657320746f20636c61696d60801b604482015260640161053e565b600154600b54600a546001600160a01b039092169160009161082091611002565b9050816001600160a01b031663a9059cbb6108436000546001600160a01b031690565b6040516001600160e01b031960e084901b1681526001600160a01b039091166004820152602481018490526044016020604051808303816000875af1158015610890573d6000803e3d6000fd5b505050506040513d601f19601f820116820180604052508101906108b49190611015565b5080600b60008282546108c79190610fe9565b90915550505050565b6108d8610d50565b6002546000908152600c602052604081206005810154600a8201549192916109009190610fe9565b9050428260020154111580156109195750428260030154115b61095a5760405162461bcd60e51b815260206004820152601260248201527141756374696f6e206e6f742061637469766560701b604482015260640161053e565b8154604051636eb1769f60e11b81523360048201523060248201526001600160a01b0390911690600090829063dd62ed3e90604401602060405180830381865afa1580156109ac573d6000803e3d6000fd5b505050506040513d601f19601f820116820180604052508101906109d09190611037565b90506109dd836002611050565b811015610a70576001600160a01b03821663095ea7b3306109ff866002611050565b6040516001600160e01b031960e085901b1681526001600160a01b03909216600483015260248201526044016020604051808303816000875af1158015610a4a573d6000803e3d6000fd5b505050506040513d601f19601f82011682018060405250810190610a6e9190611015565b505b60098401546001600160a01b031615610b04576009840154600a85015460405163a9059cbb60e01b81526001600160a01b03928316600482015260248101919091529083169063a9059cbb906044016020604051808303816000875af1158015610ade573d6000803e3d6000fd5b505050506040513d601f19601f82011682018060405250810190610b029190611015565b505b6009840180546001600160a01b03191633179055600a8401839055600884018054906000610b3183610fd0565b90915550506040516323b872dd60e01b8152336004820152306024820152604481018490526001600160a01b038316906323b872dd906064016020604051808303816000875af1158015610b89573d6000803e3d6000fd5b505050506040513d601f19601f82011682018060405250810190610bad9190611015565b506001600160a01b03851615610bee576008546001600160a01b0386166000908152600d602052604081208054909190610be8908490610fe9565b90915550505b600854600954610bfe9190611002565b600a6000828254610c0f9190610fe9565b90915550506005546003850154610c27904290611002565b1015610c4957600554846003016000828254610c439190610fe9565b90915550505b6002546040518481526001600160a01b0387169133917fe30abccebb20a387be8e75e927d7e06ce1bf9d77bb3888516663bdc8995fb3349060200160405180910390a45050505050565b610c9b610cce565b6001600160a01b038116610cc557604051631e4fbdf760e01b81526000600482015260240161053e565b61054781610eb4565b6000546001600160a01b0316331461055a5760405163118cdaa760e01b815233600482015260240161053e565b610d03610f47565b6000805460ff60a01b191690557f5db9ee0a495bf2e6ff9c91a7834c1ba4fdd244a5e8aa4e537bd38aeae4b073aa335b6040516001600160a01b03909116815260200160405180910390a1565b600054600160a01b900460ff161561055a5760405163d93c066560e01b815260040160405180910390fd5b6000818152600c6020526040902060038101544211610dd05760405162461bcd60e51b8152602060048201526011602482015270105d58dd1a5bdb881b9bdd08195b991959607a1b604482015260640161053e565b600b8101805460ff19166001908117909155815460098301549183015460405163a9059cbb60e01b81526001600160a01b0393841660048201526024810191909152911690819063a9059cbb906044016020604051808303816000875af1158015610e3f573d6000803e3d6000fd5b505050506040513d601f19601f82011682018060405250810190610e639190611015565b50600982015460018301546040519081526001600160a01b039091169084907fd2aa34a4fdbbc6dff6a3e56f46e0f3ae2a31d7785ff3487aa5c95c642acea5019060200160405180910390a3505050565b600080546001600160a01b038381166001600160a01b0319831681178455604051919092169283917f8be0079c531659141344cd1fd0a4f28419497f9722a3daafe3b4186f6b6457e09190a35050565b610f0c610d50565b6000805460ff60a01b1916600160a01b1790557f62e78cea01bee320cd4e420270b5ea74000d11b0c9f74754ebdbfc544b05a258610d333390565b600054600160a01b900460ff1661055a57604051638dfc202b60e01b815260040160405180910390fd5b600060208284031215610f8357600080fd5b81356001600160a01b0381168114610f9a57600080fd5b9392505050565b600060208284031215610fb357600080fd5b5035919050565b634e487b7160e01b600052601160045260246000fd5b600060018201610fe257610fe2610fba565b5060010190565b80820180821115610ffc57610ffc610fba565b92915050565b81810381811115610ffc57610ffc610fba565b60006020828403121561102757600080fd5b81518015158114610f9a57600080fd5b60006020828403121561104957600080fd5b5051919050565b8082028115828204841417610ffc57610ffc610fba56fea26469706673582212202101cc2f10dcf5eda6e9836d7e161d5ca8afadf32ba4c2ba813e5563f1fde88364736f6c63430008140033",
  "devdoc": {
    "author": "BuidlGuidl",
    "errors": {
      "EnforcedPause()": [
        {
          "details": "The operation failed because the contract is paused."
        }
      ],
      "ExpectedPause()": [
        {
          "details": "The operation failed because the contract is not paused."
        }
      ],
      "OwnableInvalidOwner(address)": [
        {
          "details": "The owner is not a valid owner account. (eg. `address(0)`)"
        }
      ],
      "OwnableUnauthorizedAccount(address)": [
        {
          "details": "The caller account is not authorized to perform an operation."
        }
      ]
    },
    "events": {
      "Paused(address)": {
        "details": "Emitted when the pause is triggered by `account`."
      },
      "Unpaused(address)": {
        "details": "Emitted when the pause is lifted by `account`."
      }
    },
    "kind": "dev",
    "methods": {
      "owner()": {
        "details": "Returns the address of the current owner."
      },
      "paused()": {
        "details": "Returns true if the contract is paused, and false otherwise."
      },
      "renounceOwnership()": {
        "details": "Leaves the contract without owner. It will not be possible to call `onlyOwner` functions. Can only be called by the current owner. NOTE: Renouncing ownership will leave the contract without an owner, thereby disabling any functionality that is only available to the owner."
      },
      "transferOwnership(address)": {
        "details": "Transfers ownership of the contract to a new account (`newOwner`). Can only be called by the current owner."
      }
    },
    "version": 1
  },
  "userdoc": {
    "kind": "user",
    "methods": {
      "withdraw()": {
        "notice": "Function that allows the owner to withdraw all the Ether in the contract The function can only be called by the owner of the contract as defined by the onlyOwner modifier"
      }
    },
    "notice": "A smart contract that allows changing a state variable of the contract and tracking the changes It also allows the owner to withdraw the Ether in the contract",
    "version": 1
  },
  "storageLayout": {
    "storage": [
      {
        "astId": 8,
        "contract": "contracts/FinalBidContract.sol:FinalBidContract",
        "label": "_owner",
        "offset": 0,
        "slot": "0",
        "type": "t_address"
      },
      {
        "astId": 264,
        "contract": "contracts/FinalBidContract.sol:FinalBidContract",
        "label": "_paused",
        "offset": 20,
        "slot": "0",
        "type": "t_bool"
      },
      {
        "astId": 385,
        "contract": "contracts/FinalBidContract.sol:FinalBidContract",
        "label": "tokenAddress",
        "offset": 0,
        "slot": "1",
        "type": "t_address"
      },
      {
        "astId": 387,
        "contract": "contracts/FinalBidContract.sol:FinalBidContract",
        "label": "auctionId",
        "offset": 0,
        "slot": "2",
        "type": "t_uint256"
      },
      {
        "astId": 390,
        "contract": "contracts/FinalBidContract.sol:FinalBidContract",
        "label": "auctionAmount",
        "offset": 0,
        "slot": "3",
        "type": "t_uint256"
      },
      {
        "astId": 393,
        "contract": "contracts/FinalBidContract.sol:FinalBidContract",
        "label": "auctionDuration",
        "offset": 0,
        "slot": "4",
        "type": "t_uint256"
      },
      {
        "astId": 396,
        "contract": "contracts/FinalBidContract.sol:FinalBidContract",
        "label": "auctionDurationIncrease",
        "offset": 0,
        "slot": "5",
        "type": "t_uint256"
      },
      {
        "astId": 399,
        "contract": "contracts/FinalBidContract.sol:FinalBidContract",
        "label": "startingPrice",
        "offset": 0,
        "slot": "6",
        "type": "t_uint256"
      },
      {
        "astId": 402,
        "contract": "contracts/FinalBidContract.sol:FinalBidContract",
        "label": "bidIncrement",
        "offset": 0,
        "slot": "7",
        "type": "t_uint256"
      },
      {
        "astId": 405,
        "contract": "contracts/FinalBidContract.sol:FinalBidContract",
        "label": "referralFee",
        "offset": 0,
        "slot": "8",
        "type": "t_uint256"
      },
      {
        "astId": 408,
        "contract": "contracts/FinalBidContract.sol:FinalBidContract",
        "label": "platformFee",
        "offset": 0,
        "slot": "9",
        "type": "t_uint256"
      },
      {
        "astId": 410,
        "contract": "contracts/FinalBidContract.sol:FinalBidContract",
        "label": "platformFeesCollected",
        "offset": 0,
        "slot": "10",
        "type": "t_uint256"
      },
      {
        "astId": 412,
        "contract": "contracts/FinalBidContract.sol:FinalBidContract",
        "label": "platformFeesClaimed",
        "offset": 0,
        "slot": "11",
        "type": "t_uint256"
      },
      {
        "astId": 442,
        "contract": "contracts/FinalBidContract.sol:FinalBidContract",
        "label": "auctions",
        "offset": 0,
        "slot": "12",
        "type": "t_mapping(t_uint256,t_struct(Auction)437_storage)"
      },
      {
        "astId": 446,
        "contract": "contracts/FinalBidContract.sol:FinalBidContract",
        "label": "referralRewards",
        "offset": 0,
        "slot": "13",
        "type": "t_mapping(t_address,t_uint256)"
      }
    ],
    "types": {
      "t_address": {
        "encoding": "inplace",
        "label": "address",
        "numberOfBytes": "20"
      },
      "t_bool": {
        "encoding": "inplace",
        "label": "bool",
        "numberOfBytes": "1"
      },
      "t_mapping(t_address,t_uint256)": {
        "encoding": "mapping",
        "key": "t_address",
        "label": "mapping(address => uint256)",
        "numberOfBytes": "32",
        "value": "t_uint256"
      },
      "t_mapping(t_uint256,t_struct(Auction)437_storage)": {
        "encoding": "mapping",
        "key": "t_uint256",
        "label": "mapping(uint256 => struct FinalBidContract.Auction)",
        "numberOfBytes": "32",
        "value": "t_struct(Auction)437_storage"
      },
      "t_struct(Auction)437_storage": {
        "encoding": "inplace",
        "label": "struct FinalBidContract.Auction",
        "members": [
          {
            "astId": 414,
            "contract": "contracts/FinalBidContract.sol:FinalBidContract",
            "label": "tokenAddress",
            "offset": 0,
            "slot": "0",
            "type": "t_address"
          },
          {
            "astId": 416,
            "contract": "contracts/FinalBidContract.sol:FinalBidContract",
            "label": "auctionAmount",
            "offset": 0,
            "slot": "1",
            "type": "t_uint256"
          },
          {
            "astId": 418,
            "contract": "contracts/FinalBidContract.sol:FinalBidContract",
            "label": "startTime",
            "offset": 0,
            "slot": "2",
            "type": "t_uint256"
          },
          {
            "astId": 420,
            "contract": "contracts/FinalBidContract.sol:FinalBidContract",
            "label": "endTime",
            "offset": 0,
            "slot": "3",
            "type": "t_uint256"
          },
          {
            "astId": 422,
            "contract": "contracts/FinalBidContract.sol:FinalBidContract",
            "label": "startingPrice",
            "offset": 0,
            "slot": "4",
            "type": "t_uint256"
          },
          {
            "astId": 424,
            "contract": "contracts/FinalBidContract.sol:FinalBidContract",
            "label": "bidIncrement",
            "offset": 0,
            "slot": "5",
            "type": "t_uint256"
          },
          {
            "astId": 426,
            "contract": "contracts/FinalBidContract.sol:FinalBidContract",
            "label": "referralFee",
            "offset": 0,
            "slot": "6",
            "type": "t_uint256"
          },
          {
            "astId": 428,
            "contract": "contracts/FinalBidContract.sol:FinalBidContract",
            "label": "platformFee",
            "offset": 0,
            "slot": "7",
            "type": "t_uint256"
          },
          {
            "astId": 430,
            "contract": "contracts/FinalBidContract.sol:FinalBidContract",
            "label": "bidCount",
            "offset": 0,
            "slot": "8",
            "type": "t_uint256"
          },
          {
            "astId": 432,
            "contract": "contracts/FinalBidContract.sol:FinalBidContract",
            "label": "highestBidder",
            "offset": 0,
            "slot": "9",
            "type": "t_address"
          },
          {
            "astId": 434,
            "contract": "contracts/FinalBidContract.sol:FinalBidContract",
            "label": "highestBid",
            "offset": 0,
            "slot": "10",
            "type": "t_uint256"
          },
          {
            "astId": 436,
            "contract": "contracts/FinalBidContract.sol:FinalBidContract",
            "label": "ended",
            "offset": 0,
            "slot": "11",
            "type": "t_bool"
          }
        ],
        "numberOfBytes": "384"
      },
      "t_uint256": {
        "encoding": "inplace",
        "label": "uint256",
        "numberOfBytes": "32"
      }
    }
  }
}