{
  "address": "0xDecd2924e41a7667E4E7Da664108E4dd6Cb0dFF9",
  "abi": [
    {
      "inputs": [
        {
          "internalType": "address",
          "name": "_owner",
          "type": "address"
        },
        {
          "internalType": "address",
          "name": "_tokenAddress",
          "type": "address"
        }
      ],
      "stateMutability": "nonpayable",
      "type": "constructor"
    },
    {
      "inputs": [],
      "name": "EnforcedPause",
      "type": "error"
    },
    {
      "inputs": [],
      "name": "ExpectedPause",
      "type": "error"
    },
    {
      "inputs": [
        {
          "internalType": "address",
          "name": "owner",
          "type": "address"
        }
      ],
      "name": "OwnableInvalidOwner",
      "type": "error"
    },
    {
      "inputs": [
        {
          "internalType": "address",
          "name": "account",
          "type": "address"
        }
      ],
      "name": "OwnableUnauthorizedAccount",
      "type": "error"
    },
    {
      "anonymous": false,
      "inputs": [
        {
          "indexed": false,
          "internalType": "uint256",
          "name": "oldAmount",
          "type": "uint256"
        },
        {
          "indexed": false,
          "internalType": "uint256",
          "name": "newAmount",
          "type": "uint256"
        }
      ],
      "name": "AuctionAmountUpdated",
      "type": "event"
    },
    {
      "anonymous": false,
      "inputs": [
        {
          "indexed": true,
          "internalType": "uint256",
          "name": "auctionId",
          "type": "uint256"
        },
        {
          "indexed": false,
          "internalType": "uint256",
          "name": "auctionAmount",
          "type": "uint256"
        },
        {
          "indexed": false,
          "internalType": "uint256",
          "name": "startTime",
          "type": "uint256"
        },
        {
          "indexed": false,
          "internalType": "uint256",
          "name": "endTime",
          "type": "uint256"
        },
        {
          "indexed": false,
          "internalType": "uint256",
          "name": "startingAmount",
          "type": "uint256"
        },
        {
          "indexed": false,
          "internalType": "uint256",
          "name": "bidIncrement",
          "type": "uint256"
        },
        {
          "indexed": false,
          "internalType": "uint256",
          "name": "referralFee",
          "type": "uint256"
        },
        {
          "indexed": false,
          "internalType": "uint256",
          "name": "platformFee",
          "type": "uint256"
        }
      ],
      "name": "AuctionCreated",
      "type": "event"
    },
    {
      "anonymous": false,
      "inputs": [
        {
          "indexed": false,
          "internalType": "uint256",
          "name": "oldIncrease",
          "type": "uint256"
        },
        {
          "indexed": false,
          "internalType": "uint256",
          "name": "newIncrease",
          "type": "uint256"
        }
      ],
      "name": "AuctionDurationIncreaseUpdated",
      "type": "event"
    },
    {
      "anonymous": false,
      "inputs": [
        {
          "indexed": false,
          "internalType": "uint256",
          "name": "oldDuration",
          "type": "uint256"
        },
        {
          "indexed": false,
          "internalType": "uint256",
          "name": "newDuration",
          "type": "uint256"
        }
      ],
      "name": "AuctionDurationUpdated",
      "type": "event"
    },
    {
      "anonymous": false,
      "inputs": [
        {
          "indexed": true,
          "internalType": "uint256",
          "name": "auctionId",
          "type": "uint256"
        },
        {
          "indexed": true,
          "internalType": "address",
          "name": "winner",
          "type": "address"
        },
        {
          "indexed": false,
          "internalType": "uint256",
          "name": "amount",
          "type": "uint256"
        },
        {
          "indexed": false,
          "internalType": "uint256",
          "name": "highestBid",
          "type": "uint256"
        }
      ],
      "name": "AuctionEnded",
      "type": "event"
    },
    {
      "anonymous": false,
      "inputs": [
        {
          "indexed": false,
          "internalType": "uint256",
          "name": "oldAmount",
          "type": "uint256"
        },
        {
          "indexed": false,
          "internalType": "uint256",
          "name": "newAmount",
          "type": "uint256"
        }
      ],
      "name": "BidIncrementUpdated",
      "type": "event"
    },
    {
      "anonymous": false,
      "inputs": [
        {
          "indexed": true,
          "internalType": "uint256",
          "name": "auctionId",
          "type": "uint256"
        },
        {
          "indexed": true,
          "internalType": "address",
          "name": "bidder",
          "type": "address"
        },
        {
          "indexed": false,
          "internalType": "uint256",
          "name": "amount",
          "type": "uint256"
        },
        {
          "indexed": true,
          "internalType": "address",
          "name": "referral",
          "type": "address"
        },
        {
          "indexed": false,
          "internalType": "uint256",
          "name": "endTime",
          "type": "uint256"
        }
      ],
      "name": "BidPlaced",
      "type": "event"
    },
    {
      "anonymous": false,
      "inputs": [
        {
          "indexed": true,
          "internalType": "address",
          "name": "previousOwner",
          "type": "address"
        },
        {
          "indexed": true,
          "internalType": "address",
          "name": "newOwner",
          "type": "address"
        }
      ],
      "name": "OwnershipTransferred",
      "type": "event"
    },
    {
      "anonymous": false,
      "inputs": [
        {
          "indexed": false,
          "internalType": "address",
          "name": "account",
          "type": "address"
        }
      ],
      "name": "Paused",
      "type": "event"
    },
    {
      "anonymous": false,
      "inputs": [
        {
          "indexed": false,
          "internalType": "uint256",
          "name": "oldAmount",
          "type": "uint256"
        },
        {
          "indexed": false,
          "internalType": "uint256",
          "name": "newAmount",
          "type": "uint256"
        }
      ],
      "name": "PlatformFeeUpdated",
      "type": "event"
    },
    {
      "anonymous": false,
      "inputs": [
        {
          "indexed": false,
          "internalType": "uint256",
          "name": "oldAmount",
          "type": "uint256"
        },
        {
          "indexed": false,
          "internalType": "uint256",
          "name": "newAmount",
          "type": "uint256"
        }
      ],
      "name": "ReferralFeeUpdated",
      "type": "event"
    },
    {
      "anonymous": false,
      "inputs": [
        {
          "indexed": false,
          "internalType": "uint256",
          "name": "oldAmount",
          "type": "uint256"
        },
        {
          "indexed": false,
          "internalType": "uint256",
          "name": "newAmount",
          "type": "uint256"
        }
      ],
      "name": "StartingAmountUpdated",
      "type": "event"
    },
    {
      "anonymous": false,
      "inputs": [
        {
          "indexed": false,
          "internalType": "address",
          "name": "account",
          "type": "address"
        }
      ],
      "name": "Unpaused",
      "type": "event"
    },
    {
      "inputs": [],
      "name": "auctionAmount",
      "outputs": [
        {
          "internalType": "uint256",
          "name": "",
          "type": "uint256"
        }
      ],
      "stateMutability": "view",
      "type": "function"
    },
    {
      "inputs": [],
      "name": "auctionDuration",
      "outputs": [
        {
          "internalType": "uint256",
          "name": "",
          "type": "uint256"
        }
      ],
      "stateMutability": "view",
      "type": "function"
    },
    {
      "inputs": [],
      "name": "auctionDurationIncrease",
      "outputs": [
        {
          "internalType": "uint256",
          "name": "",
          "type": "uint256"
        }
      ],
      "stateMutability": "view",
      "type": "function"
    },
    {
      "inputs": [],
      "name": "auctionId",
      "outputs": [
        {
          "internalType": "uint256",
          "name": "",
          "type": "uint256"
        }
      ],
      "stateMutability": "view",
      "type": "function"
    },
    {
      "inputs": [
        {
          "internalType": "uint256",
          "name": "",
          "type": "uint256"
        }
      ],
      "name": "auctions",
      "outputs": [
        {
          "internalType": "uint256",
          "name": "auctionAmount",
          "type": "uint256"
        },
        {
          "internalType": "uint256",
          "name": "startTime",
          "type": "uint256"
        },
        {
          "internalType": "uint256",
          "name": "endTime",
          "type": "uint256"
        },
        {
          "internalType": "uint256",
          "name": "startingAmount",
          "type": "uint256"
        },
        {
          "internalType": "uint256",
          "name": "bidIncrement",
          "type": "uint256"
        },
        {
          "internalType": "uint256",
          "name": "referralFee",
          "type": "uint256"
        },
        {
          "internalType": "uint256",
          "name": "platformFee",
          "type": "uint256"
        },
        {
          "internalType": "uint256",
          "name": "bidCount",
          "type": "uint256"
        },
        {
          "internalType": "address",
          "name": "highestBidder",
          "type": "address"
        },
        {
          "internalType": "uint256",
          "name": "highestBid",
          "type": "uint256"
        },
        {
          "internalType": "bool",
          "name": "ended",
          "type": "bool"
        }
      ],
      "stateMutability": "view",
      "type": "function"
    },
    {
      "inputs": [],
      "name": "bidIncrement",
      "outputs": [
        {
          "internalType": "uint256",
          "name": "",
          "type": "uint256"
        }
      ],
      "stateMutability": "view",
      "type": "function"
    },
    {
      "inputs": [],
      "name": "endAuction",
      "outputs": [],
      "stateMutability": "nonpayable",
      "type": "function"
    },
    {
      "inputs": [],
      "name": "owner",
      "outputs": [
        {
          "internalType": "address",
          "name": "",
          "type": "address"
        }
      ],
      "stateMutability": "view",
      "type": "function"
    },
    {
      "inputs": [],
      "name": "pause",
      "outputs": [],
      "stateMutability": "nonpayable",
      "type": "function"
    },
    {
      "inputs": [],
      "name": "paused",
      "outputs": [
        {
          "internalType": "bool",
          "name": "",
          "type": "bool"
        }
      ],
      "stateMutability": "view",
      "type": "function"
    },
    {
      "inputs": [
        {
          "internalType": "address",
          "name": "_referral",
          "type": "address"
        }
      ],
      "name": "placeBid",
      "outputs": [],
      "stateMutability": "nonpayable",
      "type": "function"
    },
    {
      "inputs": [],
      "name": "platformFee",
      "outputs": [
        {
          "internalType": "uint256",
          "name": "",
          "type": "uint256"
        }
      ],
      "stateMutability": "view",
      "type": "function"
    },
    {
      "inputs": [],
      "name": "platformFeesClaimed",
      "outputs": [
        {
          "internalType": "uint256",
          "name": "",
          "type": "uint256"
        }
      ],
      "stateMutability": "view",
      "type": "function"
    },
    {
      "inputs": [],
      "name": "platformFeesCollected",
      "outputs": [
        {
          "internalType": "uint256",
          "name": "",
          "type": "uint256"
        }
      ],
      "stateMutability": "view",
      "type": "function"
    },
    {
      "inputs": [],
      "name": "referralFee",
      "outputs": [
        {
          "internalType": "uint256",
          "name": "",
          "type": "uint256"
        }
      ],
      "stateMutability": "view",
      "type": "function"
    },
    {
      "inputs": [],
      "name": "renounceOwnership",
      "outputs": [],
      "stateMutability": "nonpayable",
      "type": "function"
    },
    {
      "inputs": [
        {
          "internalType": "uint256",
          "name": "_auctionAmount",
          "type": "uint256"
        }
      ],
      "name": "setAuctionAmount",
      "outputs": [],
      "stateMutability": "nonpayable",
      "type": "function"
    },
    {
      "inputs": [
        {
          "internalType": "uint256",
          "name": "_auctionDuration",
          "type": "uint256"
        }
      ],
      "name": "setAuctionDuration",
      "outputs": [],
      "stateMutability": "nonpayable",
      "type": "function"
    },
    {
      "inputs": [
        {
          "internalType": "uint256",
          "name": "_auctionDurationIncrease",
          "type": "uint256"
        }
      ],
      "name": "setAuctionDurationIncrease",
      "outputs": [],
      "stateMutability": "nonpayable",
      "type": "function"
    },
    {
      "inputs": [
        {
          "internalType": "uint256",
          "name": "_bidIncrement",
          "type": "uint256"
        }
      ],
      "name": "setBidIncrement",
      "outputs": [],
      "stateMutability": "nonpayable",
      "type": "function"
    },
    {
      "inputs": [
        {
          "internalType": "uint256",
          "name": "_platformFee",
          "type": "uint256"
        }
      ],
      "name": "setPlatformFee",
      "outputs": [],
      "stateMutability": "nonpayable",
      "type": "function"
    },
    {
      "inputs": [
        {
          "internalType": "uint256",
          "name": "_referralFee",
          "type": "uint256"
        }
      ],
      "name": "setReferralFee",
      "outputs": [],
      "stateMutability": "nonpayable",
      "type": "function"
    },
    {
      "inputs": [
        {
          "internalType": "uint256",
          "name": "_startingAmount",
          "type": "uint256"
        }
      ],
      "name": "setStartingAmount",
      "outputs": [],
      "stateMutability": "nonpayable",
      "type": "function"
    },
    {
      "inputs": [],
      "name": "startAuction",
      "outputs": [],
      "stateMutability": "nonpayable",
      "type": "function"
    },
    {
      "inputs": [],
      "name": "startingAmount",
      "outputs": [
        {
          "internalType": "uint256",
          "name": "",
          "type": "uint256"
        }
      ],
      "stateMutability": "view",
      "type": "function"
    },
    {
      "inputs": [],
      "name": "tokenAddress",
      "outputs": [
        {
          "internalType": "address",
          "name": "",
          "type": "address"
        }
      ],
      "stateMutability": "view",
      "type": "function"
    },
    {
      "inputs": [],
      "name": "totalReferralRewardsCollected",
      "outputs": [
        {
          "internalType": "uint256",
          "name": "",
          "type": "uint256"
        }
      ],
      "stateMutability": "view",
      "type": "function"
    },
    {
      "inputs": [
        {
          "internalType": "address",
          "name": "newOwner",
          "type": "address"
        }
      ],
      "name": "transferOwnership",
      "outputs": [],
      "stateMutability": "nonpayable",
      "type": "function"
    },
    {
      "inputs": [],
      "name": "unpause",
      "outputs": [],
      "stateMutability": "nonpayable",
      "type": "function"
    },
    {
      "inputs": [],
      "name": "withdraw",
      "outputs": [],
      "stateMutability": "nonpayable",
      "type": "function"
    },
    {
      "inputs": [],
      "name": "withdrawPlatformFees",
      "outputs": [],
      "stateMutability": "nonpayable",
      "type": "function"
    },
    {
      "stateMutability": "payable",
      "type": "receive"
    }
  ],
  "transactionHash": "0xf781fa2ee9bd54b09a1357088b7626b6e3bfc04897d4bcd98ba2c18ded2aab57",
  "args": [
    "0xE20968f84A535be7d7a97d3a1a5760d89D6c4Ce0",
    "0xcE295748B9CaCAE371b860E57C58A61F310ebD0F"
  ],
  "numDeployments": 7,
  "solcInputHash": "8dad8e63a24baee3c2c53d8ecdbd4a14",
  "bytecode": "0x60806040526305f5e100600355610258600455603c600555620f42406006556203d0906007556203d090600855620f42406009553480156200004057600080fd5b5060405162001e7138038062001e71833981016040819052620000639162000140565b816001600160a01b0381166200009357604051631e4fbdf760e01b81526000600482015260240160405180910390fd5b6200009e81620000d3565b506000805460ff60a01b19169055600180546001600160a01b0319166001600160a01b03929092169190911790555062000178565b600080546001600160a01b038381166001600160a01b0319831681178455604051919092169283917f8be0079c531659141344cd1fd0a4f28419497f9722a3daafe3b4186f6b6457e09190a35050565b80516001600160a01b03811681146200013b57600080fd5b919050565b600080604083850312156200015457600080fd5b6200015f8362000123565b91506200016f6020840162000123565b90509250929050565b611ce980620001886000396000f3fe6080604052600436106101dc5760003560e01c80638456cb5911610102578063b3cc167a11610095578063dcb5747b11610064578063dcb5747b14610592578063e4940157146105a8578063f2fde38b146105c8578063fe67a54b146105e857600080fd5b8063b3cc167a14610531578063bcf9529014610547578063caadca2a1461055d578063d0b7830b1461057d57600080fd5b8063a497e674116100d1578063a497e674146104c5578063a76d13cd146104e5578063ae84925d146104fb578063b36ffca61461051b57600080fd5b80638456cb591461044857806384ae2bc61461045d5780638da5cb5b146104735780639d76ea58146104a557600080fd5b8063544f113b1161017a5780636b64c769116101495780636b64c769146103de578063713494d7146103f3578063715018a6146104135780637b850da91461042857600080fd5b8063544f113b1461029f578063571a26a0146102b55780635c975abb146103945780635e56974a146103be57600080fd5b80631502f8d5116101b65780631502f8d51461024957806326232a2e1461025f5780633ccfd60b146102755780633f4ba83a1461028a57600080fd5b80630cbf54c8146101e857806310782f8f1461021157806312e8e2c31461022757600080fd5b366101e357005b600080fd5b3480156101f457600080fd5b506101fe60045481565b6040519081526020015b60405180910390f35b34801561021d57600080fd5b506101fe60025481565b34801561023357600080fd5b50610247610242366004611b56565b6105fd565b005b34801561025557600080fd5b506101fe600b5481565b34801561026b57600080fd5b506101fe60095481565b34801561028157600080fd5b506102476106d3565b34801561029657600080fd5b50610247610778565b3480156102ab57600080fd5b506101fe60065481565b3480156102c157600080fd5b506103366102d0366004611b56565b600d60205260009081526040902080546001820154600283015460038401546004850154600586015460068701546007880154600889015460098a0154600a909a0154989997989697959694959394929391926001600160a01b03909116919060ff168b565b604080519b8c5260208c019a909a52988a01979097526060890195909552608088019390935260a087019190915260c086015260e08501526001600160a01b0316610100840152610120830152151561014082015261016001610208565b3480156103a057600080fd5b50600054600160a01b900460ff166040519015158152602001610208565b3480156103ca57600080fd5b506102476103d9366004611b56565b61078a565b3480156103ea57600080fd5b50610247610820565b3480156103ff57600080fd5b5061024761040e366004611b56565b6108e2565b34801561041f57600080fd5b5061024761094a565b34801561043457600080fd5b50610247610443366004611b56565b61095c565b34801561045457600080fd5b506102476109f2565b34801561046957600080fd5b506101fe60085481565b34801561047f57600080fd5b506000546001600160a01b03165b6040516001600160a01b039091168152602001610208565b3480156104b157600080fd5b5060015461048d906001600160a01b031681565b3480156104d157600080fd5b506102476104e0366004611b56565b610a02565b3480156104f157600080fd5b506101fe600c5481565b34801561050757600080fd5b50610247610516366004611b56565b610a98565b34801561052757600080fd5b506101fe600a5481565b34801561053d57600080fd5b506101fe60075481565b34801561055357600080fd5b506101fe60055481565b34801561056957600080fd5b50610247610578366004611b56565b610b2e565b34801561058957600080fd5b50610247610b74565b34801561059e57600080fd5b506101fe60035481565b3480156105b457600080fd5b506102476105c3366004611b6f565b610c93565b3480156105d457600080fd5b506102476105e3366004611b6f565b61122d565b3480156105f457600080fd5b50610247611268565b610605611330565b6000811161065a5760405162461bcd60e51b815260206004820152601760248201527f706c6174666f726d466565206d757374206265203e203000000000000000000060448201526064015b60405180910390fd5b80600854111561067c5760405162461bcd60e51b815260040161065190611b9f565b6009805490829055600854821015610695576009546008555b60408051828152602081018490527fd347e206f25a89b917fc9482f1a2d294d749baa4dc9bde7fb495ee11fe49164391015b60405180910390a15050565b6106db611330565b600080546040516001600160a01b039091169047908381818185875af1925050503d8060008114610728576040519150601f19603f3d011682016040523d82523d6000602084013e61072d565b606091505b50509050806107755760405162461bcd60e51b81526020600482015260146024820152732330b4b632b2103a379039b2b7321022ba3432b960611b6044820152606401610651565b50565b610780611330565b61078861135d565b565b610792611330565b600081116107e25760405162461bcd60e51b815260206004820152601a60248201527f7374617274696e67416d6f756e74206d757374206265203e20300000000000006044820152606401610651565b600680549082905560408051828152602081018490527f4ccb4817dce85ff59507ca2c693ef8fdd6354419e5ed2a6ef9496d979d98e9da91016106c7565b6108286113b2565b6002546000818152600d6020526040902090158061084f5750600a81015460ff1615156001145b6108945760405162461bcd60e51b815260206004820152601660248201527541756374696f6e20616c72656164792061637469766560501b6044820152606401610651565b600280549060006108a483611bfa565b909155505060025460015460035460045461077593926001600160a01b0316919042906108d19082611c13565b6006546007546008546009546113dd565b6108ea611330565b60095481111561090c5760405162461bcd60e51b815260040161065190611b9f565b600880549082905560408051828152602081018490527fe6a16ded5057640d8831f18cd4885a75642c76b3fde5215975c3d9735027fa2091016106c7565b610952611330565b610788600061172f565b610964611330565b600081116109b45760405162461bcd60e51b815260206004820152601860248201527f626964496e6372656d656e74206d757374206265203e203000000000000000006044820152606401610651565b600780549082905560408051828152602081018490527fde7c4e4290bb6d88f94b00d24ffd00ffcb6b828adb0e8a72e85ad21d85baaaeb91016106c7565b6109fa611330565b61078861177f565b610a0a611330565b60008111610a5a5760405162461bcd60e51b815260206004820152601b60248201527f61756374696f6e4475726174696f6e206d757374206265203e203000000000006044820152606401610651565b600480549082905560408051828152602081018490527f9702db1e67fa6b64b8288101859f3b327a978f15d66e12ad769e5bbf30814d2891016106c7565b610aa0611330565b60008111610af05760405162461bcd60e51b815260206004820152601960248201527f61756374696f6e416d6f756e74206d757374206265203e2030000000000000006044820152606401610651565b600380549082905560408051828152602081018490527f2f3a4f733ff4215b09dcc7fbf1a6ba7865195aa6f96655899c3dbb358a0eb72891016106c7565b610b36611330565b600580549082905560408051828152602081018490527fa0c8ba418e7f434a532cdc1be7da4ac9ca7e416e31946164f008fd1d7f79772f91016106c7565b610b7c611330565b600b54600a5411610bc25760405162461bcd60e51b815260206004820152601060248201526f4e6f206665657320746f20636c61696d60801b6044820152606401610651565b600154600b54600a546001600160a01b0390921691600091610be391611c2c565b9050816001600160a01b031663a9059cbb610c066000546001600160a01b031690565b6040516001600160e01b031960e084901b1681526001600160a01b039091166004820152602481018490526044016020604051808303816000875af1158015610c53573d6000803e3d6000fd5b505050506040513d601f19601f82011682018060405250810190610c779190611c3f565b5080600b6000828254610c8a9190611c13565b90915550505050565b610c9b6113b2565b6002546000908152600d6020526040902060018101544210801590610cc35750428160020154115b8015610cd45750600a81015460ff16155b610d155760405162461bcd60e51b815260206004820152601260248201527141756374696f6e206e6f742061637469766560701b6044820152606401610651565b6008810154336001600160a01b0390911603610d7e5760405162461bcd60e51b815260206004820152602260248201527f596f752061726520616c7265616479207468652068696768657374206269646460448201526132b960f11b6064820152608401610651565b60008160090154600014610da55781600401548260090154610da09190611c13565b610dab565b81600301545b9050600060095482610dbd9190611c13565b6001546040516370a0823160e01b81523360048201529192506001600160a01b03169060009082906370a0823190602401602060405180830381865afa158015610e0b573d6000803e3d6000fd5b505050506040513d601f19601f82011682018060405250810190610e2f9190611c61565b905082811015610e785760405162461bcd60e51b8152602060048201526014602482015273496e73756666696369656e742062616c616e636560601b6044820152606401610651565b604051636eb1769f60e11b81523360048201523060248201526000906001600160a01b0384169063dd62ed3e90604401602060405180830381865afa158015610ec5573d6000803e3d6000fd5b505050506040513d601f19601f82011682018060405250810190610ee99190611c61565b905083811015610f345760405162461bcd60e51b8152602060048201526016602482015275496e73756666696369656e7420616c6c6f77616e636560501b6044820152606401610651565b6040516323b872dd60e01b8152336004820152306024820152604481018590526001600160a01b038416906323b872dd906064016020604051808303816000875af1158015610f87573d6000803e3d6000fd5b505050506040513d601f19601f82011682018060405250810190610fab9190611c3f565b5060088601546001600160a01b031615611040576008860154600987015460405163a9059cbb60e01b81526001600160a01b03928316600482015260248101919091529084169063a9059cbb906044016020604051808303816000875af115801561101a573d6000803e3d6000fd5b505050506040513d601f19601f8201168201806040525081019061103e9190611c3f565b505b6008860180546001600160a01b031916331790556009860185905560078601805490600061106d83611bfa565b9091555050336001600160a01b0388160361108757600096505b6001600160a01b03871615611154576008546009546110a69190611c2c565b600a60008282546110b79190611c13565b9091555050600854600c80546000906110d1908490611c13565b909155505060085460405163a9059cbb60e01b81526001600160a01b03898116600483015260248201929092529084169063a9059cbb906044016020604051808303816000875af115801561112a573d6000803e3d6000fd5b505050506040513d601f19601f8201168201806040525081019061114e9190611c3f565b5061116e565b600954600a60008282546111689190611c13565b90915550505b6005544287600201546111819190611c2c565b108015611192575085546009870154105b156111b3576005548660020160008282546111ad9190611c13565b90915550505b866001600160a01b0316336001600160a01b03166002547f2e296671c28b83e813c76e2acf7481f5a2cc46aaeb9bcf33b3e048f50e9c33e9888a60020154604051611208929190918252602082015260400190565b60405180910390a4855460098701541061122457611224611268565b50505050505050565b611235611330565b6001600160a01b03811661125f57604051631e4fbdf760e01b815260006004820152602401610651565b6107758161172f565b6112706113b2565b6002546000908152600d60205260409020600a81015460ff16156112ce5760405162461bcd60e51b8152602060048201526015602482015274105d58dd1a5bdb88185b1c9958591e48195b991959605a1b6044820152606401610651565b42816002015410806112e557508054600982015410155b6113255760405162461bcd60e51b8152602060048201526011602482015270105d58dd1a5bdb881b9bdd08195b991959607a1b6044820152606401610651565b6107756002546117c2565b6000546001600160a01b031633146107885760405163118cdaa760e01b8152336004820152602401610651565b6113656119c7565b6000805460ff60a01b191690557f5db9ee0a495bf2e6ff9c91a7834c1ba4fdd244a5e8aa4e537bd38aeae4b073aa335b6040516001600160a01b03909116815260200160405180910390a1565b600054600160a01b900460ff16156107885760405163d93c066560e01b815260040160405180910390fd5b6040516370a0823160e01b81523060048201526000906001600160a01b038a16906370a0823190602401602060405180830381865afa158015611424573d6000803e3d6000fd5b505050506040513d601f19601f820116820180604052508101906114489190611c61565b90506000600b54600a541161145e57600061146e565b600b54600a5461146e9190611c2c565b905061147a8587611c13565b82116114d65760405162461bcd60e51b815260206004820152602560248201527f496e73756666696369656e742062616c616e636520746f20737461727420617560448201526431ba34b7b760d91b6064820152608401610651565b60008983116114e557826114e7565b895b90506114f38284611c2c565b811115611525576115048284611c2c565b61150e9082611c2c565b600b600082825461151f9190611c13565b90915550505b6002611532826003611c7a565b61153c9190611c91565b831115611595576000600280611553846003611c7a565b61155d9190611c91565b6115679086611c2c565b6115719190611c91565b905061157e600282611c91565b6115889083611c13565b9150611593816119f1565b505b6040518061016001604052808281526020018a81526020018981526020018881526020018781526020018681526020018581526020016000815260200160006001600160a01b031681526020016000815260200160001515815250600d60008e8152602001908152602001600020600082015181600001556020820151816001015560408201518160020155606082015181600301556080820151816004015560a0820151816005015560c0820151816006015560e082015181600701556101008201518160080160006101000a8154816001600160a01b0302191690836001600160a01b03160217905550610120820151816009015561014082015181600a0160006101000a81548160ff0219169083151502179055509050506002547f424afe538742d006bbba9d1d6131ac9b057e5228336237362e3967be8dc5887a828b8b8b8b8b8b6040516117199796959493929190968752602087019590955260408601939093526060850191909152608084015260a083015260c082015260e00190565b60405180910390a2505050505050505050505050565b600080546001600160a01b038381166001600160a01b0319831681178455604051919092169283917f8be0079c531659141344cd1fd0a4f28419497f9722a3daafe3b4186f6b6457e09190a35050565b6117876113b2565b6000805460ff60a01b1916600160a01b1790557f62e78cea01bee320cd4e420270b5ea74000d11b0c9f74754ebdbfc544b05a2586113953390565b6000818152600d6020526040902081158015906117e157506002548211155b6118215760405162461bcd60e51b8152602060048201526011602482015270105d58dd1a5bdb881b9bdd08199bdd5b99607a1b6044820152606401610651565b600a81015460ff161561186e5760405162461bcd60e51b8152602060048201526015602482015274105d58dd1a5bdb88185b1c9958591e48195b991959605a1b6044820152606401610651565b428160020154108061188557508054600982015410155b6118c55760405162461bcd60e51b8152602060048201526011602482015270105d58dd1a5bdb881b9bdd08195b991959607a1b6044820152606401610651565b600a8101805460ff1916600117905560088101546001600160a01b03161561196a576001546008820154825460405163a9059cbb60e01b81526001600160a01b0392831660048201526024810191909152911690819063a9059cbb906044016020604051808303816000875af1158015611943573d6000803e3d6000fd5b505050506040513d601f19601f820116820180604052508101906119679190611c3f565b50505b6008810154815460098301546040516001600160a01b039093169285927fe9ba83469fc8ee4260dd274fd43b5a54f2df813ad21c4637d53084d1f3866b37926119bb92918252602082015260400190565b60405180910390a35050565b600054600160a01b900460ff1661078857604051638dfc202b60e01b815260040160405180910390fd5b6001546040516370a0823160e01b81523060048201526000916001600160a01b0316906370a0823190602401602060405180830381865afa158015611a3a573d6000803e3d6000fd5b505050506040513d601f19601f82011682018060405250810190611a5e9190611c61565b9050818111611aaf5760405162461bcd60e51b815260206004820181905260248201527f496e73756666696369656e742062616c616e636520746f2077697468647261776044820152606401610651565b6001546001600160a01b031663a9059cbb611ad26000546001600160a01b031690565b6040516001600160e01b031960e084901b1681526001600160a01b039091166004820152602481018590526044016020604051808303816000875af1158015611b1f573d6000803e3d6000fd5b505050506040513d601f19601f82011682018060405250810190611b439190611c3f565b5081600b6000828254610c8a9190611c13565b600060208284031215611b6857600080fd5b5035919050565b600060208284031215611b8157600080fd5b81356001600160a01b0381168114611b9857600080fd5b9392505050565b60208082526025908201527f726566657272616c4665652063616e6e6f742065786365656420706c6174666f604082015264726d46656560d81b606082015260800190565b634e487b7160e01b600052601160045260246000fd5b600060018201611c0c57611c0c611be4565b5060010190565b80820180821115611c2657611c26611be4565b92915050565b81810381811115611c2657611c26611be4565b600060208284031215611c5157600080fd5b81518015158114611b9857600080fd5b600060208284031215611c7357600080fd5b5051919050565b8082028115828204841417611c2657611c26611be4565b600082611cae57634e487b7160e01b600052601260045260246000fd5b50049056fea264697066735822122051ba34fccffcf15f19a1ac5266a20e722e63bef87c8ad77db01812a54e31504a64736f6c63430008140033",
  "devdoc": {
    "author": "BuidlGuidl",
    "errors": {
      "EnforcedPause()": [
        {
          "details": "The operation failed because the contract is paused."
        }
      ],
      "ExpectedPause()": [
        {
          "details": "The operation failed because the contract is not paused."
        }
      ],
      "OwnableInvalidOwner(address)": [
        {
          "details": "The owner is not a valid owner account. (eg. `address(0)`)"
        }
      ],
      "OwnableUnauthorizedAccount(address)": [
        {
          "details": "The caller account is not authorized to perform an operation."
        }
      ]
    },
    "events": {
      "Paused(address)": {
        "details": "Emitted when the pause is triggered by `account`."
      },
      "Unpaused(address)": {
        "details": "Emitted when the pause is lifted by `account`."
      }
    },
    "kind": "dev",
    "methods": {
      "owner()": {
        "details": "Returns the address of the current owner."
      },
      "paused()": {
        "details": "Returns true if the contract is paused, and false otherwise."
      },
      "renounceOwnership()": {
        "details": "Leaves the contract without owner. It will not be possible to call `onlyOwner` functions. Can only be called by the current owner. NOTE: Renouncing ownership will leave the contract without an owner, thereby disabling any functionality that is only available to the owner."
      },
      "transferOwnership(address)": {
        "details": "Transfers ownership of the contract to a new account (`newOwner`). Can only be called by the current owner."
      }
    },
    "version": 1
  },
  "userdoc": {
    "kind": "user",
    "methods": {
      "withdraw()": {
        "notice": "Function that allows the owner to withdraw all the Ether in the contract The function can only be called by the owner of the contract as defined by the onlyOwner modifier"
      }
    },
    "notice": "A smart contract that allows changing a state variable of the contract and tracking the changes It also allows the owner to withdraw the Ether in the contract",
    "version": 1
  },
  "storageLayout": {
    "storage": [
      {
        "astId": 8,
        "contract": "contracts/FinalBidContract.sol:FinalBidContract",
        "label": "_owner",
        "offset": 0,
        "slot": "0",
        "type": "t_address"
      },
      {
        "astId": 264,
        "contract": "contracts/FinalBidContract.sol:FinalBidContract",
        "label": "_paused",
        "offset": 20,
        "slot": "0",
        "type": "t_bool"
      },
      {
        "astId": 385,
        "contract": "contracts/FinalBidContract.sol:FinalBidContract",
        "label": "tokenAddress",
        "offset": 0,
        "slot": "1",
        "type": "t_address"
      },
      {
        "astId": 387,
        "contract": "contracts/FinalBidContract.sol:FinalBidContract",
        "label": "auctionId",
        "offset": 0,
        "slot": "2",
        "type": "t_uint256"
      },
      {
        "astId": 390,
        "contract": "contracts/FinalBidContract.sol:FinalBidContract",
        "label": "auctionAmount",
        "offset": 0,
        "slot": "3",
        "type": "t_uint256"
      },
      {
        "astId": 393,
        "contract": "contracts/FinalBidContract.sol:FinalBidContract",
        "label": "auctionDuration",
        "offset": 0,
        "slot": "4",
        "type": "t_uint256"
      },
      {
        "astId": 396,
        "contract": "contracts/FinalBidContract.sol:FinalBidContract",
        "label": "auctionDurationIncrease",
        "offset": 0,
        "slot": "5",
        "type": "t_uint256"
      },
      {
        "astId": 399,
        "contract": "contracts/FinalBidContract.sol:FinalBidContract",
        "label": "startingAmount",
        "offset": 0,
        "slot": "6",
        "type": "t_uint256"
      },
      {
        "astId": 402,
        "contract": "contracts/FinalBidContract.sol:FinalBidContract",
        "label": "bidIncrement",
        "offset": 0,
        "slot": "7",
        "type": "t_uint256"
      },
      {
        "astId": 405,
        "contract": "contracts/FinalBidContract.sol:FinalBidContract",
        "label": "referralFee",
        "offset": 0,
        "slot": "8",
        "type": "t_uint256"
      },
      {
        "astId": 408,
        "contract": "contracts/FinalBidContract.sol:FinalBidContract",
        "label": "platformFee",
        "offset": 0,
        "slot": "9",
        "type": "t_uint256"
      },
      {
        "astId": 410,
        "contract": "contracts/FinalBidContract.sol:FinalBidContract",
        "label": "platformFeesCollected",
        "offset": 0,
        "slot": "10",
        "type": "t_uint256"
      },
      {
        "astId": 412,
        "contract": "contracts/FinalBidContract.sol:FinalBidContract",
        "label": "platformFeesClaimed",
        "offset": 0,
        "slot": "11",
        "type": "t_uint256"
      },
      {
        "astId": 414,
        "contract": "contracts/FinalBidContract.sol:FinalBidContract",
        "label": "totalReferralRewardsCollected",
        "offset": 0,
        "slot": "12",
        "type": "t_uint256"
      },
      {
        "astId": 442,
        "contract": "contracts/FinalBidContract.sol:FinalBidContract",
        "label": "auctions",
        "offset": 0,
        "slot": "13",
        "type": "t_mapping(t_uint256,t_struct(Auction)437_storage)"
      }
    ],
    "types": {
      "t_address": {
        "encoding": "inplace",
        "label": "address",
        "numberOfBytes": "20"
      },
      "t_bool": {
        "encoding": "inplace",
        "label": "bool",
        "numberOfBytes": "1"
      },
      "t_mapping(t_uint256,t_struct(Auction)437_storage)": {
        "encoding": "mapping",
        "key": "t_uint256",
        "label": "mapping(uint256 => struct FinalBidContract.Auction)",
        "numberOfBytes": "32",
        "value": "t_struct(Auction)437_storage"
      },
      "t_struct(Auction)437_storage": {
        "encoding": "inplace",
        "label": "struct FinalBidContract.Auction",
        "members": [
          {
            "astId": 416,
            "contract": "contracts/FinalBidContract.sol:FinalBidContract",
            "label": "auctionAmount",
            "offset": 0,
            "slot": "0",
            "type": "t_uint256"
          },
          {
            "astId": 418,
            "contract": "contracts/FinalBidContract.sol:FinalBidContract",
            "label": "startTime",
            "offset": 0,
            "slot": "1",
            "type": "t_uint256"
          },
          {
            "astId": 420,
            "contract": "contracts/FinalBidContract.sol:FinalBidContract",
            "label": "endTime",
            "offset": 0,
            "slot": "2",
            "type": "t_uint256"
          },
          {
            "astId": 422,
            "contract": "contracts/FinalBidContract.sol:FinalBidContract",
            "label": "startingAmount",
            "offset": 0,
            "slot": "3",
            "type": "t_uint256"
          },
          {
            "astId": 424,
            "contract": "contracts/FinalBidContract.sol:FinalBidContract",
            "label": "bidIncrement",
            "offset": 0,
            "slot": "4",
            "type": "t_uint256"
          },
          {
            "astId": 426,
            "contract": "contracts/FinalBidContract.sol:FinalBidContract",
            "label": "referralFee",
            "offset": 0,
            "slot": "5",
            "type": "t_uint256"
          },
          {
            "astId": 428,
            "contract": "contracts/FinalBidContract.sol:FinalBidContract",
            "label": "platformFee",
            "offset": 0,
            "slot": "6",
            "type": "t_uint256"
          },
          {
            "astId": 430,
            "contract": "contracts/FinalBidContract.sol:FinalBidContract",
            "label": "bidCount",
            "offset": 0,
            "slot": "7",
            "type": "t_uint256"
          },
          {
            "astId": 432,
            "contract": "contracts/FinalBidContract.sol:FinalBidContract",
            "label": "highestBidder",
            "offset": 0,
            "slot": "8",
            "type": "t_address"
          },
          {
            "astId": 434,
            "contract": "contracts/FinalBidContract.sol:FinalBidContract",
            "label": "highestBid",
            "offset": 0,
            "slot": "9",
            "type": "t_uint256"
          },
          {
            "astId": 436,
            "contract": "contracts/FinalBidContract.sol:FinalBidContract",
            "label": "ended",
            "offset": 0,
            "slot": "10",
            "type": "t_bool"
          }
        ],
        "numberOfBytes": "352"
      },
      "t_uint256": {
        "encoding": "inplace",
        "label": "uint256",
        "numberOfBytes": "32"
      }
    }
  }
}