{
  "address": "0x18A7C4F71B339Ba396fc31c55314dC2a1fe43bb0",
  "abi": [
    {
      "inputs": [
        {
          "internalType": "address",
          "name": "_owner",
          "type": "address"
        },
        {
          "internalType": "address",
          "name": "_tokenAddress",
          "type": "address"
        }
      ],
      "stateMutability": "nonpayable",
      "type": "constructor"
    },
    {
      "inputs": [],
      "name": "EnforcedPause",
      "type": "error"
    },
    {
      "inputs": [],
      "name": "ExpectedPause",
      "type": "error"
    },
    {
      "inputs": [
        {
          "internalType": "address",
          "name": "owner",
          "type": "address"
        }
      ],
      "name": "OwnableInvalidOwner",
      "type": "error"
    },
    {
      "inputs": [
        {
          "internalType": "address",
          "name": "account",
          "type": "address"
        }
      ],
      "name": "OwnableUnauthorizedAccount",
      "type": "error"
    },
    {
      "anonymous": false,
      "inputs": [
        {
          "indexed": false,
          "internalType": "uint256",
          "name": "oldAmount",
          "type": "uint256"
        },
        {
          "indexed": false,
          "internalType": "uint256",
          "name": "newAmount",
          "type": "uint256"
        }
      ],
      "name": "AuctionAmountUpdated",
      "type": "event"
    },
    {
      "anonymous": false,
      "inputs": [
        {
          "indexed": true,
          "internalType": "uint256",
          "name": "auctionId",
          "type": "uint256"
        },
        {
          "indexed": false,
          "internalType": "uint256",
          "name": "auctionAmount",
          "type": "uint256"
        },
        {
          "indexed": false,
          "internalType": "uint256",
          "name": "startTime",
          "type": "uint256"
        },
        {
          "indexed": false,
          "internalType": "uint256",
          "name": "endTime",
          "type": "uint256"
        },
        {
          "indexed": false,
          "internalType": "uint256",
          "name": "startingAmount",
          "type": "uint256"
        }
      ],
      "name": "AuctionCreated",
      "type": "event"
    },
    {
      "anonymous": false,
      "inputs": [
        {
          "indexed": false,
          "internalType": "uint256",
          "name": "oldIncrease",
          "type": "uint256"
        },
        {
          "indexed": false,
          "internalType": "uint256",
          "name": "newIncrease",
          "type": "uint256"
        }
      ],
      "name": "AuctionDurationIncreaseUpdated",
      "type": "event"
    },
    {
      "anonymous": false,
      "inputs": [
        {
          "indexed": false,
          "internalType": "uint256",
          "name": "oldDuration",
          "type": "uint256"
        },
        {
          "indexed": false,
          "internalType": "uint256",
          "name": "newDuration",
          "type": "uint256"
        }
      ],
      "name": "AuctionDurationUpdated",
      "type": "event"
    },
    {
      "anonymous": false,
      "inputs": [
        {
          "indexed": true,
          "internalType": "uint256",
          "name": "auctionId",
          "type": "uint256"
        },
        {
          "indexed": true,
          "internalType": "address",
          "name": "winner",
          "type": "address"
        },
        {
          "indexed": false,
          "internalType": "uint256",
          "name": "amount",
          "type": "uint256"
        },
        {
          "indexed": false,
          "internalType": "uint256",
          "name": "highestBid",
          "type": "uint256"
        }
      ],
      "name": "AuctionEnded",
      "type": "event"
    },
    {
      "anonymous": false,
      "inputs": [
        {
          "indexed": false,
          "internalType": "uint256",
          "name": "oldAmount",
          "type": "uint256"
        },
        {
          "indexed": false,
          "internalType": "uint256",
          "name": "newAmount",
          "type": "uint256"
        }
      ],
      "name": "BidIncrementUpdated",
      "type": "event"
    },
    {
      "anonymous": false,
      "inputs": [
        {
          "indexed": true,
          "internalType": "uint256",
          "name": "auctionId",
          "type": "uint256"
        },
        {
          "indexed": true,
          "internalType": "address",
          "name": "bidder",
          "type": "address"
        },
        {
          "indexed": false,
          "internalType": "uint256",
          "name": "amount",
          "type": "uint256"
        },
        {
          "indexed": true,
          "internalType": "address",
          "name": "referral",
          "type": "address"
        },
        {
          "indexed": false,
          "internalType": "uint256",
          "name": "endTime",
          "type": "uint256"
        }
      ],
      "name": "BidPlaced",
      "type": "event"
    },
    {
      "anonymous": false,
      "inputs": [
        {
          "indexed": true,
          "internalType": "address",
          "name": "previousOwner",
          "type": "address"
        },
        {
          "indexed": true,
          "internalType": "address",
          "name": "newOwner",
          "type": "address"
        }
      ],
      "name": "OwnershipTransferred",
      "type": "event"
    },
    {
      "anonymous": false,
      "inputs": [
        {
          "indexed": false,
          "internalType": "address",
          "name": "account",
          "type": "address"
        }
      ],
      "name": "Paused",
      "type": "event"
    },
    {
      "anonymous": false,
      "inputs": [
        {
          "indexed": false,
          "internalType": "uint256",
          "name": "oldAmount",
          "type": "uint256"
        },
        {
          "indexed": false,
          "internalType": "uint256",
          "name": "newAmount",
          "type": "uint256"
        }
      ],
      "name": "PlatformFeeUpdated",
      "type": "event"
    },
    {
      "anonymous": false,
      "inputs": [
        {
          "indexed": false,
          "internalType": "uint256",
          "name": "oldAmount",
          "type": "uint256"
        },
        {
          "indexed": false,
          "internalType": "uint256",
          "name": "newAmount",
          "type": "uint256"
        }
      ],
      "name": "ReferralFeeUpdated",
      "type": "event"
    },
    {
      "anonymous": false,
      "inputs": [
        {
          "indexed": false,
          "internalType": "uint256",
          "name": "oldAmount",
          "type": "uint256"
        },
        {
          "indexed": false,
          "internalType": "uint256",
          "name": "newAmount",
          "type": "uint256"
        }
      ],
      "name": "StartingAmountUpdated",
      "type": "event"
    },
    {
      "anonymous": false,
      "inputs": [
        {
          "indexed": false,
          "internalType": "address",
          "name": "account",
          "type": "address"
        }
      ],
      "name": "Unpaused",
      "type": "event"
    },
    {
      "inputs": [],
      "name": "auctionAmount",
      "outputs": [
        {
          "internalType": "uint256",
          "name": "",
          "type": "uint256"
        }
      ],
      "stateMutability": "view",
      "type": "function"
    },
    {
      "inputs": [],
      "name": "auctionDuration",
      "outputs": [
        {
          "internalType": "uint256",
          "name": "",
          "type": "uint256"
        }
      ],
      "stateMutability": "view",
      "type": "function"
    },
    {
      "inputs": [],
      "name": "auctionDurationIncrease",
      "outputs": [
        {
          "internalType": "uint256",
          "name": "",
          "type": "uint256"
        }
      ],
      "stateMutability": "view",
      "type": "function"
    },
    {
      "inputs": [],
      "name": "auctionId",
      "outputs": [
        {
          "internalType": "uint256",
          "name": "",
          "type": "uint256"
        }
      ],
      "stateMutability": "view",
      "type": "function"
    },
    {
      "inputs": [
        {
          "internalType": "uint256",
          "name": "",
          "type": "uint256"
        }
      ],
      "name": "auctions",
      "outputs": [
        {
          "internalType": "uint256",
          "name": "auctionAmount",
          "type": "uint256"
        },
        {
          "internalType": "uint256",
          "name": "startTime",
          "type": "uint256"
        },
        {
          "internalType": "uint256",
          "name": "endTime",
          "type": "uint256"
        },
        {
          "internalType": "uint256",
          "name": "startingAmount",
          "type": "uint256"
        },
        {
          "internalType": "uint256",
          "name": "bidIncrement",
          "type": "uint256"
        },
        {
          "internalType": "uint256",
          "name": "referralFee",
          "type": "uint256"
        },
        {
          "internalType": "uint256",
          "name": "platformFee",
          "type": "uint256"
        },
        {
          "internalType": "uint256",
          "name": "bidCount",
          "type": "uint256"
        },
        {
          "internalType": "address",
          "name": "highestBidder",
          "type": "address"
        },
        {
          "internalType": "uint256",
          "name": "highestBid",
          "type": "uint256"
        },
        {
          "internalType": "bool",
          "name": "ended",
          "type": "bool"
        }
      ],
      "stateMutability": "view",
      "type": "function"
    },
    {
      "inputs": [],
      "name": "bidIncrement",
      "outputs": [
        {
          "internalType": "uint256",
          "name": "",
          "type": "uint256"
        }
      ],
      "stateMutability": "view",
      "type": "function"
    },
    {
      "inputs": [],
      "name": "owner",
      "outputs": [
        {
          "internalType": "address",
          "name": "",
          "type": "address"
        }
      ],
      "stateMutability": "view",
      "type": "function"
    },
    {
      "inputs": [],
      "name": "pause",
      "outputs": [],
      "stateMutability": "nonpayable",
      "type": "function"
    },
    {
      "inputs": [],
      "name": "paused",
      "outputs": [
        {
          "internalType": "bool",
          "name": "",
          "type": "bool"
        }
      ],
      "stateMutability": "view",
      "type": "function"
    },
    {
      "inputs": [
        {
          "internalType": "address",
          "name": "_referral",
          "type": "address"
        }
      ],
      "name": "placeBid",
      "outputs": [],
      "stateMutability": "nonpayable",
      "type": "function"
    },
    {
      "inputs": [],
      "name": "platformFee",
      "outputs": [
        {
          "internalType": "uint256",
          "name": "",
          "type": "uint256"
        }
      ],
      "stateMutability": "view",
      "type": "function"
    },
    {
      "inputs": [],
      "name": "platformFeesClaimed",
      "outputs": [
        {
          "internalType": "uint256",
          "name": "",
          "type": "uint256"
        }
      ],
      "stateMutability": "view",
      "type": "function"
    },
    {
      "inputs": [],
      "name": "platformFeesCollected",
      "outputs": [
        {
          "internalType": "uint256",
          "name": "",
          "type": "uint256"
        }
      ],
      "stateMutability": "view",
      "type": "function"
    },
    {
      "inputs": [],
      "name": "referralFee",
      "outputs": [
        {
          "internalType": "uint256",
          "name": "",
          "type": "uint256"
        }
      ],
      "stateMutability": "view",
      "type": "function"
    },
    {
      "inputs": [],
      "name": "renounceOwnership",
      "outputs": [],
      "stateMutability": "nonpayable",
      "type": "function"
    },
    {
      "inputs": [
        {
          "internalType": "uint256",
          "name": "_auctionAmount",
          "type": "uint256"
        }
      ],
      "name": "setAuctionAmount",
      "outputs": [],
      "stateMutability": "nonpayable",
      "type": "function"
    },
    {
      "inputs": [
        {
          "internalType": "uint256",
          "name": "_auctionDuration",
          "type": "uint256"
        }
      ],
      "name": "setAuctionDuration",
      "outputs": [],
      "stateMutability": "nonpayable",
      "type": "function"
    },
    {
      "inputs": [
        {
          "internalType": "uint256",
          "name": "_auctionDurationIncrease",
          "type": "uint256"
        }
      ],
      "name": "setAuctionDurationIncrease",
      "outputs": [],
      "stateMutability": "nonpayable",
      "type": "function"
    },
    {
      "inputs": [
        {
          "internalType": "uint256",
          "name": "_bidIncrement",
          "type": "uint256"
        }
      ],
      "name": "setBidIncrement",
      "outputs": [],
      "stateMutability": "nonpayable",
      "type": "function"
    },
    {
      "inputs": [
        {
          "internalType": "uint256",
          "name": "_platformFee",
          "type": "uint256"
        }
      ],
      "name": "setPlatformFee",
      "outputs": [],
      "stateMutability": "nonpayable",
      "type": "function"
    },
    {
      "inputs": [
        {
          "internalType": "uint256",
          "name": "_referralFee",
          "type": "uint256"
        }
      ],
      "name": "setReferralFee",
      "outputs": [],
      "stateMutability": "nonpayable",
      "type": "function"
    },
    {
      "inputs": [
        {
          "internalType": "uint256",
          "name": "_startingAmount",
          "type": "uint256"
        }
      ],
      "name": "setStartingAmount",
      "outputs": [],
      "stateMutability": "nonpayable",
      "type": "function"
    },
    {
      "inputs": [],
      "name": "startAuction",
      "outputs": [],
      "stateMutability": "nonpayable",
      "type": "function"
    },
    {
      "inputs": [],
      "name": "startingAmount",
      "outputs": [
        {
          "internalType": "uint256",
          "name": "",
          "type": "uint256"
        }
      ],
      "stateMutability": "view",
      "type": "function"
    },
    {
      "inputs": [],
      "name": "tokenAddress",
      "outputs": [
        {
          "internalType": "address",
          "name": "",
          "type": "address"
        }
      ],
      "stateMutability": "view",
      "type": "function"
    },
    {
      "inputs": [],
      "name": "totalReferralRewardsCollected",
      "outputs": [
        {
          "internalType": "uint256",
          "name": "",
          "type": "uint256"
        }
      ],
      "stateMutability": "view",
      "type": "function"
    },
    {
      "inputs": [
        {
          "internalType": "address",
          "name": "newOwner",
          "type": "address"
        }
      ],
      "name": "transferOwnership",
      "outputs": [],
      "stateMutability": "nonpayable",
      "type": "function"
    },
    {
      "inputs": [],
      "name": "unpause",
      "outputs": [],
      "stateMutability": "nonpayable",
      "type": "function"
    },
    {
      "inputs": [],
      "name": "withdraw",
      "outputs": [],
      "stateMutability": "nonpayable",
      "type": "function"
    },
    {
      "inputs": [],
      "name": "withdrawPlatformFees",
      "outputs": [],
      "stateMutability": "nonpayable",
      "type": "function"
    },
    {
      "stateMutability": "payable",
      "type": "receive"
    }
  ],
  "transactionHash": "0xba4a3d29816122e3a1d8c8080bbca5baba3472db1b9e286296b44a2212af2606",
  "args": [
    "0xE20968f84A535be7d7a97d3a1a5760d89D6c4Ce0",
    "0xcE295748B9CaCAE371b860E57C58A61F310ebD0F"
  ],
  "numDeployments": 5,
  "solcInputHash": "6e2fc7cd02c63a4f3356cbca7a51e3f4",
  "bytecode": "0x60806040526305f5e100600355610258600455603c600555620f42406006556203d0906007556203d090600855620f42406009553480156200004057600080fd5b5060405162001daf38038062001daf833981016040819052620000639162000140565b816001600160a01b0381166200009357604051631e4fbdf760e01b81526000600482015260240160405180910390fd5b6200009e81620000d3565b506000805460ff60a01b19169055600180546001600160a01b0319166001600160a01b03929092169190911790555062000178565b600080546001600160a01b038381166001600160a01b0319831681178455604051919092169283917f8be0079c531659141344cd1fd0a4f28419497f9722a3daafe3b4186f6b6457e09190a35050565b80516001600160a01b03811681146200013b57600080fd5b919050565b600080604083850312156200015457600080fd5b6200015f8362000123565b91506200016f6020840162000123565b90509250929050565b611c2780620001886000396000f3fe6080604052600436106101d15760003560e01c80638456cb59116100f7578063b36ffca611610095578063d0b7830b11610064578063d0b7830b14610572578063dcb5747b14610587578063e49401571461059d578063f2fde38b146105bd57600080fd5b8063b36ffca614610510578063b3cc167a14610526578063bcf952901461053c578063caadca2a1461055257600080fd5b80639d76ea58116100d15780639d76ea581461049a578063a497e674146104ba578063a76d13cd146104da578063ae84925d146104f057600080fd5b80638456cb591461043d57806384ae2bc6146104525780638da5cb5b1461046857600080fd5b8063544f113b1161016f5780636b64c7691161013e5780636b64c769146103d3578063713494d7146103e8578063715018a6146104085780637b850da91461041d57600080fd5b8063544f113b14610294578063571a26a0146102aa5780635c975abb146103895780635e56974a146103b357600080fd5b80631502f8d5116101ab5780631502f8d51461023e57806326232a2e146102545780633ccfd60b1461026a5780633f4ba83a1461027f57600080fd5b80630cbf54c8146101dd57806310782f8f1461020657806312e8e2c31461021c57600080fd5b366101d857005b600080fd5b3480156101e957600080fd5b506101f360045481565b6040519081526020015b60405180910390f35b34801561021257600080fd5b506101f360025481565b34801561022857600080fd5b5061023c610237366004611a94565b6105dd565b005b34801561024a57600080fd5b506101f3600b5481565b34801561026057600080fd5b506101f360095481565b34801561027657600080fd5b5061023c6106b3565b34801561028b57600080fd5b5061023c610758565b3480156102a057600080fd5b506101f360065481565b3480156102b657600080fd5b5061032b6102c5366004611a94565b600d60205260009081526040902080546001820154600283015460038401546004850154600586015460068701546007880154600889015460098a0154600a909a0154989997989697959694959394929391926001600160a01b03909116919060ff168b565b604080519b8c5260208c019a909a52988a01979097526060890195909552608088019390935260a087019190915260c086015260e08501526001600160a01b03166101008401526101208301521515610140820152610160016101fd565b34801561039557600080fd5b50600054600160a01b900460ff1660405190151581526020016101fd565b3480156103bf57600080fd5b5061023c6103ce366004611a94565b61076a565b3480156103df57600080fd5b5061023c610800565b3480156103f457600080fd5b5061023c610403366004611a94565b610903565b34801561041457600080fd5b5061023c61096b565b34801561042957600080fd5b5061023c610438366004611a94565b61097d565b34801561044957600080fd5b5061023c610a13565b34801561045e57600080fd5b506101f360085481565b34801561047457600080fd5b506000546001600160a01b03165b6040516001600160a01b0390911681526020016101fd565b3480156104a657600080fd5b50600154610482906001600160a01b031681565b3480156104c657600080fd5b5061023c6104d5366004611a94565b610a23565b3480156104e657600080fd5b506101f3600c5481565b3480156104fc57600080fd5b5061023c61050b366004611a94565b610ab9565b34801561051c57600080fd5b506101f3600a5481565b34801561053257600080fd5b506101f360075481565b34801561054857600080fd5b506101f360055481565b34801561055e57600080fd5b5061023c61056d366004611a94565b610b4f565b34801561057e57600080fd5b5061023c610b95565b34801561059357600080fd5b506101f360035481565b3480156105a957600080fd5b5061023c6105b8366004611aad565b610cb4565b3480156105c957600080fd5b5061023c6105d8366004611aad565b61124e565b6105e5611289565b6000811161063a5760405162461bcd60e51b815260206004820152601760248201527f706c6174666f726d466565206d757374206265203e203000000000000000000060448201526064015b60405180910390fd5b80600854111561065c5760405162461bcd60e51b815260040161063190611add565b6009805490829055600854821015610675576009546008555b60408051828152602081018490527fd347e206f25a89b917fc9482f1a2d294d749baa4dc9bde7fb495ee11fe49164391015b60405180910390a15050565b6106bb611289565b600080546040516001600160a01b039091169047908381818185875af1925050503d8060008114610708576040519150601f19603f3d011682016040523d82523d6000602084013e61070d565b606091505b50509050806107555760405162461bcd60e51b81526020600482015260146024820152732330b4b632b2103a379039b2b7321022ba3432b960611b6044820152606401610631565b50565b610760611289565b6107686112b6565b565b610772611289565b600081116107c25760405162461bcd60e51b815260206004820152601a60248201527f7374617274696e67416d6f756e74206d757374206265203e20300000000000006044820152606401610631565b600680549082905560408051828152602081018490527f4ccb4817dce85ff59507ca2c693ef8fdd6354419e5ed2a6ef9496d979d98e9da91016106a7565b61080861130b565b6002546000818152600d602052604090209015806108295750428160020154105b8061083957508054600982015410155b61087e5760405162461bcd60e51b815260206004820152601660248201527541756374696f6e20616c72656164792061637469766560501b6044820152606401610631565b60006002541180156108a557506002546000908152600d60205260409020600a015460ff16155b156108b5576108b5600254611336565b600280549060006108c583611b38565b909155505060025460015460035460045461075593926001600160a01b0316919042906108f29082611b51565b60065460075460085460095461153b565b61090b611289565b60095481111561092d5760405162461bcd60e51b815260040161063190611add565b600880549082905560408051828152602081018490527fe6a16ded5057640d8831f18cd4885a75642c76b3fde5215975c3d9735027fa2091016106a7565b610973611289565b6107686000611872565b610985611289565b600081116109d55760405162461bcd60e51b815260206004820152601860248201527f626964496e6372656d656e74206d757374206265203e203000000000000000006044820152606401610631565b600780549082905560408051828152602081018490527fde7c4e4290bb6d88f94b00d24ffd00ffcb6b828adb0e8a72e85ad21d85baaaeb91016106a7565b610a1b611289565b6107686118c2565b610a2b611289565b60008111610a7b5760405162461bcd60e51b815260206004820152601b60248201527f61756374696f6e4475726174696f6e206d757374206265203e203000000000006044820152606401610631565b600480549082905560408051828152602081018490527f9702db1e67fa6b64b8288101859f3b327a978f15d66e12ad769e5bbf30814d2891016106a7565b610ac1611289565b60008111610b115760405162461bcd60e51b815260206004820152601960248201527f61756374696f6e416d6f756e74206d757374206265203e2030000000000000006044820152606401610631565b600380549082905560408051828152602081018490527f2f3a4f733ff4215b09dcc7fbf1a6ba7865195aa6f96655899c3dbb358a0eb72891016106a7565b610b57611289565b600580549082905560408051828152602081018490527fa0c8ba418e7f434a532cdc1be7da4ac9ca7e416e31946164f008fd1d7f79772f91016106a7565b610b9d611289565b600b54600a5411610be35760405162461bcd60e51b815260206004820152601060248201526f4e6f206665657320746f20636c61696d60801b6044820152606401610631565b600154600b54600a546001600160a01b0390921691600091610c0491611b6a565b9050816001600160a01b031663a9059cbb610c276000546001600160a01b031690565b6040516001600160e01b031960e084901b1681526001600160a01b039091166004820152602481018490526044016020604051808303816000875af1158015610c74573d6000803e3d6000fd5b505050506040513d601f19601f82011682018060405250810190610c989190611b7d565b5080600b6000828254610cab9190611b51565b90915550505050565b610cbc61130b565b6002546000908152600d6020526040902060018101544210801590610ce45750428160020154115b8015610cf55750600a81015460ff16155b610d365760405162461bcd60e51b815260206004820152601260248201527141756374696f6e206e6f742061637469766560701b6044820152606401610631565b6008810154336001600160a01b0390911603610d9f5760405162461bcd60e51b815260206004820152602260248201527f596f752061726520616c7265616479207468652068696768657374206269646460448201526132b960f11b6064820152608401610631565b60008160090154600014610dc65781600401548260090154610dc19190611b51565b610dcc565b81600301545b9050600060095482610dde9190611b51565b6001546040516370a0823160e01b81523360048201529192506001600160a01b03169060009082906370a0823190602401602060405180830381865afa158015610e2c573d6000803e3d6000fd5b505050506040513d601f19601f82011682018060405250810190610e509190611b9f565b905082811015610e995760405162461bcd60e51b8152602060048201526014602482015273496e73756666696369656e742062616c616e636560601b6044820152606401610631565b604051636eb1769f60e11b81523360048201523060248201526000906001600160a01b0384169063dd62ed3e90604401602060405180830381865afa158015610ee6573d6000803e3d6000fd5b505050506040513d601f19601f82011682018060405250810190610f0a9190611b9f565b905083811015610f555760405162461bcd60e51b8152602060048201526016602482015275496e73756666696369656e7420616c6c6f77616e636560501b6044820152606401610631565b6040516323b872dd60e01b8152336004820152306024820152604481018590526001600160a01b038416906323b872dd906064016020604051808303816000875af1158015610fa8573d6000803e3d6000fd5b505050506040513d601f19601f82011682018060405250810190610fcc9190611b7d565b5060088601546001600160a01b031615611061576008860154600987015460405163a9059cbb60e01b81526001600160a01b03928316600482015260248101919091529084169063a9059cbb906044016020604051808303816000875af115801561103b573d6000803e3d6000fd5b505050506040513d601f19601f8201168201806040525081019061105f9190611b7d565b505b6008860180546001600160a01b031916331790556009860185905560078601805490600061108e83611b38565b9091555050336001600160a01b038816036110a857600096505b6001600160a01b03871615611175576008546009546110c79190611b6a565b600a60008282546110d89190611b51565b9091555050600854600c80546000906110f2908490611b51565b909155505060085460405163a9059cbb60e01b81526001600160a01b03898116600483015260248201929092529084169063a9059cbb906044016020604051808303816000875af115801561114b573d6000803e3d6000fd5b505050506040513d601f19601f8201168201806040525081019061116f9190611b7d565b5061118f565b600954600a60008282546111899190611b51565b90915550505b6005544287600201546111a29190611b6a565b1080156111b3575085546009870154105b156111d4576005548660020160008282546111ce9190611b51565b90915550505b866001600160a01b0316336001600160a01b03166002547f2e296671c28b83e813c76e2acf7481f5a2cc46aaeb9bcf33b3e048f50e9c33e9888a60020154604051611229929190918252602082015260400190565b60405180910390a4855460098701541061124557611245610800565b50505050505050565b611256611289565b6001600160a01b03811661128057604051631e4fbdf760e01b815260006004820152602401610631565b61075581611872565b6000546001600160a01b031633146107685760405163118cdaa760e01b8152336004820152602401610631565b6112be611905565b6000805460ff60a01b191690557f5db9ee0a495bf2e6ff9c91a7834c1ba4fdd244a5e8aa4e537bd38aeae4b073aa335b6040516001600160a01b03909116815260200160405180910390a1565b600054600160a01b900460ff16156107685760405163d93c066560e01b815260040160405180910390fd5b6000818152600d60205260409020811580159061135557506002548211155b6113955760405162461bcd60e51b8152602060048201526011602482015270105d58dd1a5bdb881b9bdd08199bdd5b99607a1b6044820152606401610631565b600a81015460ff16156113e25760405162461bcd60e51b8152602060048201526015602482015274105d58dd1a5bdb88185b1c9958591e48195b991959605a1b6044820152606401610631565b42816002015410806113f957508054600982015410155b6114395760405162461bcd60e51b8152602060048201526011602482015270105d58dd1a5bdb881b9bdd08195b991959607a1b6044820152606401610631565b600a8101805460ff1916600117905560088101546001600160a01b0316156114de576001546008820154825460405163a9059cbb60e01b81526001600160a01b0392831660048201526024810191909152911690819063a9059cbb906044016020604051808303816000875af11580156114b7573d6000803e3d6000fd5b505050506040513d601f19601f820116820180604052508101906114db9190611b7d565b50505b6008810154815460098301546040516001600160a01b039093169285927fe9ba83469fc8ee4260dd274fd43b5a54f2df813ad21c4637d53084d1f3866b379261152f92918252602082015260400190565b60405180910390a35050565b6040516370a0823160e01b81523060048201526000906001600160a01b038a16906370a0823190602401602060405180830381865afa158015611582573d6000803e3d6000fd5b505050506040513d601f19601f820116820180604052508101906115a69190611b9f565b90506000600b54600a54116115bc5760006115cc565b600b54600a546115cc9190611b6a565b90506115d88587611b51565b82116116345760405162461bcd60e51b815260206004820152602560248201527f496e73756666696369656e742062616c616e636520746f20737461727420617560448201526431ba34b7b760d91b6064820152608401610631565b60008983116116435782611645565b895b90506116518284611b6a565b811115611683576116628284611b6a565b61166c9082611b6a565b600b600082825461167d9190611b51565b90915550505b6002611690826003611bb8565b61169a9190611bcf565b8311156116f35760006002806116b1846003611bb8565b6116bb9190611bcf565b6116c59086611b6a565b6116cf9190611bcf565b90506116dc600282611bcf565b6116e69083611b51565b91506116f18161192f565b505b6040518061016001604052808281526020018a81526020018981526020018881526020018781526020018681526020018581526020016000815260200160006001600160a01b031681526020016000815260200160001515815250600d60008e8152602001908152602001600020600082015181600001556020820151816001015560408201518160020155606082015181600301556080820151816004015560a0820151816005015560c0820151816006015560e082015181600701556101008201518160080160006101000a8154816001600160a01b0302191690836001600160a01b03160217905550610120820151816009015561014082015181600a0160006101000a81548160ff0219169083151502179055509050506002547f8867cbc05eea5a895d1a2e08b969e1284f9aa3f38535dacee9b49baa35c61da7828b8b8b60405161185c949392919093845260208401929092526040830152606082015260800190565b60405180910390a2505050505050505050505050565b600080546001600160a01b038381166001600160a01b0319831681178455604051919092169283917f8be0079c531659141344cd1fd0a4f28419497f9722a3daafe3b4186f6b6457e09190a35050565b6118ca61130b565b6000805460ff60a01b1916600160a01b1790557f62e78cea01bee320cd4e420270b5ea74000d11b0c9f74754ebdbfc544b05a2586112ee3390565b600054600160a01b900460ff1661076857604051638dfc202b60e01b815260040160405180910390fd5b6001546040516370a0823160e01b81523060048201526000916001600160a01b0316906370a0823190602401602060405180830381865afa158015611978573d6000803e3d6000fd5b505050506040513d601f19601f8201168201806040525081019061199c9190611b9f565b90508181116119ed5760405162461bcd60e51b815260206004820181905260248201527f496e73756666696369656e742062616c616e636520746f2077697468647261776044820152606401610631565b6001546001600160a01b031663a9059cbb611a106000546001600160a01b031690565b6040516001600160e01b031960e084901b1681526001600160a01b039091166004820152602481018590526044016020604051808303816000875af1158015611a5d573d6000803e3d6000fd5b505050506040513d601f19601f82011682018060405250810190611a819190611b7d565b5081600b6000828254610cab9190611b51565b600060208284031215611aa657600080fd5b5035919050565b600060208284031215611abf57600080fd5b81356001600160a01b0381168114611ad657600080fd5b9392505050565b60208082526025908201527f726566657272616c4665652063616e6e6f742065786365656420706c6174666f604082015264726d46656560d81b606082015260800190565b634e487b7160e01b600052601160045260246000fd5b600060018201611b4a57611b4a611b22565b5060010190565b80820180821115611b6457611b64611b22565b92915050565b81810381811115611b6457611b64611b22565b600060208284031215611b8f57600080fd5b81518015158114611ad657600080fd5b600060208284031215611bb157600080fd5b5051919050565b8082028115828204841417611b6457611b64611b22565b600082611bec57634e487b7160e01b600052601260045260246000fd5b50049056fea26469706673582212206c0d3d288b9f27c1572d92142253fbfaac88393303e1707aa78ffb4aed71d58f64736f6c63430008140033",
  "devdoc": {
    "author": "BuidlGuidl",
    "errors": {
      "EnforcedPause()": [
        {
          "details": "The operation failed because the contract is paused."
        }
      ],
      "ExpectedPause()": [
        {
          "details": "The operation failed because the contract is not paused."
        }
      ],
      "OwnableInvalidOwner(address)": [
        {
          "details": "The owner is not a valid owner account. (eg. `address(0)`)"
        }
      ],
      "OwnableUnauthorizedAccount(address)": [
        {
          "details": "The caller account is not authorized to perform an operation."
        }
      ]
    },
    "events": {
      "Paused(address)": {
        "details": "Emitted when the pause is triggered by `account`."
      },
      "Unpaused(address)": {
        "details": "Emitted when the pause is lifted by `account`."
      }
    },
    "kind": "dev",
    "methods": {
      "owner()": {
        "details": "Returns the address of the current owner."
      },
      "paused()": {
        "details": "Returns true if the contract is paused, and false otherwise."
      },
      "renounceOwnership()": {
        "details": "Leaves the contract without owner. It will not be possible to call `onlyOwner` functions. Can only be called by the current owner. NOTE: Renouncing ownership will leave the contract without an owner, thereby disabling any functionality that is only available to the owner."
      },
      "transferOwnership(address)": {
        "details": "Transfers ownership of the contract to a new account (`newOwner`). Can only be called by the current owner."
      }
    },
    "version": 1
  },
  "userdoc": {
    "kind": "user",
    "methods": {
      "withdraw()": {
        "notice": "Function that allows the owner to withdraw all the Ether in the contract The function can only be called by the owner of the contract as defined by the onlyOwner modifier"
      }
    },
    "notice": "A smart contract that allows changing a state variable of the contract and tracking the changes It also allows the owner to withdraw the Ether in the contract",
    "version": 1
  },
  "storageLayout": {
    "storage": [
      {
        "astId": 8,
        "contract": "contracts/FinalBidContract.sol:FinalBidContract",
        "label": "_owner",
        "offset": 0,
        "slot": "0",
        "type": "t_address"
      },
      {
        "astId": 264,
        "contract": "contracts/FinalBidContract.sol:FinalBidContract",
        "label": "_paused",
        "offset": 20,
        "slot": "0",
        "type": "t_bool"
      },
      {
        "astId": 385,
        "contract": "contracts/FinalBidContract.sol:FinalBidContract",
        "label": "tokenAddress",
        "offset": 0,
        "slot": "1",
        "type": "t_address"
      },
      {
        "astId": 387,
        "contract": "contracts/FinalBidContract.sol:FinalBidContract",
        "label": "auctionId",
        "offset": 0,
        "slot": "2",
        "type": "t_uint256"
      },
      {
        "astId": 390,
        "contract": "contracts/FinalBidContract.sol:FinalBidContract",
        "label": "auctionAmount",
        "offset": 0,
        "slot": "3",
        "type": "t_uint256"
      },
      {
        "astId": 393,
        "contract": "contracts/FinalBidContract.sol:FinalBidContract",
        "label": "auctionDuration",
        "offset": 0,
        "slot": "4",
        "type": "t_uint256"
      },
      {
        "astId": 396,
        "contract": "contracts/FinalBidContract.sol:FinalBidContract",
        "label": "auctionDurationIncrease",
        "offset": 0,
        "slot": "5",
        "type": "t_uint256"
      },
      {
        "astId": 399,
        "contract": "contracts/FinalBidContract.sol:FinalBidContract",
        "label": "startingAmount",
        "offset": 0,
        "slot": "6",
        "type": "t_uint256"
      },
      {
        "astId": 402,
        "contract": "contracts/FinalBidContract.sol:FinalBidContract",
        "label": "bidIncrement",
        "offset": 0,
        "slot": "7",
        "type": "t_uint256"
      },
      {
        "astId": 405,
        "contract": "contracts/FinalBidContract.sol:FinalBidContract",
        "label": "referralFee",
        "offset": 0,
        "slot": "8",
        "type": "t_uint256"
      },
      {
        "astId": 408,
        "contract": "contracts/FinalBidContract.sol:FinalBidContract",
        "label": "platformFee",
        "offset": 0,
        "slot": "9",
        "type": "t_uint256"
      },
      {
        "astId": 410,
        "contract": "contracts/FinalBidContract.sol:FinalBidContract",
        "label": "platformFeesCollected",
        "offset": 0,
        "slot": "10",
        "type": "t_uint256"
      },
      {
        "astId": 412,
        "contract": "contracts/FinalBidContract.sol:FinalBidContract",
        "label": "platformFeesClaimed",
        "offset": 0,
        "slot": "11",
        "type": "t_uint256"
      },
      {
        "astId": 414,
        "contract": "contracts/FinalBidContract.sol:FinalBidContract",
        "label": "totalReferralRewardsCollected",
        "offset": 0,
        "slot": "12",
        "type": "t_uint256"
      },
      {
        "astId": 442,
        "contract": "contracts/FinalBidContract.sol:FinalBidContract",
        "label": "auctions",
        "offset": 0,
        "slot": "13",
        "type": "t_mapping(t_uint256,t_struct(Auction)437_storage)"
      }
    ],
    "types": {
      "t_address": {
        "encoding": "inplace",
        "label": "address",
        "numberOfBytes": "20"
      },
      "t_bool": {
        "encoding": "inplace",
        "label": "bool",
        "numberOfBytes": "1"
      },
      "t_mapping(t_uint256,t_struct(Auction)437_storage)": {
        "encoding": "mapping",
        "key": "t_uint256",
        "label": "mapping(uint256 => struct FinalBidContract.Auction)",
        "numberOfBytes": "32",
        "value": "t_struct(Auction)437_storage"
      },
      "t_struct(Auction)437_storage": {
        "encoding": "inplace",
        "label": "struct FinalBidContract.Auction",
        "members": [
          {
            "astId": 416,
            "contract": "contracts/FinalBidContract.sol:FinalBidContract",
            "label": "auctionAmount",
            "offset": 0,
            "slot": "0",
            "type": "t_uint256"
          },
          {
            "astId": 418,
            "contract": "contracts/FinalBidContract.sol:FinalBidContract",
            "label": "startTime",
            "offset": 0,
            "slot": "1",
            "type": "t_uint256"
          },
          {
            "astId": 420,
            "contract": "contracts/FinalBidContract.sol:FinalBidContract",
            "label": "endTime",
            "offset": 0,
            "slot": "2",
            "type": "t_uint256"
          },
          {
            "astId": 422,
            "contract": "contracts/FinalBidContract.sol:FinalBidContract",
            "label": "startingAmount",
            "offset": 0,
            "slot": "3",
            "type": "t_uint256"
          },
          {
            "astId": 424,
            "contract": "contracts/FinalBidContract.sol:FinalBidContract",
            "label": "bidIncrement",
            "offset": 0,
            "slot": "4",
            "type": "t_uint256"
          },
          {
            "astId": 426,
            "contract": "contracts/FinalBidContract.sol:FinalBidContract",
            "label": "referralFee",
            "offset": 0,
            "slot": "5",
            "type": "t_uint256"
          },
          {
            "astId": 428,
            "contract": "contracts/FinalBidContract.sol:FinalBidContract",
            "label": "platformFee",
            "offset": 0,
            "slot": "6",
            "type": "t_uint256"
          },
          {
            "astId": 430,
            "contract": "contracts/FinalBidContract.sol:FinalBidContract",
            "label": "bidCount",
            "offset": 0,
            "slot": "7",
            "type": "t_uint256"
          },
          {
            "astId": 432,
            "contract": "contracts/FinalBidContract.sol:FinalBidContract",
            "label": "highestBidder",
            "offset": 0,
            "slot": "8",
            "type": "t_address"
          },
          {
            "astId": 434,
            "contract": "contracts/FinalBidContract.sol:FinalBidContract",
            "label": "highestBid",
            "offset": 0,
            "slot": "9",
            "type": "t_uint256"
          },
          {
            "astId": 436,
            "contract": "contracts/FinalBidContract.sol:FinalBidContract",
            "label": "ended",
            "offset": 0,
            "slot": "10",
            "type": "t_bool"
          }
        ],
        "numberOfBytes": "352"
      },
      "t_uint256": {
        "encoding": "inplace",
        "label": "uint256",
        "numberOfBytes": "32"
      }
    }
  }
}