{
  "address": "0xB22bCFcFC96fc0787b07d92D468A2da8ee841Fb2",
  "abi": [
    {
      "inputs": [
        {
          "internalType": "address",
          "name": "_owner",
          "type": "address"
        },
        {
          "internalType": "address",
          "name": "_tokenAddress",
          "type": "address"
        }
      ],
      "stateMutability": "nonpayable",
      "type": "constructor"
    },
    {
      "inputs": [
        {
          "internalType": "address",
          "name": "target",
          "type": "address"
        }
      ],
      "name": "AddressEmptyCode",
      "type": "error"
    },
    {
      "inputs": [
        {
          "internalType": "address",
          "name": "account",
          "type": "address"
        }
      ],
      "name": "AddressInsufficientBalance",
      "type": "error"
    },
    {
      "inputs": [],
      "name": "EnforcedPause",
      "type": "error"
    },
    {
      "inputs": [],
      "name": "ExpectedPause",
      "type": "error"
    },
    {
      "inputs": [],
      "name": "FailedInnerCall",
      "type": "error"
    },
    {
      "inputs": [
        {
          "internalType": "address",
          "name": "owner",
          "type": "address"
        }
      ],
      "name": "OwnableInvalidOwner",
      "type": "error"
    },
    {
      "inputs": [
        {
          "internalType": "address",
          "name": "account",
          "type": "address"
        }
      ],
      "name": "OwnableUnauthorizedAccount",
      "type": "error"
    },
    {
      "inputs": [],
      "name": "ReentrancyGuardReentrantCall",
      "type": "error"
    },
    {
      "inputs": [
        {
          "internalType": "address",
          "name": "token",
          "type": "address"
        }
      ],
      "name": "SafeERC20FailedOperation",
      "type": "error"
    },
    {
      "anonymous": false,
      "inputs": [
        {
          "indexed": false,
          "internalType": "uint256",
          "name": "oldAmount",
          "type": "uint256"
        },
        {
          "indexed": false,
          "internalType": "uint256",
          "name": "newAmount",
          "type": "uint256"
        }
      ],
      "name": "AuctionAmountUpdated",
      "type": "event"
    },
    {
      "anonymous": false,
      "inputs": [
        {
          "indexed": true,
          "internalType": "uint256",
          "name": "auctionId",
          "type": "uint256"
        },
        {
          "indexed": false,
          "internalType": "uint256",
          "name": "auctionAmount",
          "type": "uint256"
        },
        {
          "indexed": false,
          "internalType": "uint256",
          "name": "startTime",
          "type": "uint256"
        },
        {
          "indexed": false,
          "internalType": "uint256",
          "name": "endTime",
          "type": "uint256"
        },
        {
          "indexed": false,
          "internalType": "uint256",
          "name": "startingAmount",
          "type": "uint256"
        },
        {
          "indexed": false,
          "internalType": "uint256",
          "name": "bidIncrement",
          "type": "uint256"
        },
        {
          "indexed": false,
          "internalType": "uint256",
          "name": "referralFee",
          "type": "uint256"
        },
        {
          "indexed": false,
          "internalType": "uint256",
          "name": "platformFee",
          "type": "uint256"
        }
      ],
      "name": "AuctionCreated",
      "type": "event"
    },
    {
      "anonymous": false,
      "inputs": [
        {
          "indexed": false,
          "internalType": "uint256",
          "name": "oldIncrease",
          "type": "uint256"
        },
        {
          "indexed": false,
          "internalType": "uint256",
          "name": "newIncrease",
          "type": "uint256"
        }
      ],
      "name": "AuctionDurationIncreaseUpdated",
      "type": "event"
    },
    {
      "anonymous": false,
      "inputs": [
        {
          "indexed": false,
          "internalType": "uint256",
          "name": "oldDuration",
          "type": "uint256"
        },
        {
          "indexed": false,
          "internalType": "uint256",
          "name": "newDuration",
          "type": "uint256"
        }
      ],
      "name": "AuctionDurationUpdated",
      "type": "event"
    },
    {
      "anonymous": false,
      "inputs": [
        {
          "indexed": true,
          "internalType": "uint256",
          "name": "auctionId",
          "type": "uint256"
        },
        {
          "indexed": true,
          "internalType": "address",
          "name": "winner",
          "type": "address"
        },
        {
          "indexed": false,
          "internalType": "uint256",
          "name": "amount",
          "type": "uint256"
        },
        {
          "indexed": false,
          "internalType": "uint256",
          "name": "highestBid",
          "type": "uint256"
        }
      ],
      "name": "AuctionEnded",
      "type": "event"
    },
    {
      "anonymous": false,
      "inputs": [
        {
          "indexed": false,
          "internalType": "uint256",
          "name": "oldAmount",
          "type": "uint256"
        },
        {
          "indexed": false,
          "internalType": "uint256",
          "name": "newAmount",
          "type": "uint256"
        }
      ],
      "name": "BidIncrementUpdated",
      "type": "event"
    },
    {
      "anonymous": false,
      "inputs": [
        {
          "indexed": true,
          "internalType": "uint256",
          "name": "auctionId",
          "type": "uint256"
        },
        {
          "indexed": true,
          "internalType": "address",
          "name": "bidder",
          "type": "address"
        },
        {
          "indexed": false,
          "internalType": "uint256",
          "name": "amount",
          "type": "uint256"
        },
        {
          "indexed": true,
          "internalType": "address",
          "name": "referral",
          "type": "address"
        },
        {
          "indexed": false,
          "internalType": "uint256",
          "name": "endTime",
          "type": "uint256"
        }
      ],
      "name": "BidPlaced",
      "type": "event"
    },
    {
      "anonymous": false,
      "inputs": [
        {
          "indexed": true,
          "internalType": "address",
          "name": "previousOwner",
          "type": "address"
        },
        {
          "indexed": true,
          "internalType": "address",
          "name": "newOwner",
          "type": "address"
        }
      ],
      "name": "OwnershipTransferred",
      "type": "event"
    },
    {
      "anonymous": false,
      "inputs": [
        {
          "indexed": false,
          "internalType": "address",
          "name": "account",
          "type": "address"
        }
      ],
      "name": "Paused",
      "type": "event"
    },
    {
      "anonymous": false,
      "inputs": [
        {
          "indexed": false,
          "internalType": "uint256",
          "name": "oldAmount",
          "type": "uint256"
        },
        {
          "indexed": false,
          "internalType": "uint256",
          "name": "newAmount",
          "type": "uint256"
        }
      ],
      "name": "PlatformFeeUpdated",
      "type": "event"
    },
    {
      "anonymous": false,
      "inputs": [
        {
          "indexed": false,
          "internalType": "uint256",
          "name": "oldAmount",
          "type": "uint256"
        },
        {
          "indexed": false,
          "internalType": "uint256",
          "name": "newAmount",
          "type": "uint256"
        }
      ],
      "name": "ReferralFeeUpdated",
      "type": "event"
    },
    {
      "anonymous": false,
      "inputs": [
        {
          "indexed": false,
          "internalType": "uint256",
          "name": "oldAmount",
          "type": "uint256"
        },
        {
          "indexed": false,
          "internalType": "uint256",
          "name": "newAmount",
          "type": "uint256"
        }
      ],
      "name": "StartingAmountUpdated",
      "type": "event"
    },
    {
      "anonymous": false,
      "inputs": [
        {
          "indexed": false,
          "internalType": "address",
          "name": "account",
          "type": "address"
        }
      ],
      "name": "Unpaused",
      "type": "event"
    },
    {
      "inputs": [],
      "name": "auctionAmount",
      "outputs": [
        {
          "internalType": "uint256",
          "name": "",
          "type": "uint256"
        }
      ],
      "stateMutability": "view",
      "type": "function"
    },
    {
      "inputs": [],
      "name": "auctionDuration",
      "outputs": [
        {
          "internalType": "uint256",
          "name": "",
          "type": "uint256"
        }
      ],
      "stateMutability": "view",
      "type": "function"
    },
    {
      "inputs": [],
      "name": "auctionDurationIncrease",
      "outputs": [
        {
          "internalType": "uint256",
          "name": "",
          "type": "uint256"
        }
      ],
      "stateMutability": "view",
      "type": "function"
    },
    {
      "inputs": [],
      "name": "auctionId",
      "outputs": [
        {
          "internalType": "uint256",
          "name": "",
          "type": "uint256"
        }
      ],
      "stateMutability": "view",
      "type": "function"
    },
    {
      "inputs": [
        {
          "internalType": "uint256",
          "name": "",
          "type": "uint256"
        }
      ],
      "name": "auctions",
      "outputs": [
        {
          "internalType": "uint256",
          "name": "auctionAmount",
          "type": "uint256"
        },
        {
          "internalType": "uint256",
          "name": "startTime",
          "type": "uint256"
        },
        {
          "internalType": "uint256",
          "name": "endTime",
          "type": "uint256"
        },
        {
          "internalType": "uint256",
          "name": "startingAmount",
          "type": "uint256"
        },
        {
          "internalType": "uint256",
          "name": "bidIncrement",
          "type": "uint256"
        },
        {
          "internalType": "uint256",
          "name": "referralFee",
          "type": "uint256"
        },
        {
          "internalType": "uint256",
          "name": "platformFee",
          "type": "uint256"
        },
        {
          "internalType": "uint256",
          "name": "bidCount",
          "type": "uint256"
        },
        {
          "internalType": "address",
          "name": "highestBidder",
          "type": "address"
        },
        {
          "internalType": "uint256",
          "name": "highestBid",
          "type": "uint256"
        },
        {
          "internalType": "bool",
          "name": "ended",
          "type": "bool"
        }
      ],
      "stateMutability": "view",
      "type": "function"
    },
    {
      "inputs": [],
      "name": "bidIncrement",
      "outputs": [
        {
          "internalType": "uint256",
          "name": "",
          "type": "uint256"
        }
      ],
      "stateMutability": "view",
      "type": "function"
    },
    {
      "inputs": [],
      "name": "endAuction",
      "outputs": [],
      "stateMutability": "nonpayable",
      "type": "function"
    },
    {
      "inputs": [],
      "name": "owner",
      "outputs": [
        {
          "internalType": "address",
          "name": "",
          "type": "address"
        }
      ],
      "stateMutability": "view",
      "type": "function"
    },
    {
      "inputs": [],
      "name": "pause",
      "outputs": [],
      "stateMutability": "nonpayable",
      "type": "function"
    },
    {
      "inputs": [],
      "name": "paused",
      "outputs": [
        {
          "internalType": "bool",
          "name": "",
          "type": "bool"
        }
      ],
      "stateMutability": "view",
      "type": "function"
    },
    {
      "inputs": [
        {
          "internalType": "address",
          "name": "_referral",
          "type": "address"
        }
      ],
      "name": "placeBid",
      "outputs": [],
      "stateMutability": "nonpayable",
      "type": "function"
    },
    {
      "inputs": [],
      "name": "platformFee",
      "outputs": [
        {
          "internalType": "uint256",
          "name": "",
          "type": "uint256"
        }
      ],
      "stateMutability": "view",
      "type": "function"
    },
    {
      "inputs": [],
      "name": "platformFeesClaimed",
      "outputs": [
        {
          "internalType": "uint256",
          "name": "",
          "type": "uint256"
        }
      ],
      "stateMutability": "view",
      "type": "function"
    },
    {
      "inputs": [],
      "name": "platformFeesCollected",
      "outputs": [
        {
          "internalType": "uint256",
          "name": "",
          "type": "uint256"
        }
      ],
      "stateMutability": "view",
      "type": "function"
    },
    {
      "inputs": [],
      "name": "referralFee",
      "outputs": [
        {
          "internalType": "uint256",
          "name": "",
          "type": "uint256"
        }
      ],
      "stateMutability": "view",
      "type": "function"
    },
    {
      "inputs": [],
      "name": "renounceOwnership",
      "outputs": [],
      "stateMutability": "nonpayable",
      "type": "function"
    },
    {
      "inputs": [
        {
          "internalType": "uint256",
          "name": "_auctionAmount",
          "type": "uint256"
        }
      ],
      "name": "setAuctionAmount",
      "outputs": [],
      "stateMutability": "nonpayable",
      "type": "function"
    },
    {
      "inputs": [
        {
          "internalType": "uint256",
          "name": "_auctionDuration",
          "type": "uint256"
        }
      ],
      "name": "setAuctionDuration",
      "outputs": [],
      "stateMutability": "nonpayable",
      "type": "function"
    },
    {
      "inputs": [
        {
          "internalType": "uint256",
          "name": "_auctionDurationIncrease",
          "type": "uint256"
        }
      ],
      "name": "setAuctionDurationIncrease",
      "outputs": [],
      "stateMutability": "nonpayable",
      "type": "function"
    },
    {
      "inputs": [
        {
          "internalType": "uint256",
          "name": "_bidIncrement",
          "type": "uint256"
        }
      ],
      "name": "setBidIncrement",
      "outputs": [],
      "stateMutability": "nonpayable",
      "type": "function"
    },
    {
      "inputs": [
        {
          "internalType": "uint256",
          "name": "_platformFee",
          "type": "uint256"
        }
      ],
      "name": "setPlatformFee",
      "outputs": [],
      "stateMutability": "nonpayable",
      "type": "function"
    },
    {
      "inputs": [
        {
          "internalType": "uint256",
          "name": "_referralFee",
          "type": "uint256"
        }
      ],
      "name": "setReferralFee",
      "outputs": [],
      "stateMutability": "nonpayable",
      "type": "function"
    },
    {
      "inputs": [
        {
          "internalType": "uint256",
          "name": "_startingAmount",
          "type": "uint256"
        }
      ],
      "name": "setStartingAmount",
      "outputs": [],
      "stateMutability": "nonpayable",
      "type": "function"
    },
    {
      "inputs": [],
      "name": "startAuction",
      "outputs": [],
      "stateMutability": "nonpayable",
      "type": "function"
    },
    {
      "inputs": [],
      "name": "startingAmount",
      "outputs": [
        {
          "internalType": "uint256",
          "name": "",
          "type": "uint256"
        }
      ],
      "stateMutability": "view",
      "type": "function"
    },
    {
      "inputs": [],
      "name": "tokenAddress",
      "outputs": [
        {
          "internalType": "address",
          "name": "",
          "type": "address"
        }
      ],
      "stateMutability": "view",
      "type": "function"
    },
    {
      "inputs": [],
      "name": "totalReferralRewardsCollected",
      "outputs": [
        {
          "internalType": "uint256",
          "name": "",
          "type": "uint256"
        }
      ],
      "stateMutability": "view",
      "type": "function"
    },
    {
      "inputs": [
        {
          "internalType": "address",
          "name": "newOwner",
          "type": "address"
        }
      ],
      "name": "transferOwnership",
      "outputs": [],
      "stateMutability": "nonpayable",
      "type": "function"
    },
    {
      "inputs": [],
      "name": "unpause",
      "outputs": [],
      "stateMutability": "nonpayable",
      "type": "function"
    },
    {
      "inputs": [],
      "name": "withdraw",
      "outputs": [],
      "stateMutability": "nonpayable",
      "type": "function"
    },
    {
      "inputs": [],
      "name": "withdrawPlatformFees",
      "outputs": [],
      "stateMutability": "nonpayable",
      "type": "function"
    },
    {
      "stateMutability": "payable",
      "type": "receive"
    }
  ],
  "transactionHash": "0x4cb1988d2dedd84ba79a6940342b8f92e4d80a9ba79b048be925c3841f908b15",
  "args": [
    "0xE20968f84A535be7d7a97d3a1a5760d89D6c4Ce0",
    "0xcE295748B9CaCAE371b860E57C58A61F310ebD0F"
  ],
  "numDeployments": 9,
  "solcInputHash": "22036841dd7aa0fc6e14278dab017ab4",
  "bytecode": "0x60806040526305f5e100600455610258600555603c600655620f42406007556203d0906008556203d090600955620f4240600a553480156200004057600080fd5b5060405162001ede38038062001ede833981016040819052620000639162000144565b816001600160a01b0381166200009357604051631e4fbdf760e01b81526000600482015260240160405180910390fd5b6200009e81620000d7565b506000805460ff60a01b1916905560018055600280546001600160a01b0319166001600160a01b0392909216919091179055506200017c565b600080546001600160a01b038381166001600160a01b0319831681178455604051919092169283917f8be0079c531659141344cd1fd0a4f28419497f9722a3daafe3b4186f6b6457e09190a35050565b80516001600160a01b03811681146200013f57600080fd5b919050565b600080604083850312156200015857600080fd5b620001638362000127565b9150620001736020840162000127565b90509250929050565b611d52806200018c6000396000f3fe6080604052600436106101dc5760003560e01c80638456cb5911610102578063b3cc167a11610095578063dcb5747b11610064578063dcb5747b14610592578063e4940157146105a8578063f2fde38b146105c8578063fe67a54b146105e857600080fd5b8063b3cc167a14610531578063bcf9529014610547578063caadca2a1461055d578063d0b7830b1461057d57600080fd5b8063a497e674116100d1578063a497e674146104c5578063a76d13cd146104e5578063ae84925d146104fb578063b36ffca61461051b57600080fd5b80638456cb591461044857806384ae2bc61461045d5780638da5cb5b146104735780639d76ea58146104a557600080fd5b8063544f113b1161017a5780636b64c769116101495780636b64c769146103de578063713494d7146103f3578063715018a6146104135780637b850da91461042857600080fd5b8063544f113b1461029f578063571a26a0146102b55780635c975abb146103945780635e56974a146103be57600080fd5b80631502f8d5116101b65780631502f8d51461024957806326232a2e1461025f5780633ccfd60b146102755780633f4ba83a1461028a57600080fd5b80630cbf54c8146101e857806310782f8f1461021157806312e8e2c31461022757600080fd5b366101e357005b600080fd5b3480156101f457600080fd5b506101fe60055481565b6040519081526020015b60405180910390f35b34801561021d57600080fd5b506101fe60035481565b34801561023357600080fd5b50610247610242366004611b9d565b6105fd565b005b34801561025557600080fd5b506101fe600c5481565b34801561026b57600080fd5b506101fe600a5481565b34801561028157600080fd5b506102476106d3565b34801561029657600080fd5b50610247610789565b3480156102ab57600080fd5b506101fe60075481565b3480156102c157600080fd5b506103366102d0366004611b9d565b600e60205260009081526040902080546001820154600283015460038401546004850154600586015460068701546007880154600889015460098a0154600a909a0154989997989697959694959394929391926001600160a01b03909116919060ff168b565b604080519b8c5260208c019a909a52988a01979097526060890195909552608088019390935260a087019190915260c086015260e08501526001600160a01b0316610100840152610120830152151561014082015261016001610208565b3480156103a057600080fd5b50600054600160a01b900460ff166040519015158152602001610208565b3480156103ca57600080fd5b506102476103d9366004611b9d565b610799565b3480156103ea57600080fd5b5061024761082f565b3480156103ff57600080fd5b5061024761040e366004611b9d565b6108f9565b34801561041f57600080fd5b50610247610961565b34801561043457600080fd5b50610247610443366004611b9d565b610973565b34801561045457600080fd5b50610247610a09565b34801561046957600080fd5b506101fe60095481565b34801561047f57600080fd5b506000546001600160a01b03165b6040516001600160a01b039091168152602001610208565b3480156104b157600080fd5b5060025461048d906001600160a01b031681565b3480156104d157600080fd5b506102476104e0366004611b9d565b610a19565b3480156104f157600080fd5b506101fe600d5481565b34801561050757600080fd5b50610247610516366004611b9d565b610aaf565b34801561052757600080fd5b506101fe600b5481565b34801561053d57600080fd5b506101fe60085481565b34801561055357600080fd5b506101fe60065481565b34801561056957600080fd5b50610247610578366004611b9d565b610b45565b34801561058957600080fd5b50610247610b8b565b34801561059e57600080fd5b506101fe60045481565b3480156105b457600080fd5b506102476105c3366004611bb6565b610c47565b3480156105d457600080fd5b506102476105e3366004611bb6565b6110c7565b3480156105f457600080fd5b50610247611102565b6106056111d2565b6000811161065a5760405162461bcd60e51b815260206004820152601760248201527f706c6174666f726d466565206d757374206265203e203000000000000000000060448201526064015b60405180910390fd5b80600954111561067c5760405162461bcd60e51b815260040161065190611bdf565b600a80549082905560095482101561069557600a546009555b60408051828152602081018490527fd347e206f25a89b917fc9482f1a2d294d749baa4dc9bde7fb495ee11fe49164391015b60405180910390a15050565b6106db6111d2565b6106e36111ff565b600080546040516001600160a01b039091169047908381818185875af1925050503d8060008114610730576040519150601f19603f3d011682016040523d82523d6000602084013e610735565b606091505b505090508061077d5760405162461bcd60e51b81526020600482015260146024820152732330b4b632b2103a379039b2b7321022ba3432b960611b6044820152606401610651565b5061078760018055565b565b6107916111d2565b610787611229565b6107a16111d2565b600081116107f15760405162461bcd60e51b815260206004820152601a60248201527f7374617274696e67416d6f756e74206d757374206265203e20300000000000006044820152606401610651565b600780549082905560408051828152602081018490527f4ccb4817dce85ff59507ca2c693ef8fdd6354419e5ed2a6ef9496d979d98e9da91016106c7565b61083761127e565b61083f6111ff565b6003546000818152600e602052604090209015806108665750600a81015460ff1615156001145b6108ab5760405162461bcd60e51b815260206004820152601660248201527541756374696f6e20616c72656164792061637469766560501b6044820152606401610651565b600380549060006108bb83611c3a565b909155505060035460025460045460055461077d93926001600160a01b0316919042906108e89082611c53565b600754600854600954600a546112a9565b6109016111d2565b600a548111156109235760405162461bcd60e51b815260040161065190611bdf565b600980549082905560408051828152602081018490527fe6a16ded5057640d8831f18cd4885a75642c76b3fde5215975c3d9735027fa2091016106c7565b6109696111d2565b61078760006115fb565b61097b6111d2565b600081116109cb5760405162461bcd60e51b815260206004820152601860248201527f626964496e6372656d656e74206d757374206265203e203000000000000000006044820152606401610651565b600880549082905560408051828152602081018490527fde7c4e4290bb6d88f94b00d24ffd00ffcb6b828adb0e8a72e85ad21d85baaaeb91016106c7565b610a116111d2565b61078761164b565b610a216111d2565b60008111610a715760405162461bcd60e51b815260206004820152601b60248201527f61756374696f6e4475726174696f6e206d757374206265203e203000000000006044820152606401610651565b600580549082905560408051828152602081018490527f9702db1e67fa6b64b8288101859f3b327a978f15d66e12ad769e5bbf30814d2891016106c7565b610ab76111d2565b60008111610b075760405162461bcd60e51b815260206004820152601960248201527f61756374696f6e416d6f756e74206d757374206265203e2030000000000000006044820152606401610651565b600480549082905560408051828152602081018490527f2f3a4f733ff4215b09dcc7fbf1a6ba7865195aa6f96655899c3dbb358a0eb72891016106c7565b610b4d6111d2565b600680549082905560408051828152602081018490527fa0c8ba418e7f434a532cdc1be7da4ac9ca7e416e31946164f008fd1d7f79772f91016106c7565b610b936111d2565b610b9b6111ff565b600c54600b5411610be15760405162461bcd60e51b815260206004820152601060248201526f4e6f206665657320746f20636c61696d60801b6044820152606401610651565b600254600c54600b546001600160a01b0390921691600091610c0291611c66565b905080600c6000828254610c169190611c53565b9091555050600054610c3c906001600160a01b03166001600160a01b038416908361168e565b505061078760018055565b610c4f61127e565b610c576111ff565b6003546000908152600e6020526040902060018101544210801590610c7f5750428160020154115b8015610c905750600a81015460ff16155b610cd15760405162461bcd60e51b815260206004820152601260248201527141756374696f6e206e6f742061637469766560701b6044820152606401610651565b6008810154336001600160a01b0390911603610d3a5760405162461bcd60e51b815260206004820152602260248201527f596f752061726520616c7265616479207468652068696768657374206269646460448201526132b960f11b6064820152608401610651565b60008160090154600014610d615781600401548260090154610d5c9190611c53565b610d67565b81600301545b90506000600a5482610d799190611c53565b6002546040516370a0823160e01b81523360048201529192506001600160a01b03169060009082906370a0823190602401602060405180830381865afa158015610dc7573d6000803e3d6000fd5b505050506040513d601f19601f82011682018060405250810190610deb9190611c79565b905082811015610e345760405162461bcd60e51b8152602060048201526014602482015273496e73756666696369656e742062616c616e636560601b6044820152606401610651565b604051636eb1769f60e11b81523360048201523060248201526000906001600160a01b0384169063dd62ed3e90604401602060405180830381865afa158015610e81573d6000803e3d6000fd5b505050506040513d601f19601f82011682018060405250810190610ea59190611c79565b905083811015610ef05760405162461bcd60e51b8152602060048201526016602482015275496e73756666696369656e7420616c6c6f77616e636560501b6044820152606401610651565b600886015460098701546001600160a01b039182169133908a1603610f1457600098505b6008880180546001600160a01b0319163317905560098801879055600788018054906000610f4183611c3a565b9190505550600654428960020154610f599190611c66565b108015610f665750875487105b15610f8757600654886002016000828254610f819190611c53565b90915550505b6001600160a01b03891615610fdc57600954600a54610fa69190611c66565b600b6000828254610fb79190611c53565b9091555050600954600d8054600090610fd1908490611c53565b90915550610ff69050565b600a54600b6000828254610ff09190611c53565b90915550505b61100b6001600160a01b0386163330896116f2565b6001600160a01b0382161561102e5761102e6001600160a01b038616838361168e565b6001600160a01b0389161561105657600954611056906001600160a01b038716908b9061168e565b886001600160a01b0316336001600160a01b03166003547f2e296671c28b83e813c76e2acf7481f5a2cc46aaeb9bcf33b3e048f50e9c33e98a8c600201546040516110ab929190918252602082015260400190565b60405180910390a450505050505050506110c460018055565b50565b6110cf6111d2565b6001600160a01b0381166110f957604051631e4fbdf760e01b815260006004820152602401610651565b6110c4816115fb565b61110a61127e565b6111126111ff565b6003546000908152600e60205260409020600a81015460ff16156111705760405162461bcd60e51b8152602060048201526015602482015274105d58dd1a5bdb88185b1c9958591e48195b991959605a1b6044820152606401610651565b428160020154108061118757508054600982015410155b6111c75760405162461bcd60e51b8152602060048201526011602482015270105d58dd1a5bdb881b9bdd08195b991959607a1b6044820152606401610651565b61077d600354611731565b6000546001600160a01b031633146107875760405163118cdaa760e01b8152336004820152602401610651565b60026001540361122257604051633ee5aeb560e01b815260040160405180910390fd5b6002600155565b6112316118d9565b6000805460ff60a01b191690557f5db9ee0a495bf2e6ff9c91a7834c1ba4fdd244a5e8aa4e537bd38aeae4b073aa335b6040516001600160a01b03909116815260200160405180910390a1565b600054600160a01b900460ff16156107875760405163d93c066560e01b815260040160405180910390fd5b6040516370a0823160e01b81523060048201526000906001600160a01b038a16906370a0823190602401602060405180830381865afa1580156112f0573d6000803e3d6000fd5b505050506040513d601f19601f820116820180604052508101906113149190611c79565b90506000600c54600b541161132a57600061133a565b600c54600b5461133a9190611c66565b90506113468587611c53565b82116113a25760405162461bcd60e51b815260206004820152602560248201527f496e73756666696369656e742062616c616e636520746f20737461727420617560448201526431ba34b7b760d91b6064820152608401610651565b60008983116113b157826113b3565b895b90506113bf8284611c66565b8111156113f1576113d08284611c66565b6113da9082611c66565b600c60008282546113eb9190611c53565b90915550505b60026113fe826003611c92565b6114089190611ca9565b83111561146157600060028061141f846003611c92565b6114299190611ca9565b6114339086611c66565b61143d9190611ca9565b905061144a600282611ca9565b6114549083611c53565b915061145f81611903565b505b6040518061016001604052808281526020018a81526020018981526020018881526020018781526020018681526020018581526020016000815260200160006001600160a01b031681526020016000815260200160001515815250600e60008e8152602001908152602001600020600082015181600001556020820151816001015560408201518160020155606082015181600301556080820151816004015560a0820151816005015560c0820151816006015560e082015181600701556101008201518160080160006101000a8154816001600160a01b0302191690836001600160a01b03160217905550610120820151816009015561014082015181600a0160006101000a81548160ff0219169083151502179055509050506003547f424afe538742d006bbba9d1d6131ac9b057e5228336237362e3967be8dc5887a828b8b8b8b8b8b6040516115e59796959493929190968752602087019590955260408601939093526060850191909152608084015260a083015260c082015260e00190565b60405180910390a2505050505050505050505050565b600080546001600160a01b038381166001600160a01b0319831681178455604051919092169283917f8be0079c531659141344cd1fd0a4f28419497f9722a3daafe3b4186f6b6457e09190a35050565b61165361127e565b6000805460ff60a01b1916600160a01b1790557f62e78cea01bee320cd4e420270b5ea74000d11b0c9f74754ebdbfc544b05a2586112613390565b6040516001600160a01b038381166024830152604482018390526116ed91859182169063a9059cbb906064015b604051602081830303815290604052915060e01b6020820180516001600160e01b0383818316178352505050506119ff565b505050565b6040516001600160a01b03848116602483015283811660448301526064820183905261172b9186918216906323b872dd906084016116bb565b50505050565b6000818152600e60205260409020811580159061175057506003548211155b6117905760405162461bcd60e51b8152602060048201526011602482015270105d58dd1a5bdb881b9bdd08199bdd5b99607a1b6044820152606401610651565b600a81015460ff16156117dd5760405162461bcd60e51b8152602060048201526015602482015274105d58dd1a5bdb88185b1c9958591e48195b991959605a1b6044820152606401610651565b42816002015410806117f457508054600982015410155b6118345760405162461bcd60e51b8152602060048201526011602482015270105d58dd1a5bdb881b9bdd08195b991959607a1b6044820152606401610651565b600a8101805460ff1916600117905560088101546001600160a01b03161561187c57600254600882015482546001600160a01b039283169261187a92849291169061168e565b505b6008810154815460098301546040516001600160a01b039093169285927fe9ba83469fc8ee4260dd274fd43b5a54f2df813ad21c4637d53084d1f3866b37926118cd92918252602082015260400190565b60405180910390a35050565b600054600160a01b900460ff1661078757604051638dfc202b60e01b815260040160405180910390fd5b6002546040516370a0823160e01b81523060048201526000916001600160a01b0316906370a0823190602401602060405180830381865afa15801561194c573d6000803e3d6000fd5b505050506040513d601f19601f820116820180604052508101906119709190611c79565b90508181116119c15760405162461bcd60e51b815260206004820181905260248201527f496e73756666696369656e742062616c616e636520746f2077697468647261776044820152606401610651565b81600c60008282546119d39190611c53565b90915550506000546119fb906001600160a01b03166002546001600160a01b0316908461168e565b5050565b6000611a146001600160a01b03841683611a62565b90508051600014158015611a39575080806020019051810190611a379190611ccb565b155b156116ed57604051635274afe760e01b81526001600160a01b0384166004820152602401610651565b6060611a7083836000611a79565b90505b92915050565b606081471015611a9e5760405163cd78605960e01b8152306004820152602401610651565b600080856001600160a01b03168486604051611aba9190611ced565b60006040518083038185875af1925050503d8060008114611af7576040519150601f19603f3d011682016040523d82523d6000602084013e611afc565b606091505b5091509150611b0c868383611b18565b925050505b9392505050565b606082611b2d57611b2882611b74565b611b11565b8151158015611b4457506001600160a01b0384163b155b15611b6d57604051639996b31560e01b81526001600160a01b0385166004820152602401610651565b5080611b11565b805115611b845780518082602001fd5b604051630a12f52160e11b815260040160405180910390fd5b600060208284031215611baf57600080fd5b5035919050565b600060208284031215611bc857600080fd5b81356001600160a01b0381168114611b1157600080fd5b60208082526025908201527f726566657272616c4665652063616e6e6f742065786365656420706c6174666f604082015264726d46656560d81b606082015260800190565b634e487b7160e01b600052601160045260246000fd5b600060018201611c4c57611c4c611c24565b5060010190565b80820180821115611a7357611a73611c24565b81810381811115611a7357611a73611c24565b600060208284031215611c8b57600080fd5b5051919050565b8082028115828204841417611a7357611a73611c24565b600082611cc657634e487b7160e01b600052601260045260246000fd5b500490565b600060208284031215611cdd57600080fd5b81518015158114611b1157600080fd5b6000825160005b81811015611d0e5760208186018101518583015201611cf4565b50600092019182525091905056fea2646970667358221220dd7e27d255415f16223f67c85d802159e7e661ad370f25a8b011878a7b58b73764736f6c63430008140033",
  "devdoc": {
    "author": "BuidlGuidl",
    "errors": {
      "AddressEmptyCode(address)": [
        {
          "details": "There's no code at `target` (it is not a contract)."
        }
      ],
      "AddressInsufficientBalance(address)": [
        {
          "details": "The ETH balance of the account is not enough to perform the operation."
        }
      ],
      "EnforcedPause()": [
        {
          "details": "The operation failed because the contract is paused."
        }
      ],
      "ExpectedPause()": [
        {
          "details": "The operation failed because the contract is not paused."
        }
      ],
      "FailedInnerCall()": [
        {
          "details": "A call to an address target failed. The target may have reverted."
        }
      ],
      "OwnableInvalidOwner(address)": [
        {
          "details": "The owner is not a valid owner account. (eg. `address(0)`)"
        }
      ],
      "OwnableUnauthorizedAccount(address)": [
        {
          "details": "The caller account is not authorized to perform an operation."
        }
      ],
      "ReentrancyGuardReentrantCall()": [
        {
          "details": "Unauthorized reentrant call."
        }
      ],
      "SafeERC20FailedOperation(address)": [
        {
          "details": "An operation with an ERC20 token failed."
        }
      ]
    },
    "events": {
      "Paused(address)": {
        "details": "Emitted when the pause is triggered by `account`."
      },
      "Unpaused(address)": {
        "details": "Emitted when the pause is lifted by `account`."
      }
    },
    "kind": "dev",
    "methods": {
      "owner()": {
        "details": "Returns the address of the current owner."
      },
      "paused()": {
        "details": "Returns true if the contract is paused, and false otherwise."
      },
      "renounceOwnership()": {
        "details": "Leaves the contract without owner. It will not be possible to call `onlyOwner` functions. Can only be called by the current owner. NOTE: Renouncing ownership will leave the contract without an owner, thereby disabling any functionality that is only available to the owner."
      },
      "transferOwnership(address)": {
        "details": "Transfers ownership of the contract to a new account (`newOwner`). Can only be called by the current owner."
      }
    },
    "version": 1
  },
  "userdoc": {
    "kind": "user",
    "methods": {
      "withdraw()": {
        "notice": "Function that allows the owner to withdraw all the Ether in the contract The function can only be called by the owner of the contract as defined by the onlyOwner modifier"
      }
    },
    "notice": "A smart contract that allows changing a state variable of the contract and tracking the changes It also allows the owner to withdraw the Ether in the contract",
    "version": 1
  },
  "storageLayout": {
    "storage": [
      {
        "astId": 8,
        "contract": "contracts/FinalBidContract.sol:FinalBidContract",
        "label": "_owner",
        "offset": 0,
        "slot": "0",
        "type": "t_address"
      },
      {
        "astId": 843,
        "contract": "contracts/FinalBidContract.sol:FinalBidContract",
        "label": "_paused",
        "offset": 20,
        "slot": "0",
        "type": "t_bool"
      },
      {
        "astId": 962,
        "contract": "contracts/FinalBidContract.sol:FinalBidContract",
        "label": "_status",
        "offset": 0,
        "slot": "1",
        "type": "t_uint256"
      },
      {
        "astId": 1042,
        "contract": "contracts/FinalBidContract.sol:FinalBidContract",
        "label": "tokenAddress",
        "offset": 0,
        "slot": "2",
        "type": "t_address"
      },
      {
        "astId": 1044,
        "contract": "contracts/FinalBidContract.sol:FinalBidContract",
        "label": "auctionId",
        "offset": 0,
        "slot": "3",
        "type": "t_uint256"
      },
      {
        "astId": 1047,
        "contract": "contracts/FinalBidContract.sol:FinalBidContract",
        "label": "auctionAmount",
        "offset": 0,
        "slot": "4",
        "type": "t_uint256"
      },
      {
        "astId": 1050,
        "contract": "contracts/FinalBidContract.sol:FinalBidContract",
        "label": "auctionDuration",
        "offset": 0,
        "slot": "5",
        "type": "t_uint256"
      },
      {
        "astId": 1053,
        "contract": "contracts/FinalBidContract.sol:FinalBidContract",
        "label": "auctionDurationIncrease",
        "offset": 0,
        "slot": "6",
        "type": "t_uint256"
      },
      {
        "astId": 1056,
        "contract": "contracts/FinalBidContract.sol:FinalBidContract",
        "label": "startingAmount",
        "offset": 0,
        "slot": "7",
        "type": "t_uint256"
      },
      {
        "astId": 1059,
        "contract": "contracts/FinalBidContract.sol:FinalBidContract",
        "label": "bidIncrement",
        "offset": 0,
        "slot": "8",
        "type": "t_uint256"
      },
      {
        "astId": 1062,
        "contract": "contracts/FinalBidContract.sol:FinalBidContract",
        "label": "referralFee",
        "offset": 0,
        "slot": "9",
        "type": "t_uint256"
      },
      {
        "astId": 1065,
        "contract": "contracts/FinalBidContract.sol:FinalBidContract",
        "label": "platformFee",
        "offset": 0,
        "slot": "10",
        "type": "t_uint256"
      },
      {
        "astId": 1067,
        "contract": "contracts/FinalBidContract.sol:FinalBidContract",
        "label": "platformFeesCollected",
        "offset": 0,
        "slot": "11",
        "type": "t_uint256"
      },
      {
        "astId": 1069,
        "contract": "contracts/FinalBidContract.sol:FinalBidContract",
        "label": "platformFeesClaimed",
        "offset": 0,
        "slot": "12",
        "type": "t_uint256"
      },
      {
        "astId": 1071,
        "contract": "contracts/FinalBidContract.sol:FinalBidContract",
        "label": "totalReferralRewardsCollected",
        "offset": 0,
        "slot": "13",
        "type": "t_uint256"
      },
      {
        "astId": 1099,
        "contract": "contracts/FinalBidContract.sol:FinalBidContract",
        "label": "auctions",
        "offset": 0,
        "slot": "14",
        "type": "t_mapping(t_uint256,t_struct(Auction)1094_storage)"
      }
    ],
    "types": {
      "t_address": {
        "encoding": "inplace",
        "label": "address",
        "numberOfBytes": "20"
      },
      "t_bool": {
        "encoding": "inplace",
        "label": "bool",
        "numberOfBytes": "1"
      },
      "t_mapping(t_uint256,t_struct(Auction)1094_storage)": {
        "encoding": "mapping",
        "key": "t_uint256",
        "label": "mapping(uint256 => struct FinalBidContract.Auction)",
        "numberOfBytes": "32",
        "value": "t_struct(Auction)1094_storage"
      },
      "t_struct(Auction)1094_storage": {
        "encoding": "inplace",
        "label": "struct FinalBidContract.Auction",
        "members": [
          {
            "astId": 1073,
            "contract": "contracts/FinalBidContract.sol:FinalBidContract",
            "label": "auctionAmount",
            "offset": 0,
            "slot": "0",
            "type": "t_uint256"
          },
          {
            "astId": 1075,
            "contract": "contracts/FinalBidContract.sol:FinalBidContract",
            "label": "startTime",
            "offset": 0,
            "slot": "1",
            "type": "t_uint256"
          },
          {
            "astId": 1077,
            "contract": "contracts/FinalBidContract.sol:FinalBidContract",
            "label": "endTime",
            "offset": 0,
            "slot": "2",
            "type": "t_uint256"
          },
          {
            "astId": 1079,
            "contract": "contracts/FinalBidContract.sol:FinalBidContract",
            "label": "startingAmount",
            "offset": 0,
            "slot": "3",
            "type": "t_uint256"
          },
          {
            "astId": 1081,
            "contract": "contracts/FinalBidContract.sol:FinalBidContract",
            "label": "bidIncrement",
            "offset": 0,
            "slot": "4",
            "type": "t_uint256"
          },
          {
            "astId": 1083,
            "contract": "contracts/FinalBidContract.sol:FinalBidContract",
            "label": "referralFee",
            "offset": 0,
            "slot": "5",
            "type": "t_uint256"
          },
          {
            "astId": 1085,
            "contract": "contracts/FinalBidContract.sol:FinalBidContract",
            "label": "platformFee",
            "offset": 0,
            "slot": "6",
            "type": "t_uint256"
          },
          {
            "astId": 1087,
            "contract": "contracts/FinalBidContract.sol:FinalBidContract",
            "label": "bidCount",
            "offset": 0,
            "slot": "7",
            "type": "t_uint256"
          },
          {
            "astId": 1089,
            "contract": "contracts/FinalBidContract.sol:FinalBidContract",
            "label": "highestBidder",
            "offset": 0,
            "slot": "8",
            "type": "t_address"
          },
          {
            "astId": 1091,
            "contract": "contracts/FinalBidContract.sol:FinalBidContract",
            "label": "highestBid",
            "offset": 0,
            "slot": "9",
            "type": "t_uint256"
          },
          {
            "astId": 1093,
            "contract": "contracts/FinalBidContract.sol:FinalBidContract",
            "label": "ended",
            "offset": 0,
            "slot": "10",
            "type": "t_bool"
          }
        ],
        "numberOfBytes": "352"
      },
      "t_uint256": {
        "encoding": "inplace",
        "label": "uint256",
        "numberOfBytes": "32"
      }
    }
  }
}